:100000000C9407120C942F120C942F120C942F1294
:100010000C942F120C942F120C942F120C942F125C
:100020000C942F120C942F120C9485190C94F71920
:100030000C942F120C942F120C942F120C942F123C
:100040000C942F120C942F120C942F120C942F122C
:100050000C942F120C942F120C942F120C948E22AD
:100060000C942F120C942F120C942F120C942F120C
:100070000C942F120C942F120C942F120C942F12FC
:100080000C942F120C942F120C942F120C942F12EC
:100090000C942F120C942F120C942F120C942F12DC
:1000A0000C942F120C942F120C942F12FF9999FF7D
:1000B000FFFFFF9999FF01FD05050505050565F59C
:1000C000FD01FF9999FFFFFFFF9999FF1C387266A8
:1000D0004C1832664E1C00FF7C3800000000000007
:1000E000FF001C3872664C1832664E1C8EA7B399FE
:1000F0008CA6B3B99C8E00FF0000000000001C3EDF
:10010000FF000EA7B3998CA6B3B99C8EFFFFFFFF2B
:10011000FFFFFFFFFFFF80BFAFA6A0A0A0A0A0A091
:10012000BF8080FFFFFFFFFFFFFFFFFFFF01FD0517
:1001300005050505050505050505FD0101C121119B
:10014000090505050505091121C101FFFF007F40D3
:10015000404040404040404040407F000007081081
:100160002040404040402010080700FFFF000000F2
:10017000000000C0C0C00000000000000002040831
:100180001020408040201008040200FFFF80808083
:1001900080808081818180808080808080A0908824
:1001A000848281808182848890A080FFFF01FD0588
:1001B00005050505050505050505FD0101C121111B
:1001C000090505050505091121C101FFFF007F4053
:1001D000404040404040404040407F000007081001
:1001E0002040404040402010080700FFFF00000072
:1001F000000000C0C0C000000000000000020408B1
:100200001020408040201008040200FFFF80808002
:1002100080808081818180808080808080A09088A3
:10022000848281808182848890A080FFFF01FD0507
:1002300005050505050505050505FD0101C121119A
:10024000090505050505091121C101FFFF007F40D2
:10025000404040404040404040407F000007081080
:100260002040404040402010080700FFFF000000F1
:10027000000000C0C0C00000000000000002040830
:100280001020408040201008040200FFFF80808082
:1002900080808081818180808080808080A0908823
:1002A000848281808182848890A080FFFF01FD0587
:1002B00005050505050505050505FD0101C121111A
:1002C000090505050505091121C101FFFF007F4052
:1002D000404040404040404040407F000007081000
:1002E0002040404040402010080700FFFF00000071
:1002F000000000C0C0C000000000000000020408B0
:100300001020408040201008040200FFFF80808001
:1003100080808081818180808080808080A09088A2
:10032000848281808182848890A080FFC020100810
:100330000E013FC181010101010181C1211F3D4128
:10034000C101010101018181C14121FF3F30202014
:100350006078CE8381830604F41E0D080810101007
:1003600010D16121223A2760808000FF0000000048
:10037000000000808041612F3060C080C0C06020DC
:100380001C1F40C080000000000101FF00F88484B1
:10039000828281818080808080C0B19F83808180C3
:1003A000808080F88D868282838181FFFF01010138
:1003B000E11111D1D11111E1010101C1212121214D
:1003C0002161A161A161C101010101FFFF000000E4
:1003D0001F20202E2E20201F000000FF0000000004
:1003E000000000000201FF00000000FFFF0000000D
:1003F0000000000000000000000000E31454B454AA
:10040000B454B4541454E300000000FFFFE0C1C82A
:10041000C2809080E0808080C0808080A18181C186
:100420008181818181C1808080C0E0FFFF018101E5
:1004300001010101010101010101010101010101AC
:100440000101014141414141810101FFFF007F80E4
:100450009E928C801C0A1C001E021E001E121A0096
:100460001E1A12001E0A14007F0000FFFF00000089
:100470000000000000000000046690D070D090667C
:100480000400000000000000000080FFFF8080806A
:100490008080808080808080848680838283808644
:1004A00084808080A080809082A880FFFF152B151B
:1004B0000903010101010101010101010101010122
:1004C0000105EDFDFD050101010101FFFF002030E7
:1004D00080808080803020000000F8FCFC1C181C0C
:1004E000DC1C1F1F0F000000000000FFFF00203376
:1004F000041E131E043320000000FFFE7F000000D6
:100500000400000000000080000000FFFF808080E9
:1005100080808080808080808080FFFFFF8080805E
:10052000808080E09CCAB983A08AA0FFFFFF0303FC
:100530000303030303030303FFFF03030303FFFF9B
:1005400003030303FFFF03030303FFFFFFFF000099
:100550008080808080000000FFFF00000000FFFF1F
:1005600000000000FFFF00000000FFFFFFFF000091
:100570000131493101000000FFFF00000000FFFFD2
:1005800000000000FFFF00000000FFFFFFFFC0C0F1
:10059000C0C0C0C0C0C0C0C0FFFFC0C0C0C0FFFF5F
:1005A000C0C0C0C0FFFFC0C0C0C0FFFF00F0282413
:1005B000222222222222E2120A02FC00003F2020F4
:1005C0002020202020201F20100807000000C0E06D
:1005D000F0F0E0C0E0F0F0E0C00000000000010733
:1005E0000F1F3F3F3F1F0F070100000000000000EA
:1005F00000000000000000000000000000003C407F
:10060000403040403C00001C10780000000000001A
:1006100000000000000000000000000000003C405E
:10062000403040403C000044547C0000000000008A
:1006300000000000000000000000000000003C403E
:10064000403040403C000074545C0000000000005A
:1006500000000000000000000000000000003C401E
:10066000403040403C000000087C000000000000DA
:10067000000000000000008080800000041C040CCA
:10068000041C0404040E1F3131311F0E0000000051
:1006900000000000000080C0E0F0F0F0F0F0F0E0BA
:1006A000C08000000000000000000000000000000A
:1006B0000000000000000F1F3F7E76EFEF767E3FC8
:1006C0001F0F0000000000000000000000000000FC
:1006D00000000000000010180C06FFFFFFFF060CD2
:1006E00018100000000000000000000000000000E2
:1006F0000000000000202030180C070303070C182E
:100700003020200000000000000000000000000079
:1007100000000000000080C0E0F0F0F0F0F0F0E039
:10072000C080000000000000000000000000000089
:100730000000000000000F1F3F7E76EFEF767E3F47
:100740001F0F00000000000000000000000000007B
:1007500000000000000010180C06FFFFFFFF060C51
:100760001810000000000000000000000000000061
:100770000000000000202030180C070303070C18AD
:1007800030202000000000000000000000000000F9
:1007900000000000000080C0E0F0F0F0F0F0F0E0B9
:1007A000C080000000000000000000000000000009
:1007B0000000000000000F1F3F7E76EFEF767E3FC7
:1007C0001F0F0000000000000000000000000000FB
:1007D00000000000000010180C06FFFFFFFF060CD1
:1007E00018100000000000000000000000000000E1
:1007F0000000000000202030180C070303070C182D
:100800003020200000000000000000000000000078
:1008100000000000000080C0E0F0F0F0F0F0F0E038
:10082000C080000000000000000000000000000088
:100830000000000000000F1F3F7E76EFEF767E3F46
:100840001F0F00000000000000000000000000007A
:1008500000000000000010180C06FFFFFFFF060C50
:100860001810000000000000000000000000000060
:100870000000000000202030180C070303070C18AC
:1008800030202000000000000000000000000000F8
:1008900000000000000080C0E0F0F0F0F0F0F0E0B8
:1008A000C080000000000000000000000000000008
:1008B0000000000000000F1F3F7E76EFEF767E3FC6
:1008C0001F0F0000000000000000000000000000FA
:1008D00000000000000010180C06FFFFFFFF060CD0
:1008E00018100000000000000000000000000000E0
:1008F0000000000000202030180C070303070C182C
:100900003020200000000000000000000000000077
:1009100000000000000080C0E0F0F0F0F0F0F0E037
:10092000C080000000000000000000000000000087
:100930000000000000000F1F3F7E76EFEF767E3F45
:100940001F0F000000000000000000000000000079
:1009500000000000000010180C06FFFFFFFF060C4F
:10096000181000000000000000000000000000005F
:100970000000000000202030180C070303070C18AB
:1009800030202000000000000000000000000000F7
:1009900000000000000080C0E0F0F0F0F0F0F0E0B7
:1009A000C080000000000000000000000000000007
:1009B0000000000000000F1F3F7E76EFEF767E3FC5
:1009C0001F0F0000000000000000000000000000F9
:1009D00000000000000010180C06FFFFFFFF060CCF
:1009E00018100000000000000000000000000000DF
:1009F0000000000000202030180C070303070C182B
:100A00003020200000000000000000000000000076
:100A100000000000000080C0E0F0F0F0F0F0F0E036
:100A2000C080000000000000000000000000000086
:100A30000000000000000F1F3F7E76EFEF767E3F44
:100A40001F0F000000000000000000000000000078
:100A500000000000000010180C06FFFFFFFF060C4E
:100A6000181000000000000000000000000000005E
:100A70000000000000202030180C070303070C18AA
:100A800030202000000000000000000000000000F6
:100A900000000000000080C0E0F0F0F0F0F0F0E0B6
:100AA000C080000000000000000000000000000006
:100AB0000000000000000F1F3F7E76EFEF767E3FC4
:100AC0001F0F0000000000000000000000000000F8
:100AD00000000000000010180C06FFFFFFFF060CCE
:100AE00018100000000000000000000000000000DE
:100AF0000000000000202030180C070303070C182A
:100B00003020200000000000000000000000000075
:100B100000000000000080C0E0F0F0F0F0F0F0E035
:100B2000C080000000000000000000000000000085
:100B30000000000000000F1F3F7E76EFEF767E3F43
:100B40001F0F000000000000000000000000000077
:100B500000000000000010180C06FFFFFFFF060C4D
:100B6000181000000000000000000000000000005D
:100B70000000000000202030180C070303070C18A9
:100B800030202000000000000000000000000000F5
:100B900000000000000080C0E0F0F0F0F0F0F0E0B5
:100BA000C080000000000000000000000000000005
:100BB0000000000000000F1F3F7E76EFEF767E3FC3
:100BC0001F0F0000000000000000000000000000F7
:100BD00000000000000010180C06FFFFFFFF060CCD
:100BE00018100000000000000000000000000000DD
:100BF0000000000000202030180C070303070C1829
:100C00003020200000000000000000000000000074
:100C100000000000000080C0E0F0F0F0F0F0F0E034
:100C2000C080000000000000000000000000000084
:100C30000000000000000F1F3F7E76EFEF767E3F42
:100C40001F0F000000000000000000000000000076
:100C500000000000000010180C06FFFFFFFF060C4C
:100C6000181000000000000000000000000000005C
:100C70000000000000202030180C070303070C18A8
:100C800030202000000000000000000000000000F4
:100C900000000000000000000000000000FF000055
:100CA0000000000000000000000000000000000044
:100CB0000000000000000000800000C0780F0080ED
:100CC0000000000000000000000000000000000024
:100CD000000000000000422424DB245F5E24DB24AB
:100CE000244200000000000000000000000000009E
:100CF00000000000000000000100000000000001F2
:100D000000000000000000000000000000000000E3
:100D100000000000000000000000000000000000D3
:100D200000000000000000000000000000000000C3
:100D300000000000FCFC3333C3C3C3C3C3C3C3C33D
:100D40003333FCFC00000000000000000000000045
:100D500000000000FFFF3333CCCC3333CCCC333333
:100D6000CCCCFFFF000000000000000000000000ED
:100D7000000000003F3FF3F3CCCCF3F3CCCCF3F313
:100D8000CCCC3F3F0000000000000000D5F08D14E7
:100D9000A1C881CFD9F1AF20000204081002040AD3
:100DA0000505050000000000000000000000000034
:100DB00000000000000000000000000202FE028AA5
:100DC000228AAAAAAA020202020202020202020263
:100DD00002020202FE02327AFAF2FA7A32020202C7
:100DE000020202020202020202020202029A5A22D3
:100DF000D2CA02FE0202020202020202020202023F
:100E000002020202020202020202020202020202C2
:100E100002020202020202020202020202020202B2
:100E20000202FEFE020202021A62824282621A027A
:100E3000020212FA02020202020202FE020202028E
:100E40001A62824282621A020202EAAABA0202020A
:100E5000020202FE020202021A62824282621A0246
:100E600002028AAAFA020202020202FE020202023E
:100E70001A62824282621A0202023A22F2020202DA
:100E8000020202E0F8FCFEFEFFBF9F0F0FFFFEFE16
:100E9000FCF8E0071F3F7F7FFFFFFFE0E0FF7F7F61
:100EA0003F1F07E0F8FCFEFECF4F4F4F0F0FFEFE37
:100EB000FCF8E0071F3F7F7FE0E0E6E6E6E67F7FA5
:100EC0003F1F07E0F8FCFEFECFCF4F4F0F0FFEFE97
:100ED000FCF8E0071F3F7F7FE7E7E6E6E0E07F7F83
:100EE0003F1F07E0F8ECFEFEFFBF9F0F0FFFFEFE67
:100EF000FCF8E0071F3F7F7FFFFFFFE0E0FF7F7F01
:100F00003F1F07E0F8ECFEFECF4F4F4F0F0FFEFEE6
:100F1000FCF8E0071F3F7F7FE0E0E6E6E6E67F7F44
:100F20003F1F07E0F8ECFEFECFCF4F4F0F0FFEFE46
:100F3000FCF8E0071F3F7F7FE7E7E6E6E0E07F7F22
:100F40003F1F07E0F8ACFEFEFFBF9F0F0FFFFEFE46
:100F5000FCF8E0071F3F7F7FFFFFFFE0E0FF7F7FA0
:100F60003F1F07E0F8ACFEFECF4F4F4F0F0FFEFEC6
:100F7000FCF8E0071F3F7F7FE0E0E6E6E6E67F7FE4
:100F80003F1F07E0F8ACFEFECFCF4F4F0F0FFEFE26
:100F9000FCF8E0071F3F7F7FE7E7E6E6E0E07F7FC2
:100FA0003F1F07E0F8ACFEFEFFBF9F0F0FFFFEFEE6
:100FB000FCF8E0071F3E7F7FFFFFFFE0E0FF7F7F41
:100FC0003F1F07E0F8ACFEFECF4F4F4F0F0FFEFE66
:100FD000FCF8E0071F3E7F7FE0E0E6E6E6E67F7F85
:100FE0003F1F07E0F8ACFEFECFCF4F4F0F0FFEFEC6
:100FF000FCF8E0071F3E7F7FE7E7E6E6E0E07F7F63
:101000003F1F070103050FAC042C04AC032C03ACF9
:10101000022C02AC012C01AC000180100C0D202030
:101020000181F88C0C20200082008C062020008397
:10103000008C0620200084008C0620200085008C77
:101040000620200186086C0610100187084C061047
:10105000100188082C0610100189080C06101001D8
:101060008A08EC051010018B08CC051010018C08C3
:10107000AC051010796F75206E65656420612000E5
:1010800020636F6C6C656374656400616D6D6F00E7
:101090006865616C746800776561706F6E340077A5
:1010A0006561706F6E3300776561706F6E320077C7
:1010B0006561706F6E31006B6579000001000200A0
:1010C000040008001000200040008000030006001B
:1010D0000C00180030006000C000800107000E0006
:1010E0001C0038007000E000C00180030F001E00EB
:1010F0003C007800F000E001C00380071F003E00C4
:101100007C00F800F001E003C007800F3F007E0084
:10111000FC00F801F003E007C00F801F7F00FE0015
:10112000FC01F803F007E00FC01F803FFF00FE0145
:10113000FC03F807F00FE01FC03F807FFF0100FEB7
:101140000300FC0700F80F00F01F00E03F00C07F25
:101150000080FF00FF0300FE0700FC0F00F81F00E7
:10116000F03F00E07F00C0FF0080FF01FF0700FEAE
:101170000F00FC1F00F83F00F07F00E0FF00C0FF01
:101180000180FF03FF0F00FE1F00FC3F00F87F00FF
:10119000F0FF00E0FF01C0FF0380FF07FF1F00FE1C
:1011A0003F00FC7F00F8FF00F0FF01E0FF03C0FFFD
:1011B0000780FF0FFF3F00FE7F00FCFF00F8FF01EC
:1011C000F0FF03E0FF07C0FF0F80FF1FFF7F00FE5F
:1011D000FF00FCFF01F8FF03F0FF07E0FF0FC0FF77
:1011E0001F80FF3FFFFF00FEFF01FCFF03F8FF072A
:1011F000F0FF0FE0FF1FC0FF3F80FF7F0000008077
:10120000B66DDB765A6BADAD244992A46AB55AAB84
:10121000AA55AB55DE7BEF7D20042104AA5AD5AA3E
:1012200048241249AA6A55AD5455A5AAEEDDBBF76C
:10123000EEBD7BEF94524AA9AAAA6A550004208009
:1012400000002000FEEFFFFEEEDEBDBBBEDFEFFBC9
:10125000402010045A5B5B6B884844220080008069
:101260000000020010111122AAAAAA6AFEFDFBEFDB
:1012700024495292FEFDF7DF10420811FEFFF7FFEE
:10128000EEEEDDDDDADADAD6AA56B56AAAAA5A5542
:10129000EEBDF7EEFEFFFFFB40100802A49494524F
:1012A000DAD6B6B6FEDFFFFBFEBFFFDF48124922EB
:1012B000B6DBEDB680402020AAD56AD50001010139
:1012C000B66DBB6D88888848BEEFF77D54A95295EE
:1012D00048228924FEFFEFFF6AADB556FEDFFFF717
:1012E00088442211FEFFFF7FA4A4A49400042000E0
:1012F000DEFBDEF788442412EEEEEEDE88884444FE
:10130000EEBD77EF00010202FEFDF7EF545555A543
:101310008844242200100001FEFEFEFDB6DD76DBCF
:1013200048922489FEFFFFEF00010102FEFFFFF754
:10133000DAB66DDB24494992104284100040001057
:10134000DAB66D6DAAAAAAAA80808040DADAD6D66B
:10135000A4945252200882107677B7BB944AA552C3
:101360004892249110214244FEBFFFEF767777B771
:10137000DAB6AD6D5455A9AA482491481042881098
:10138000FEFFFFFDFEFEFDFD76BBDBED54555595E2
:101390009452299588884844208420840000400085
:1013A000FEFBDF7FB6DB6EB7DAD6B6B554AA54AA19
:1013B0004892449200400020FEFDFBF776BBDDED35
:1013C0005A6B6B6D54A952A5482412891011111142
:1013D000208410840008800000000004FEFFFEFF4F
:1013E000DAB66D5B5A6B6BAD545555A954AA54A926
:1013F0004812491200020810FEFBEFBF7EBFDFDF7C
:10140000DEF77DEF76BBDDEEB66DDBB65495AA4A0E
:10141000944AA5542429494988888888401008821C
:101420000080004000000000FEFFFDFFDEFBDEFB51
:1014300076B7BBDBB6DDB6DB6AADD65AAAAA55D500
:10144000242525292004210840100482000840009A
:1014500000000002FEEFFFFD7E7F7FBFDEF77DDF35
:10146000EEDDBB77EEEEEEEE7677BBBBAA5A55AB60
:1014700054A52A55A4A494942429494A48224924CD
:1014800010111121FE7FFFBFFEFBEF7FBEDFEFF7E4
:10149000DEF7BEEFB6DB6EBBB6EDB6DD6AB5566BFA
:1014A000AAD56AB5542A952A944AA9542084108250
:1014B000000204100010000200000100FE7FFF7F08
:1014C000FEF77FFFDE7BEFBDEEDEDDBB7677777765
:1014D00076BBDD6EDAB6B66D6AB556ABAA55AB56BD
:1014E00054A94A95945229A524494A9210112222BE
:1014F000200841104010048180404020808080807E
:101500000002082000200004FEF7BFFFBEEFF7FD39
:10151000EEEEDEDDB6EDB6EDB66DDB6DDADADADA1B
:101520006AADB5D66AADD66AAA56B5AAAA6A55B545
:10153000AAAAAA55545555555495AA5294522AA56B
:1015400024252929884844241022440800041080B6
:10155000002000080000040000000040FEFFFFFF24
:10156000FEFFDFFFFEFBDFFFB6DBED76DAB6B56D23
:10157000DADAD6B66AADB55AAA56AD6AAAAA5555F0
:101580005455AA2A5455AAAA54A5AA5494524A2991
:10159000A494524A244992924892489248249144F1
:1015A00088442291101121221021428410420821E6
:1015B0004020100800020408FEFFFFDFFEFFFFFED0
:1015C0007E7F7F7F7EBFBFDFDEF7BEF7DE7BEF7BF8
:1015D00076B7BBDD5A5B5B5B5A6BADB56AB55AAD8E
:1015E000542A954AA494949224499224102244881F
:1015F000200841082008822000000020000000018F
:1016000000020304000506070108090A000B0C0D7F
:101610000E0F1011031213141516171800191A1BA8
:101620001C1D1E1B1F202122231B240401252627ED
:1016300028292A1A042B2C2D2E04001B001B002FF6
:1016400030313233341901353637323802393A0104
:101650003B3C3D083E003F1B4000410503424331F7
:1016600044454647481B492E4A411634094B4C060F
:101670004D1B4E4F50384151523B325300473F545F
:101680001B55395619363357220F58595A4B005BA0
:10169000125C5D2F5E285F60531161620663292F23
:1016A000646503666730683A6912136A6B2F1B6CB6
:1016B0003B6D3267536E00206F120C700171051B79
:1016C0007255037374752E76773A786F14253F6AD6
:1016D000797A2F0F7B7C551D7D175A07157E1900CF
:1016E0003A787F80810D3F828329022F0A648485A6
:1016F00055864973875A6788533C898A003A8B69B3
:1017000047148C413F8D8E01297A8F05901B5E34E2
:10171000855591036D09401A6092932E4294199554
:10172000003A4A78961E97149806999A9B82480127
:101730005D22028F2F9C241B449D6C850E9E9F036F
:1017400049A03940A15A1F92561553421046199587
:1017500000003A3A36A296A36297A412A5060C217D
:101760003F5763A6A7017929227A37A8A9230A0F30
:101770001B645E9D34AAAB0E553B9F1D0359350972
:101780003E66321A5A60AC07568815534BAD3CAED4
:101790006EAF118A00003A3A3A6120B038B1436224
:1017A0004780143381A5B2250CB3213FB48DB56AAF
:1017B0008E31017979B65416710237B704B823080F
:1017C000900F1B1B64440B84B96CAA85BA0E552874
:1017D0003B9186BB0349492CA009393E1732A174BD
:1017E000BC5A601FAC75BD56BE8815BFC04B42C108
:1017F000107646C2891968778A000000003A3A3AA2
:101800003A2636208B2B38C369A36F624797801422
:1018100014C41281A53DB225410C0C13C53F3F5C99
:101820009B8D70822D6A8EC6C70101797951B66B86
:10183000C81616710237C9CAA8042FB805CB9CCCAC
:10184000900FCD1B1B1B6464CE0B0BCF9DB9346C6A
:10185000AAAA85AB65D00E5555289E91D19F861DAD
:101860001D03034949596D7DA05F09093945D266B9
:10187000403232A1741A5A5AD3D34F1F1FAC750786
:10188000BDBD56BE938815152E2E53534B4B42ADFE
:101890007ED410769446D56E1819AFD6116877D7D6
:1018A000000000000000003A3A3A3A3A3A3AD84A80
:1018B00061D92020788BB02B381296C3B1DAA343BC
:1018C0001C62476247979780801414143333128147
:1018D0008181A58C3D06060625250D410C0C1313B0
:1018E0002121C53F3F5C5CB49B578D6370B5822D51
:1018F000DBA66A8E48C6A7C7310101010179797953
:101900005D5DDC296B54DD2222161616717A020207
:10191000373737DE8FB7A804042FA92FB805DF2388
:10192000239C08CC0AE0240F24CD1B1B1B1B1B1B74
:1019300064646464647B7B0B0BE1E2CF849DE3B958
:1019400072346C6C7CAAAAAA858585ABBA65BAE4A8
:101950000E0E5555E555283B3B3B3B919191D19F50
:10196000864EBB1DBBE60303030349494949595948
:10197000E76D2C7D35A0A05FE80973090939E93EC0
:101980003E3ED21766406632323232A1A1A174EADD
:101990001AEABC5AEB5AD3D3D360604FEC1F1FAC8A
:1019A000ACAC7575759207BDBDBDBD565656BEBE75
:1019B0009388881515ED15152E2EBF2E2E535353D3
:1019C0004B4B4B304B4242ADEEC17E7ED4103C10AF
:1019D00076769494AE4646D5C26E5018181919AF53
:1019E000AF19D6D611681168779577D78A000000AD
:1019F000000000000000000000000000003A3A3A39
:101A00003A3A3A3A3A3A3A3A3A3A3A3A3AEF4C4A5F
:101A10006161F0D936202036202078788B8BA2B0F7
:101A20005B2B2A2A3812129696C3C3B1B16969DAC0
:101A30007FA343431E6F1C1C1C62624747624747DB
:101A4000479797F1979780F2808080141414A4A48C
:101A5000141433C43333121212128181819881819C
:101A6000F3A5A58C8C3DF4F406B2060606062525E2
:101A7000252525410D41410C0C990C0C0C1313B379
:101A800013132121C52121C59A3F3F3F3F3F3F5CB2
:101A90005C5C5C5CB4579B9B5757F5F58D8D63631D
:101AA000707063B58282822D2D2DDB6A6AA6A66ACC
:101AB0006A8E8E8E484848C6C6A7313131C731314B
:101AC000C7010101010101010179797979797979F8
:101AD000794D795D51515D5DDCB6B629296B6B6B33
:101AE0005454DDDDC822222222161616F6161616CA
:101AF0007A7A71717A7AF702020202020237373774
:101B000037373737DEDECACA8F8FB7B7A8A8F804D1
:101B1000040404042F2F2F2FA92F2FB8B805050573
:101B200005DFDFDF2323CB2323239C9C9C080808AD
:101B3000CCCC0A0AE0E0909024240F0F0F240F0F62
:101B4000CD1B521B1B1B1B1B1B1B1B1B1B1B1B1BFC
:101B50001B1B6464646464646464646464646464D7
:101B600064CE7B447B7B0B0B5E5E0B0B0BE1E1E2F7
:101B7000E2CFCF8484849D9D9DE3E3E3E3B9B93450
:101B80003472723434346C6C6C6C6C7C7CAAAAAA8F
:101B9000F9AAAAAAAAAA858585858585585885ABFC
:101BA000ABABBABABA6565BABABAD0D0E40E0E0E0B
:101BB0000E0E0E5555555555555555E5E55555FAE5
:101BC000FA2828283B3B3B3B9E3B3B3B3B3B9191D0
:101BD000919191D1D19191D1D1D19F9F9F9F868693
:101BE00086864E4EBBBB1D1D1D1DBBBB1D1DE6FBD2
:101BF000FB030303030303030303030303494949EB
:101C00004949494949494949495949495959E7E7D8
:101C1000E76D6D6D6D2C2C7D7D7D7D35353535A069
:101C2000A0A0A0A05F5F5F5FE8E8E80909097373FF
:101C30000909090909393939393939E9E93E3E458E
:101C400045453E3E3E3ED2D2D2D217171766666653
:101C50006666404040666687323232323232323215
:101C6000323232A1A1A1A1A1A1A1A1A1A1A174740B
:101C7000EAEAEA1A1A1AEAEAEABCBCBCBC5A5A5A9C
:101C80005AEBEB5A5A5A5A5AD3D3D3D3D3FCFCD378
:101C9000D3D3D360606060604F4F4FECEC1F1F1FC9
:101CA0001F1F1F1F1F1F1FACACACACACACACACAC4F
:101CB00075756767677575757592929292070707D4
:101CC00007BDBDBDBDBDFDFDFDBDBDBDBDFEFE561F
:101CD0005656565656565656BEBEBEBEBEBEBEBE64
:101CE00093938888882727278888881515151515C0
:101CF00015EDEDED1515151515151515152E2E2EC1
:101D00002E2E2E2EBFBFBF2E2E2E2E2E53535353AC
:101D1000C0C0535353535353534B4B4B4B4B4B4BF1
:101D20004B303030304B4B4B4B42424242424242AE
:101D3000ADADADADADADEEEEEEC1C1C1C17E7E7E4D
:101D40007E7ED4D4D4D4D4D410103C3C3C1010109B
:101D5000101076767676767676949494949494AE03
:101D6000AEAEAEAEAE4646464646D5D5D5D5D5C2C4
:101D7000C2C2C2C26E6E6E6E5050505050181818CB
:101D80008989898919191919191919AFAFAFAFAF15
:101D9000AF1919191919D6D6D6D6D611111111683D
:101DA000686868111111116868686895959577776A
:101DB000779595777777FFFFD7D70000008A0000E7
:101DC0000000000000000000000000000000000013
:101DD0000000000000000000000000000000000003
:101DE00000000000000000000000000000000000F3
:101DF000000000000000000000000000BB10B71051
:101E0000AF10A7109F10971090108B1080107410B7
:101E100004060608080B0002020201000904000083
:101E20000102020000052400100105240101010443
:101E3000240206052406000107058103100040095D
:101E4000040100020A00000007050202400000072A
:101E50000583024000000403090412010002EF029E
:101E60000140412336000001010203014172647503
:101E7000696E6F204C4C430041726475626F79004B
:101E800040404040404040403F3F3F3F3F3E3E3E5D
:101E90003E3D3D3D3C3C3B3B3A3A3A393938373799
:101EA00036363534343332323130302F2E2D2C2C1F
:101EB0002B2A29282727262524232221201F1E1DDF
:101EC0001C1B1A1918171615141312110F0E0D0CCE
:101ED0000B0A090807060403020100FFFEFDFCFAD5
:101EE000F9F8F7F6F5F4F3F2F1EFEEEDECEBEAE9E1
:101EF000E8E7E6E5E4E3E2E1E0DFDEDDDCDBDAD9DA
:101F0000D9D8D7D6D5D4D4D3D2D1D0D0CFCECECDA8
:101F1000CCCCCBCACAC9C9C8C7C7C6C6C6C5C5C442
:101F2000C4C3C3C3C2C2C2C2C1C1C1C1C1C0C0C097
:101F3000C0C0C0C0C0C0C0C0C0C0C0C0C1C1C1C19D
:101F4000C1C2C2C2C2C3C3C3C4C4C5C5C6C6C6C754
:101F5000C7C8C9C9CACACBCCCCCDCECECFD0D0D1C0
:101F6000D2D3D4D4D5D6D7D8D9D9DADBDCDDDEDFED
:101F7000E0E1E2E3E4E5E6E7E8E9EAEBECEDEEEFE9
:101F8000F1F2F3F4F5F6F7F8F9FAFCFDFEFF0001C3
:101F9000020304060708090A0B0C0D0E0F11121399
:101FA0001415161718191A1B1C1D1E1F2021222379
:101FB000242526272728292A2B2C2C2D2E2F30307C
:101FC00031323233343435363637373839393A3AB4
:101FD0003A3B3B3C3C3D3D3D3E3E3E3E3F3F3F3F2E
:101FE0003F404040404040400000010002000300EC
:101FF000040006000700080009000A000B000C009E
:102000000E000F0010001100120014001500160041
:10201000170019001A001B001C001E001F002100E1
:10202000220023002500260028002A002B002D0076
:102030002E00300032003400360038003A003C00F8
:102040003E0040004200450047004A004C004F005F
:102050005200550058005B005F00630066006B0093
:102060006F00730078007E00830089009000970065
:102070009E00A700B000BA00C500D100DF00EF004D
:10208000010115012D0149016B019401C7010902EC
:102090006102DC029303C5042907530E0F090F00E8
:1020A000020F0D0D0B090D0F03020F0B090D0F0A87
:1020B0000E010D030F0D0F0B0B0F0E050E0F0B0C6A
:1020C0000609090F09060F0B090F05010F090D0F6E
:1020D000040F000D000509070F020D0F08080F027D
:1020E0000F0F010E07090F0F05070F09070F050A4C
:1020F0000B090D010F010F080F0708070F040F0947
:102100000609030C030D0B09000000010101010188
:1021100001010101000000000000000182000082B6
:1021200012131401000001010F0F0F010000010044
:1021300010100F010000010112100F010000010139
:102140000F0F0F010000000010131001010101002A
:1021500000000001000012000000000100000F005C
:102160000000000100000F0000000001000110014C
:102170000000000100010101000000010000010158
:102180000000000101010101010101010101010142
:10219000010101000000000000000100000000003B
:1021A000000001000000000000000100000000002D
:1021B000000001000000000000000100000000001D
:1021C000000001000000000000000100000000000D
:1021D00000000100000000000000010000000000FD
:1021E00000000100000000000000010000000000ED
:1021F00000000100000000000000010000000000DD
:1022000000000101010101010101010000000000C5
:102210000000000000000000000000000E1A0A008C
:10222000001200001D000000000F00000D00000063
:10223000000F0000000000000011000086800081F7
:10224000000000008B8C0000000000000000000077
:102250000000000000000000000000000E000A0066
:10226000020100001A000000000300000D00000041
:102270000401000000000000000000000000000059
:10228000000000000000000000000001000000004D
:10229000000000010000000000000001000000003C
:1022A000000000010000000000000001000000002C
:1022B000000000010000000000000001000000001C
:1022C000000000010000000000000000000000000D
:1022D00000000100000000000000010000000000FC
:1022E00000000100000000000000010000000000EC
:1022F00000000100000000000000010000000000DC
:1023000000000100000000000000010101010101C6
:1023100001010100000000000000000000000000BA
:1023200001000000010000000000000000000000AB
:102330000000000100010101010101000000000096
:10234000000000000000000000000000000000008D
:10235000000000000000000000000000000000007D
:10236000000000000000000000000000000000006D
:10237000000000000000000000000000000000005D
:102380000000000101010101010101000000000045
:10239000000000000000000000000000000000003D
:1023A000000000000000000000000000000000002D
:1023B000000000000000000000000000000000001D
:1023C00000000000000000000000000008080808ED
:1023D00008080206040505050505070605050505A7
:1023E0000505070605050505050507060505050597
:1023F0000505070605050505050507060505050587
:1024000005050701090909090909030074331124A5
:102410001FBECFEFDAE0DEBFCDBF27E0AEE9B1E00F
:1024200001C01D92AD3CB207E1F711E0A0E0B1E0C0
:10243000E4E6F9E602C005900D92AE39B107D9F78E
:1024400012E1C7E0D2E104C02197FE010E94DD3312
:10245000C630D107C9F70E94D8220C94B0340C942E
:1024600000008F929F92AF92BF92CF92DF92EF9235
:102470000F931F93CF93DF931F92CDB7DEB74C011D
:102480006B015A01602F822F29830E94261D182D6F
:102490001F732981EE2039F090E4911B192F8111CF
:1024A00072C081E003C081116BC08FEF820F602F7B
:1024B0000E94261D882309F45DC08F3039F5909164
:1024C000B705E0916107F0916207992391F02281AD
:1024D00030E02F5F3F4F96E0220F331F9A95E1F7D0
:1024E0009381290F311D205F3F4F2A153B0570F462
:1024F00043C09281238130E040E4949F200D311D40
:10250000112420513109A216B306B0F192E02091B6
:10251000C005022E000C330B215F3F4F412F50E0CE
:102520002417350714F1113168F020EF210F30E046
:10253000EE2031F0280D391DF6013183208305C0CE
:10254000821A930AF601918280828F3071F4E091B1
:102550006107F0916207808185FF07C020916607BF
:102560008091CC05822B80936607892F103180F4EF
:1025700081600EC080E00CC0105C90E080E0C7CFAE
:102580008F3021F492CF8F3009F48BCF90E0BFCF02
:102590000F90DF91CF911F910F91EF90DF90CF902F
:1025A000BF90AF909F908F9008952F923F924F923F
:1025B0005F926F927F928F929F92AF92BF92CF92D3
:1025C000DF92EF92FF920F931F93CF93DF93CDB7DC
:1025D000DEB72D970FB6F894DEBF0FBECDBF4C010E
:1025E0007B013A8729871C870B87F901A080B1807E
:1025F000F801C080D180442309F40EC1443061F455
:10260000865A9F4F74018836F1E09F0798F0940135
:102610002E50314049010FC0433071F4CB016A356F
:10262000710510F488599E4F4701AC014A55510974
:102630007A0101C04C0141E0F401E058F14E2491CF
:10264000A091C005022E000C330B0A2E000CBB0B10
:102650000E94CE334D870E949B1D9E838D83F70180
:10266000E058F14EE4916091C005E602F0011124BA
:10267000BF01FF0F880B990B0E949B1D2D813E818E
:102680004D85413051F42A0D3B1D3E832D838C0D29
:102690009D1D9C838B83740117C0F501E21BF30B16
:1026A000FE83ED839601281B390B3C832B83740139
:1026B00034EBE30EF11C48E6E41641E0F40620F0AA
:1026C000740154EBE51AF108C5010E94941D482ECF
:1026D000C6010E94941D382E11E0C7018A55910948
:1026E000843B910508F410E05524539484EBE816DC
:1026F000F10408F0512C052D232D442DBE016D5FF2
:102700007F4FC6010E94F9208887E12E032D242DDA
:10271000A601BE016B5F7F4FC5010E943112282FB9
:102720008B809C80ED80FE803601552039F090E151
:10273000690E711CE0E18E0E911C06C0F0E16F1A6B
:10274000710830E1831A9108C501112329F04096E0
:1027500040E1E40EF11C04C0409750E1E51AF10895
:102760003885322B3F8330FD4BC020FD21C00E94B5
:10277000941D01E00525232D482FBE016F5F7F4F7B
:10278000C6010E94F920282E3F8131110DC0C701DA
:102790000E94941D052D232D482FBE016F5F7F4F92
:1027A000C6010E94F920282A20FE02C0BE82AD8206
:1027B000388530FD25C0C3010E94941D91E0E12EB3
:1027C000E926082F242DA301BE016F5F7F4FC501AD
:1027D0000E943112F82E3F8131110EC0C4010E94B7
:1027E000941DE12E082F242DA401BE016F5F7F4FA1
:1027F000C5010E943112F82AF0FE02C0DC82CB82B1
:102800008D819E81E985FA85918380838B819C816E
:10281000EB85FC85918380832D960FB6F894DEBFFF
:102820000FBECDBFDF91CF911F910F91FF90EF9021
:10283000DF90CF90BF90AF909F908F907F906F90E0
:102840005F904F903F902F9008958F929F92AF92FC
:10285000BF92CF92DF92EF92FF920F931F93CF938D
:10286000DF93809167078C3F11F491E003C08430BF
:1028700019F49FEF9093680790916807890F8093F0
:1028800067070E94343460E470E00E94BA3380939A
:1028900065078091C105882321F081508093C1058F
:1028A00002C01092CA058091CB05882359F09091FF
:1028B000630790FD07C0181614F4885001C0885FA4
:1028C0008093CB058091D905811103C01092D80562
:1028D00003C081508093D9050E94612287FF08C000
:1028E0008091CA05813011F01092C10581E023C0AA
:1028F0000E94612284FF08C08091CA05823011F0D5
:102900001092C10582E017C00E94612285FF0AC0B3
:102910000E94612283FF02C083E00DC08091CB053D
:102920008C5016C00E94612286FF28C00E9461223E
:1029300083FF0BC084E08093CA058091C1058E306F
:1029400050F48E5F8093C10506C08091CB05845FF3
:102950008093CB0513C08091D805803214F098EF96
:1029600003C0813E1CF498E09093D7059091D70561
:10297000890F8093D80585E08093D9058091CB0598
:1029800081341CF080E48093CB058091CB05803CA2
:102990001CF480EC8093CB05E12C7BE1F72EEEE17B
:1029A000CE2EF2E0DF2EA3E0BA2EB3E6AB2EC8E7C0
:1029B0009C2ED4E68D2E8091E806E81608F070C1B2
:1029C0004E2D50E0F49ED001F59EB00D1124A85478
:1029D000BA4F92962C919297322F327021FD5EC1A0
:1029E00020FF7AC099968D919C919A97C29708F092
:1029F00055C193969C919397963808F437C081E01F
:102A000080936407EBE7E90F8E2F8068E82FEF7063
:102A1000F0E0EE0FFF1FE450F24E459154915093B9
:102A2000D0054093CF05E82FF0E054E0F595E79509
:102A30005A95E1F7EE0FFF1FE450F24E4591549185
:102A40005093D2054093D1059092D305226092967F
:102A50002C939B3859F48091C305845F853618F414
:102A60008093C3051BC18092C30518C19C38B9F47B
:102A70009091C405A9E5B1E0E6ECF5E08D91892BD4
:102A800029F020818BE0830F820F80838081843640
:102A900008F0A08231963550313F81F7FFC096385B
:102AA00031F48091C9058F5F8093C905F7C09838CC
:102AB00021F48091C405826005C0993831F4809179
:102AC000C40584608093C405E9C09A3809F0E6C063
:102AD0008091C4058860F6CF9396EC919397F0E0CF
:102AE000E257F24EE491E093C005D7968C91D797C8
:102AF0008130C1F038F0823009F458C0833009F4D5
:102B0000BEC0CCC09D968C919D97882309F4C6C009
:102B100099968D919C919A978F3F910511F008F0AD
:102B2000BDC007C099962D913C919A9721383105E7
:102B3000C0F0D796DC92D7979B968D919C919C97ED
:102B40009C01245B310937FD05C0D9963C932E9337
:102B5000D897A4C08C549F4FD9969C938E93D897A6
:102B60009DC0DB969C91DB9791111CC0209165075D
:102B7000DC969C91DC97290FDC962C939091C305F1
:102B8000992339F0233328F091509093C305809313
:102B90006407F49EF001F59EF00D1124E854FA4FFD
:102BA000C3AE7CC09150DB969C9378C09D968C916F
:102BB0009D97882359F099968D919C919A9780388A
:102BC000910520F481E0D7968C9368C0F49EF001C3
:102BD000F59EF00D1124E854FA4F81A592A581309D
:102BE000924010F0B7AA5AC0809163078F7371F4B6
:102BF00083A594A59C01245B310937FD03C031AF47
:102C000020AF04C08C549F4F91AF80AFF49EF00171
:102C1000F59EF00D1124E854FA4F80AD91ADBC0142
:102C20006A55710977FF02C068597E4FD092CC0572
:102C3000F49EE001F59ED00D11248E0101521A4F31
:102C40009E0123523A4F41E00E94D51280916607BF
:102C50009091CC05982379F08D7F80936607C854B6
:102C6000DA4F8EA98B3028F48AA182608AA31EAA2B
:102C700002C08A508EAB81E08093CC050FC09D9638
:102C80008C919D97882351F099968D919C919A975C
:102C90008F3F910509F010F4D796DC92E3948BCE28
:102CA00020911E07E091190786E0E89FF0011124AA
:102CB000E650F94FDF011296EF0124967F0183E081
:102CC000E80EF11C90E07FEF63E012E000EF30913E
:102CD0001E07931790F58C91813061F4F701808184
:102CE0003881831305C08F3351F41C9308831EC0B1
:102CF0008F5F1AC0823041F48881811102C06C93C9
:102D000015C08150888312C0833081F4F70180811F
:102D1000811109C01C92492F50E0475E584FFA01BB
:102D20007083215003C08150F70180839F5F169606
:102D30002696F6E0EF0EF11CCACF80E0831798F4D8
:102D4000882359F0E82FF0E0DF01A75EB84F9C918F
:102D5000E85EF84F4081941710F08F5FEFCF4C93EF
:102D600090838150EBCF20931E078091650783707D
:102D700029F5AFEFB6E093E031E020911807821714
:102D8000E8F42C9120FF17C0FD0133972081211119
:102D900012C030833296209165072C7F2083E0910A
:102DA0001E0721E02E0F20931E07F0E0E75EF84F8C
:102DB0008083915019F08F5F1696DFCFDF91CF910E
:102DC0001F910F91FF90EF90DF90CF90BF90AF9049
:102DD0009F908F9008959F92AF92BF92CF92DF9273
:102DE000EF92FF920F931F93CF93DF93182FEB0176
:102DF000FA0180E098E0BA010E94A633A62FE450C1
:102E0000FA4EE49144E0E49FC001112429333105D6
:102E100090F0D7FF08C02C0F3D1F2933310568F013
:102E200028E330E00AC0C833D1050CF528E330E0D0
:102E30002C1B3D0B1EC0D7FF1CC0FC01E450FE4EF6
:102E4000749148E0572F51705A0FC50FD11DD7FF0D
:102E500006C00F5F76954150A9F70196EECFD42EAC
:102E6000209719F40F5FD0E087C0D0E00CC020E0BD
:102E700030E0DC2FFC01E450FE4E7491A8E0DA2E25
:102E8000C72FC170C60F4C2F50E02417350708F428
:102E9000C22F402F469546954695D701A40FB11DE8
:102EA000E02FE770F0E0E85AFE4F5C914081452347
:102EB000AC2EB12C09F45BC0A12FB0E04D2F46958C
:102EC0004695469550E8459FA00DB11D1124A95483
:102ED000BE4FED2FE770CE2EC93068F4A5014150EA
:102EE0005109E3E0440F551FEA95E1F74C0D511DE0
:102EF000440F551F10C0F501399748E1942E9E9E4E
:102F0000A0019F9E500D112440585F4FE3E0CE9EDC
:102F1000400D511D1124FA01E454FF4EE491FC913F
:102F2000FE2BFC931196FC911197EF2B1196EC93CD
:102F30001197FA01E354FF4EC490FD01E058FF4F92
:102F400090809C28908231969080C928C082C93098
:102F500070F0FA01E254FF4E4491FD01F395508167
:102F6000542B5083AF5FBE4FEC91E42BEC932A19A6
:102F70003B0949F0DC0F0F5FDA94DD2011F0769504
:102F80007FCF019677CFDF91CF911F910F91FF9067
:102F9000EF90DF90CF90BF90AF909F900895EF9209
:102FA000FF920F931F93CF93DF93962F969596954D
:102FB0009695E82FF0E080E8989FE00DF11D112430
:102FC000E954FE4F6770A62FB0E0A85ABE4F8C910F
:102FD00090E0921749F1000000000000A12FA69593
:102FE000A695A695A770B0E0A85ABE4FE801C4E028
:102FF000DC9FC12DDD271124CE0DDF1D6C913881A2
:10300000362331F03081382B30833181382B3183B6
:10301000880F19F4E058FF4F81E0040F151F0000DE
:10302000000000009F5FD5CFDF91CF911F910F91DE
:10303000FF90EF90089565E070E080E090E00C94E0
:10304000271CFC018091A001811103C08FEF9FEF2D
:1030500008959FB7F89482E08093E9002091F200F0
:1030600030E01216130614F421E030E0211531058A
:1030700059F0289884E680939F018091F100808325
:103080008091F200882319F09FBFC90108958BE653
:103090008093E800F9CF2FB7F89483E08093E9009C
:1030A0009091E800892F807295FF04C09091F20002
:1030B00080E4891B2FBF08958091A50181110DC067
:1030C00082E08093A10184E08093A2011092A40188
:1030D0001092A30181E08093A50181EA91E0089517
:1030E000CF93DF931F92CDB7DEB76983DC01ED91FB
:1030F000FC910280F381E02D41E050E0BE016F5F62
:103100007F4F09950F90DF91CF91089583E08093D1
:10311000E9008091F200882319F08AE38093E800A7
:103120000895FC018485958597FD0BC09FB7F894A1
:1031300082E08093E9008091F2009FBF90E00196C9
:1031400008959FB7F89482E08093E9008091F2009F
:103150009FBF90E008954091B2015091B30120913A
:10316000B0013091B10142175307B4F49091E800D7
:103170009570E1F39091E80092FD19C08093F10001
:103180008091B2019091B30101968F739927892B99
:1031900019F48EEF8093E8008091B2019091B30111
:1031A00001969093B3018093B20181E0089580E08D
:1031B0000895DF92EF92FF920F931F93CF93DF93C7
:1031C000D82E8A017B01E40EF51EEB01CE15DF053A
:1031D00071F0D7FE03C0FE01849101C088810E9476
:1031E000AB1821968111F2CF8FEF9FEF01C0C8017C
:1031F000DF91CF911F910F91FF90EF90DF90089595
:10320000615030F02091F100FC0120830196F8CF4D
:10321000289884E680939F0108950E944B1890E0BF
:103220000895CF93DF931F92CDB7DEB7FC0184855D
:10323000958597FD05C02FEF3FEF358724870BC09D
:10324000CE0101960E942118019719F4898190E01E
:1032500002C08FEF9FEF0F90DF91CF9108950F93F2
:103260001F93CF93DF931F92CDB7DEB78C01FC0184
:103270008485958597FF0EC0CE0101960E94211886
:10328000019719F4298130E002C02FEF3FEFF801D8
:1032900035872487F801848595850F90DF91CF913C
:1032A0001F910F9108950F931F93CF93DF931F9258
:1032B000CDB7DEB782E0898342E450E064E17EE18D
:1032C00080E80E94D9180E945C18DC0112960D91CA
:1032D0001C9113970115110569F0D801ED91FC912E
:1032E0000280F381E02DBE016F5F7F4FC801099519
:1032F00097FF07C089810F90DF91CF911F910F91A8
:103300000895F80100851185E5CF1F920F920FB641
:103310000F9211248F939F938091E1009091E1008F
:10332000937F9093E10083FF0FC01092E90091E03A
:103330009093EB001092EC0092E39093ED001092CA
:10334000A00198E09093F00082FF20C093E090935A
:10335000E9009091F200992319F09AE39093E80024
:103360009091B401992339F09091B40191509093C8
:10337000B401992389F190919F01992339F090919B
:103380009F01915090939F01992341F184FF10C0B8
:103390008091E2008E7E81608093E2008091E10066
:1033A0008F7E8093E1008091AF018E7E806111C09D
:1033B00080FF16C08091E2008E7E80618093E200E3
:1033C0008091E1008E7E8093E1008091AF018E7E3E
:1033D00081608093AF0104C05D9ACDCF289AD6CF8B
:1033E0009F918F910F900FBE0F901F9018951F9275
:1033F0000F920FB60F921124CF92DF92EF92FF92AD
:103400000F931F932F933F934F935F936F937F93EC
:103410008F939F93AF93BF93EF93FF93CF93DF93DC
:10342000CDB7DEB76C97DEBFCDBF1092E9008091BB
:10343000E80083FFEDC168E0CE0145960E940019C7
:1034400082EF8093E8008D8987FF05C09091E800A6
:1034500090FFFCCF03C09EEF9093E800982F9076EA
:1034600009F0C6C09E892F89188D91110CC0803833
:1034700029F48091AE018093F10002C01092F10016
:103480001092F10048C1422F50E0512B913051F47D
:10349000811141C14130510509F03DC18091AE011A
:1034A0008D7F0BC0933061F4811135C141305105DE
:1034B00009F031C18091AE0182608093AE012BC1D1
:1034C000953041F48091E80080FFFCCF2068209384
:1034D000E30021C1963009F05FC0EB8CFC8C1092A8
:1034E000E9001092B3011092B201123091F51092DE
:1034F000B1011092B0010E94531999E0BE016F5FB3
:103500007F4FDB01E92F1D92EA95E9F799831A8332
:1035100091E09E8390EA98879AEF99872091B20173
:103520003091B301275F3F4F3C832B838D831092F3
:10353000E9001092B3011092B201F092B101E09251
:10354000B00149E050E080E00E94D9180E94531970
:10355000E2C0F092B101E092B0010E945C18DC017F
:103560001296ED90FC901397E114F10409F4C0C099
:10357000D701ED91FC910480F581E02DBE016B5ED9
:103580007F4FC7010995009719F00CF0C4C0C7C060
:10359000F701E084F184E8CF973009F4C0C0983097
:1035A00021F481E08093F100B6C0993009F0B3C0F6
:1035B000837009F0B4C0E1E6F1E081E021E036E398
:1035C0009081992361F08093E9002093EB00919121
:1035D0009093EC003093ED008F5F873089F78EE792
:1035E0008093EA001092EA008F898093A00193C033
:1035F0008B8D9C8D1092E9001092B3011092B20154
:103600009093B1018093B001898D811156C08E894C
:103610009D89913A59F4813209F081C047E050E028
:1036200064E071E080E00E94D91875C0913209F021
:1036300076C0833289F4888D90E0982F88272F896F
:10364000822BA0E0B0E08093000190930101A09351
:103650000201B09303015FC0803269F48091E800F9
:1036600082FFFCCF67E084E091E00E9400198BEFBD
:103670008093E80006C0823209F04DC08F898093A4
:103680000B018091AD01882319F0EEEFFAE002C042
:10369000E0E0F8E08091040190910501A09106011D
:1036A000B0910701803B9440A105B10509F07BC0B2
:1036B00080910B0180FF93C076C00E945C18DC01F2
:1036C00012960D911C9113970115110541F1D80126
:1036D000ED91FC910190F081E02DBE016B5E7F4F7A
:1036E000C8010995811117C0F80100851185ECCF3B
:1036F000113009F44EC0133091F48F89882309F4F6
:1037000045C0823081F440E867E088E79EE10E948E
:103710003733882321F08EEF8093E80079C081E26F
:103720008093EB0075C0813029F440E86BE08CE6B3
:103730009EE1EDCF833099F70E945C18DC01129670
:10374000ED90FC9013978E010F5F1F4F6801E114FD
:10375000F10479F0D701ED91FC910680F781E02D1D
:10376000B801C7010995080F111DF701E084F18424
:10377000EECFD8011C92F60101900020E9F73197B5
:10378000BF016C197D0940E0C601C1CF66E57EE14D
:1037900002C06AE57EE16115710509F2FB01449101
:1037A00050E080E840CF0FB6F894A8958091600073
:1037B000886180936000109260000FBEA895EE3F74
:1037C0002AE0F20739F08091FE0A9091FF0A918376
:1037D0008083A1CF1092FF0A1092FE0A9CCFEE3F89
:1037E0008AE0F80731F0808191819093FF0A8093FD
:1037F000FE0A87E797E7918380839BE088E10FB615
:10380000F894A895809360000FBE9093600083CFDA
:103810006C960FB6F894DEBF0FBECDBFDF91CF918F
:10382000FF91EF91BF91AF919F918F917F916F9198
:103830005F914F913F912F911F910F91FF90EF90CA
:10384000DF90CF900F900FBE0F901F9018958F9222
:103850009F92AF92BF92CF92DF92EF92FF926B0155
:103860007C010E9469224B015C01C114D104E10476
:10387000F104F1F00E946922DC01CB018819990959
:10388000AA09BB09883E9340A105B10570F321E068
:10389000C21AD108E108F10888EE880E83E0981E6C
:1038A000A11CB11CC114D104E104F10419F7DDCF4E
:1038B000FF90EF90DF90CF90BF90AF909F908F9050
:1038C00008958F929F92AF92BF92CF92DF92EF9224
:1038D000FF920F931F93CF93DF935C016B017A01EB
:1038E00080910B01882309F45BC08091A00188239B
:1038F00009F456C08091AF0180FF05C08091E000BF
:1039000082608093E000E70110E00AEF83E0882EF8
:103910009AE3992E2097D9F10E944B1881110AC081
:10392000015009F43DC061E070E080E090E00E9449
:10393000271CF0CF282F30E0C217D3070CF48C2FB0
:103940004FB7F8948092E9009091E80095FF1DC070
:10395000282F30E0C21BD30BF601982F915020F096
:1039600081918093F100FACFC20ED31E112319F07A
:103970009092E80009C08091E80085FD06C0909211
:10398000E80011E0209709F010E04FBFC3CF1111FC
:10399000C3CF5D9884E68093B4011E141F0444F0E5
:1039A00081E090E0F5019383828380E090E001C0A4
:1039B000C701DF91CF911F910F91FF90EF90DF90A2
:1039C000CF90BF90AF909F908F9008958F73E091AC
:1039D0006107F0916207662341F0309711F09381FF
:1039E00001C09FE3981B892F0895309711F09381B0
:1039F000891B0895962F969596959695E82FE695AE
:103A0000E695E695F0E028E0929FE00DF11D112487
:103A1000E553FC4D949167708770E82FF0E088E0E3
:103A2000689FE00DF11D112420E4929FE00DF11D2F
:103A30001124E55FFE4D84912FEF3FEF30935E0739
:103A400020935D079FEF90935C070895CF93DF93DA
:103A5000D82FC62F0E94FA1C10926207109261079D
:103A60001092B7058E3108F057C0E82FF0E0E95901
:103A7000FE4F90819A31E9F48091F90644EF56E0C7
:103A8000DA0166E02A2F241B281708F049C02D917F
:103A9000629F9001112428543A4FF901EE5BFE4FCA
:103AA00070817D13EFCF319620812C13EBCF90E006
:103AB00037C09F30A9F580915B0728EB35E090E097
:103AC0006C2F70E0F901E959FE4F981729F1D901DF
:103AD000A859BE4F4C91D41312C011964C91C417E3
:103AE00091F011965C91552351F050E04F5F5F4F7C
:103AF0006417750721F481E08093B70504C09F5FC8
:103B00002A5F3F4FDFCF8381882341F0F093620724
:103B1000E09361078FE005C080E003C081E001C051
:103B2000892FDF91CF9108959C01221F331F221FFF
:103B3000331F832F0895AB01BC01441F551F661F1F
:103B4000441F551F661F852F962F08950F931F93AF
:103B5000CF93DF9390E4899F80011124E0E46E9F6E
:103B6000B0011124FA0133818091BC059091BD050B
:103B7000213039F4C32FD0E0C81BD90BC60FD71F93
:103B800006C00196831B9109EC01C61BD70B8091DF
:103B90005F07909160078A35910589F0EAE5F0E0CA
:103BA000E81BF90BEE0FFF1FE851F04EA591B49101
:103BB0009E010E94D6330E949B1D9C010EC020973F
:103BC00051F42091BA053091BB052017310719F047
:103BD000201B310B02C020E030E06091B5017091F4
:103BE000B601AB014A5551098091BA059091BB05C8
:103BF000443B510540F0820F931FF801FF96E817F0
:103C0000F90748F43DC082179307D0F1821B930B4C
:103C100080179107A8F19091BA056A35710549F0AE
:103C2000443B510518F0901B920F04C0921B901B4F
:103C300001C09F7390935C072097E1F080915F072C
:103C400090916007EAEDFEE1E81BF90BE491CE01EB
:103C5000A0E0B0E0BC01CD0126E0660F771F881F11
:103C6000991F2A95D1F72E2FEE0F330B440B550BCE
:103C70000E947F3430935E0720935D0781E001C08E
:103C800080E0DF91CF911F910F9108952F923F9285
:103C90004F925F926F927F928F929F92AF92BF925C
:103CA000CF92DF92EF92FF920F931F93CF93DF9308
:103CB000CDB7DEB728970FB6F894DEBF0FBECDBFE5
:103CC0005A01822E912C9C01280D391D37FDC4C04C
:103CD000803891050CF0C0C09B01200F311D37FDCD
:103CE000BBC0603471050CF0B7C0AB0177FF04C0F6
:103CF00044275527461B570B477055279B0177FFD5
:103D000002C0295F3F4FE3E035952795EA95E1F73B
:103D100077FF08C02150310968E070E0DB01A41B87
:103D2000B50BAD01602F66956695669570E00770DE
:103D300011F06F5F7F4FDB01A20FB31FBA83A9831E
:103D400039017694762C662477946794680E791EF0
:103D5000E12CF12C00E010E02301B0E84B0E511CE7
:103D600068E070E0DB01A41BB50BBC83AB83698109
:103D70007A812617370709F46FC02830310509F416
:103D80006BC02F3FBFEF3B070CF45BC0B201600F6D
:103D9000711FDB01A954BE4FBE83AD83D801A60DB0
:103DA000B71DA954BE4F6C0160E070E0681579053D
:103DB0000CF047C0E0E8CE16D10409F442C0D7FCAD
:103DC00034C02F3FFFEF3F0709F442C0FB01EE0D67
:103DD000FF1DEA0DFB1DE491042E01C0EE0F0A94B5
:103DE000EAF73C90E329EC9341155105F1F02730B7
:103DF0003105D9F0FB01EE0DFF1DEA0DFB1DE4912D
:103E00002E2E312CF1010B8002C0F595E7950A9416
:103E1000E2F7F887EF83ED81FE813080EF81F8854E
:103E2000E3291F01ED81FE8120826F5F7F4FED81CD
:103E3000FE813196FE83ED83FFEFCF1ADF0A1196E4
:103E4000B5CF2F5F3F4F00581F4FE80CF91C8FCFA5
:103E50004115510579F6E9CF28960FB6F894DEBFE3
:103E60000FBECDBFDF91CF911F910F91FF90EF90CB
:103E7000DF90CF90BF90AF909F908F907F906F908A
:103E80005F904F903F902F900895EF92FF920F9385
:103E9000CF93C82F7B01F70144914423E1F04032D6
:103EA00031F0413614F4405303C0475501C044E299
:103EB00083E04802A001112444565F4D08E023E04E
:103EC00061E070E08C2F90E00E94461ECC5FEFEF27
:103ED000EE1AFE0AE0CF8C2FCF910F91FF90EF905A
:103EE0000895CF92DF92EF92FF920F931F93CF939B
:103EF000DF93C82F8CE0D82EDC0E14E6E62EF12CD2
:103F00009AE0C92E842F612F0E949A33D92F93E013
:103F1000899FA001112444565F4D08E023E0B701BA
:103F20008C2F90E00E94461E4D2F812F6C2D0E94F9
:103F30009A33182FCC5FCD11E5CFDF91CF911F9130
:103F40000F91FF90EF90DF90CF900895CF93DF9384
:103F500067E070E0C9E549E55AE556956150710999
:103F600029F14A3510F5E42FF0E0EE0FFF1FE8517C
:103F7000F04E259134912817390750F4252F30E061
:103F80002F5F3F4F35952795240FC42F422FE5CF44
:103F90008217930758F4252F30E02F5F3F4F359558
:103FA0002795E42FE21B2E2FF0CF49E550E09A0130
:103FB000220F331F2851304EF90165917491F90198
:103FC0006817790729F0A591B491A81BB90B05C012
:103FD00025913491DC01A21BB30B6C2F70E09B0187
:103FE000220F331F2851304EF901C591D491F901A8
:103FF000C817D90739F025913491F901E81BF90B5D
:10400000CF0104C025913491821B930B8A179B0723
:1040100008F4AB01CA01DF91CF910895BF92CF920E
:10402000DF92EF92FF920F931F93CF93DF93182F9E
:10403000062FF42EE9010E94FA1C181614F080E0F5
:10404000CEC08E3108F0CBC0E82FF0E0E959FE4F2A
:10405000E081EA31E9F48091F90644EF56E0EA01A3
:1040600066E09C2F941B981708F08FC02991629FDF
:104070009001112428543A4FD901AE5BBE4F9C9158
:104080009113EFCF11969C919013EBCFE0E07DC0A0
:10409000EF3009F07AC0B12C86E0E82E80915B0702
:1040A000B81668F6AB2DB0E0EA9E9001EB9E300D9D
:1040B000112428543A4FF901E759FE4F8081319776
:1040C0009081191360C0682F70E08017B1F03496AA
:1040D0008081801708F457C031978081081708F451
:1040E00052C09B0146E0220F331F4A95E1F7215C45
:1040F0003F4F81E02C173D0708F080E0680F711DED
:104100002091B5013091B601243B310514F023E034
:1041100001C021E0EA9EA001EB9E500D1124FA019E
:10412000E15EF84F6F01FA01EE5DF84F9081FB01FF
:1041300036E0EE0FFF1F3A95E1F7E90FF11D213050
:1041400091F481110AC0EC17FD0708F1A601812F37
:104150000E94A61D8823B9F01AC0EC17FD0708F4C9
:104160006ECF91E015C0882351F0CE17DF07C8F35A
:10417000A601812F0E94A61D882329F0F2CFCE1719
:10418000DF0728F45CCFB39489CF8E2F28C090E04E
:1041900080915C078F3FB1F4F601838181110CC0DF
:1041A0009E012F5F3F4F2F733327232B29F48F2D31
:1041B0008F7380935C0706C0CF73C81B9111C05CDE
:1041C000C0935C0780915C0780341CF08FE3809380
:1041D0005C0780915C0787FD10925C078FE0DF91A0
:1041E000CF911F910F91FF90EF90DF90CF90BF90F4
:1041F0000895BF92CF92DF92EF92FF920F931F9399
:10420000CF93DF9300D0CDB7DEB77C016B01622F77
:10421000842F2A8349830E94261DB82E602FC70150
:104220000E94E61C182F2A814981B11025C0002365
:1042300011F061E001C06FEF620F842F0E94261D14
:10424000B82E8FE0B81215C0212F30E0002331F0D6
:10425000602FC7010196820F931F05C060E0C70160
:104260000197821B930B0E94E61C180F803120F4EB
:1042700005C0B11003C0105C90E001C092E0209135
:10428000C005022E000C330B215F3F4F412F50E041
:104290002417350704F1113150F020EF210F30E0E1
:1042A000002319F0E20EF31E02C0E21AF30AF6012F
:1042B000F182E082FFE0BF120EC0E0916107F09151
:1042C0006207808185FF07C0209166078091CC0539
:1042D000822B80936607892F103108F481600F903C
:1042E0000F90DF91CF911F910F91FF90EF90DF9092
:1042F000CF90BF9008955F926F927F928F929F921E
:10430000AF92BF92CF92DF92EF92FF920F931F93E3
:10431000CF93DF9300D0CDB7DEB7D9011296EC91E1
:10432000129713962C91139730E0F0E4EF9F200D35
:10433000311D11246901EFE3CE0ED11C11961C91A1
:104340001197FB01E080F1805701F0E1AF0EB11C45
:104350002A153B0518F4AC14BD0460F05701E0E1E8
:10436000AE1AB1082A153B0508F067C0AC14BD04AD
:1043700008F063C0F0E41F9F90011124F9017097C9
:10438000E817F90708F059C0205B3F4F82179307E1
:1043900008F053C0E02FF0E0F595E795EF70F0E0FE
:1043A00000FF03C0EE0EFF1E02C0EE1AFF0A6D01F1
:1043B0005A014B018C01C7010E94941D682EC8014F
:1043C0000E94941D782E662D0E94261D882339F1A7
:1043D0008F3019F5FA82E9825524539484EBA8169C
:1043E000B10408F0512C1092C005052D262D472D43
:1043F000BE016F5F7F4FC7010E94F920182FFA821C
:10440000E98281E00827262D472DBE016F5F7F4F8F
:10441000C7010E94F920812B80FD1092C305F6018F
:10442000808185FF07C0909166078091CC05892B1C
:1044300080936607F401F182E0820F900F90DF9184
:10444000CF911F910F91FF90EF90DF90CF90BF9091
:10445000AF909F908F907F906F905F900895CF92D4
:10446000DF92EF92FF920F931F93CF93DF936C0134
:104470007A018B01C0E0D0E0CE15DF0589F0D801CC
:104480006D918D01D601ED91FC910190F081E02DAF
:10449000C6010995892B11F47E0102C02196ECCF4B
:1044A000C701DF91CF911F910F91FF90EF90DF90A7
:1044B000CF9008950895089580E090E008950E94B7
:1044C000E3338FB18095807F669B88601C9B8460FE
:1044D00008953FB7F8948091C9079091CA07A091B9
:1044E000CB07B091CC0726B5A89B05C02F3F19F08C
:1044F0000196A11DB11D3FBFBA2FA92F982F882764
:10450000820F911DA11DB11DBC01CD0142E0660FBE
:10451000771F881F991F4A95D1F708951F920F9210
:104520000FB60F9211242F933F938F939F93AF93C6
:10453000BF938091C4079091C507A091C607B09121
:10454000C7073091C80723E0230F2D3720F40196C9
:10455000A11DB11D05C026E8230F0296A11DB11DA6
:104560002093C8078093C4079093C507A093C607FC
:10457000B093C7078091C9079091CA07A091CB0754
:10458000B091CC070196A11DB11D8093C9079093EE
:10459000CA07A093CB07B093CC07BF91AF919F916F
:1045A0008F913F912F910F900FBE0F901F901895F4
:1045B000CF93DF93CDB7DEB7ED970FB6F894DEBF9C
:1045C0000FBECDBF789484B5826084BD84B5816010
:1045D00084BD85B5826085BD85B5816085BD8091CE
:1045E0006E00816080936E00109281008091810046
:1045F000826080938100809181008160809381003E
:104600008091800081608093800080919100826021
:1046100080939100809191008160809391008091BE
:1046200090008160809390008091C10084608093AD
:10463000C1008091C10082608093C1008091C1005F
:1046400081608093C1008091C30081608093C3002A
:104650008091C00082608093C0008091C200816020
:104660008093C20080917A00846080937A00809168
:104670007A00826080937A0080917A0081608093D2
:104680007A0080917A00806880937A001092A0016D
:104690001092AE011092AF018091D700816080939B
:1046A000D70080EA8093D80089B5806189BD89B53B
:1046B000826089BD09B400FEFDCF61E070E080E05A
:1046C00090E00E94271C8091D8008F7C80618093AD
:1046D000D8008091E000807F8093E0008091E1002D
:1046E0008E7E8093E1008DE08093E200559A209ABF
:1046F000EEEFFFE7859194918B3F9C4D19F481E09B
:104700008093AD0181E28093700781EC80937C00FF
:1047100085B1806F85B984B1877E84B984B1876E95
:1047200084B95E9A5F988AB1806D8AB9769A6E98DC
:1047300081B3806F81BB899880B38D7080BB80E529
:104740008CBD81E08DBD0E941B185F9A0E941B18D2
:104750005E985C98ECE8FDE08DE08E0F94919EBD34
:1047600000000DB407FEFDCF31968E13F7CF5C9A93
:1047700081E880936400809165008160809365008A
:104780000E94612287FF0AC080916400806280934A
:10479000640081E083BF889513BEFCCF86ED93E073
:1047A0009093BB058093BA0580E992E09093BD0594
:1047B0008093BC0588E08093C00584E68093C305A0
:1047C00081E08093C40593E69093C5058093CC0562
:1047D00088EF8093D7058FEF8093680750E2A52E6E
:1047E000B12C32E0512C66E0462E77E0372EEBE11B
:1047F0002E2E88248A94982C40E2C42ED12C00E0DE
:10480000602F852D3DAF0E94FA1C182F3DAD87FF0C
:1048100038C08091E8068A3008F0E3C091E0980F34
:104820009093E8061058612E712C369CB001379C8D
:10483000700D1124675E7F4E289E7001112443E0A5
:1048400050E0C70186529A4F0E944434D701A854C1
:10485000BA4F9696BC92AE9295979896DC92CE926D
:1048600097979A969C928E92999793968C919397FC
:104870003DAD863830F4F301E356F24FE491D6961D
:10488000EC931E3108F0ADC086EE810F843090F5B8
:1048900080911807853070F591E0980F9093180774
:1048A00090E0489EA001499E500D112448545A4F53
:1048B000FA01EE5BFE4F5082319600831B3111F0FE
:1048C0001D3151F4489EF001499EF00D1124E15034
:1048D000F94F40814160408344EE410F423050F433
:1048E000489EF001499EF00D1124E150F94F80815E
:1048F0008260808381EF810F873008F06FC0323093
:1049000009F045C040915B074A3008F06AC081E079
:10491000840F80935B0750E0449EC001459E900D3C
:104920001124BC01615E784F709362076093610748
:104930001F3059F088549A4FFC01E959FE4F21E08D
:10494000208331965082319600838EEE810F843021
:1049500078F4E12FF0E0E957F24FE491449ED00162
:10496000459EB00D1124A15EB84F1C91E12BEC9334
:10497000449EC001459E900D112488549A4FFC011D
:10498000E559FE4F00833196008331E02AC0313073
:1049900039F51F3009F032E0A0916107B09162074C
:1049A0008EEE810F843078F411965C9211971296F6
:1049B0000C931297E12FF0E0E957F24FE4911C912C
:1049C000E12BEC9305C0113119F48C9180628C932A
:1049D000E0916107F0916207058303C032E001C0F6
:1049E00030E00F5F40E4C40ED11C003409F008CF62
:1049F000539450E4A50EB11C60E45612FDCE109203
:104A00006207109261070E9425148FB7F8944091B5
:104A1000C4075091C5076091C6077091C7078FBF43
:104A200080917107942F981B892F90917207992379
:104A300031F080937307109272070C941E3190919D
:104A40007007891758F48F5F891710F00C941E3186
:104A500081E083BF889513BE0C941E3111E0109342
:104A600072074093710780916C0790916D070196D2
:104A700090936D0780936C0780916E0780936F070A
:104A80000E94612280936E070E9425148FB7F894CC
:104A90002090C4073090C5074090C6075090C707C4
:104AA0002FAA38AE49AE5AAE8FBF809163078F7080
:104AB00069F48091660780FF07C0109364078091B6
:104AC000C3058A508093C3051092660780916407DE
:104AD000882381F081E0E7EBF1E081118FEF002482
:104AE00081938193819381930394D1F7109264070A
:104AF0000C940F318091CB0587FD815F282F259580
:104B00002595259525958091BE059091BF05820F2D
:104B1000911D27FD9A9597FF03C088599E4F06C0A7
:104B2000883601E0900714F0885691409093BF05B5
:104B30008093BE05E090BE05F090BF051AE5E11632
:104B4000F10420F428E9E21A2EEFF20A3AE5E31A1A
:104B5000F1088091CD058823A1F09091CE0599238D
:104B600019F094509093CE059091CE0591311CF0A0
:104B700040E24E8F02C050E15E8F81508093CD05A0
:104B800019C00E94612282FF10C0E091C205EE238D
:104B900011F40C942831F0E0E854FA4F858588230D
:104BA00041F0815085870C9428318091D8058093FD
:104BB000CE051E8E198E0E94612283FF89C0E0916E
:104BC000BE05F091BF05E058F14EE491C090BA05E2
:104BD000D090BB05CE0ED11CE7FDDA94F701E0586A
:104BE000F14EE4910091BC051091BD050E0F111D11
:104BF000E7FD1A95C6010E94941DB82EC8010E94B7
:104C0000941DA82E9801A601682F8B2D0E940E20BE
:104C10008A3109F04AC09091180780E0EAEFF6E087
:104C2000891709F455C020812B113CC021812A111C
:104C300039C09581292F227091FF18C09091C90524
:104C4000911114C0EEE0FEE1859194919093D0050E
:104C50008093CF05EEEFFDE1859194919093D2057D
:104C60008093D10588E78093D30532C0928191115A
:104C70002FC0222341F09091C90591509093C9050E
:104C800095819D7F958391E092839FE39483E0914A
:104C90001E0791E09E0F90931E07F0E0E75EF84F2D
:104CA000808316C036968F5FBBCF8091CA05833054
:104CB00078F48091D50581110BC08091C20590E0F8
:104CC0000196837099278093C2058FE08093D50564
:104CD00088E08093C0050CEB15E02AEB35E04091AD
:104CE000CA05B7018091BE059091BF050E94D512FB
:104CF000D12C86E0982E90E4892E2BE1722E32E0A2
:104D0000632E5524539480915B074091BE055091CA
:104D1000BF05D81608F0AEC06D2D70E0969EC0019C
:104D2000979E900D1124DC01A15EB84F5D0188545F
:104D30009A4FFC01E959FE4F1081212F30E0359543
:104D400027952F703396308110FF24C0230F203415
:104D500011F0208307C01082FC01E759FE4F9081BB
:104D60009F5F9083969EF001979EF00D1124E8546A
:104D7000FA4FCF0187599E4F9F0124593E4FDC01C6
:104D80009C91D9018C9198132EC0E959FE4F812F27
:104D90008E7F28C0311107C08082FC01E759FE4F89
:104DA000908191509083969EF001979EF00D112472
:104DB000E854FA4FDF01A659BE4F8C91821B8C93A9
:104DC0009F0127593E4FBF0165597E4FD9012C9154
:104DD000DB019C91291307C0811105C0E959FE4FE1
:104DE000812F81608083012F95016CEB75E08091AC
:104DF000BA059091BB050E947B21C12C8091E806E9
:104E0000C816B0F57C9CB0011124FB01E854FA4FA0
:104E10007F0182A180FD2AC06092CC0540AD51ADDA
:104E200061527A4F012F950185A196A10E947B21A5
:104E3000809166079091CC059823B1F08D7F809387
:104E40006607D701D6968C91D6978B3050F4929600
:104E50008C919297826092968C939297D6961C92A0
:104E600003C08A50F70186AB5092CC05C394C6CFDD
:104E7000D39449CF8A01005211091D8F0C8F17FF5F
:104E800005C09A01285B3E4F3D8F2C8F1A0130E2FE
:104E9000230E311C68E6261661E036062CF01A0156
:104EA00078E4271A71E0370A2091D6058091D80559
:104EB000082E000C990B820F911D27FD9A952C014D
:104EC000F4E055944794FA95E1F75BA64AA6109250
:104ED000F306C12CABE1DA2EB8E34B2E512C8091B6
:104EE000E806C81608F068C2AC2CB12CDA9CD001D8
:104EF000DB9CB00D1124A854BA4F92968C919297D6
:104F000081FD58C293968C91939790E080589109B7
:104F1000E7E06E2E689E9001699E300D1124F90124
:104F2000E25EFF4E6490F901E15EFF4E7490E09006
:104F3000BA05F090BB0595968D919C919697E816D1
:104F4000F90630F48C010E191F09780181E003C0C5
:104F5000E81AF90A82E08090BC059090BD05DA9CC1
:104F6000F001DB9CF00D1124E854FA4F27A130A585
:104F70008216930630F4A901481959094A018C5F39
:104F800003C0821A930A885F8D83E814F904D0F471
:104F9000C40176E0880F991F7A95E1F752E0E51693
:104FA000F10420F0B7010E94A633CB010E94A61F96
:104FB0000AE510E0081B190BF801E058F14EE491E6
:104FC000C40119C0C70166E0880F991F6A95E1F70F
:104FD00062E08616910420F0B4010E94A633CB0152
:104FE0000E94A61F8C01EAE5F0E0E81BF90BE058EF
:104FF000F14EE491C701A0E0B0E0BC01CD0156E064
:10500000660F771F881F991F5A95D1F72E2FEE0F25
:10501000330B440B550B0E947F347D81753031F486
:105020008AE590E0801B910B8C0111C09D81963028
:1050300019F4065A1F4F0BC0AD81A93019F4025F55
:105040001E4F05C0EEE0F1E0E01BF10B8F01F6E62C
:105050007F9E40011124C40195958795959587956C
:105060008217930708F4A6C12115310509F4A2C1DE
:10507000669440E4649EC0011124B9010E94A633E5
:10508000662EA8E0B0E083EBE82EF12C74EB43EB46
:1050900050E0FA01E058F14EE491E61544F4872F10
:1050A00090E0019695958795840F951F0BC06E161D
:1050B000B4F4872F90E0019695958795FA01E81B47
:1050C000F90BCF01119769F076957A018836F1E0F6
:1050D0009F0710F4AC01DDCF87E691E002C0CA0162
:1050E000A701FC01E058F14E7491A62F660FBB0B8F
:1050F000672F770F770B6A1B7B0B161617063CF48E
:10510000E4900E2C000CFF08EA1AFB0A06C0E4919A
:105110007D01EE1AF108E7FDF394FA01E058F14E33
:105120006491062E000C770B6A1B7B0B1616170674
:105130004CF4E4910E2E000CFF0BBF016A1B7B0B9D
:10514000DB0105C0E491AE1BB109E7FDB395AE15D7
:10515000BF050CF4CA016AE570E00E94BA336C8D99
:105160007D8D681B790B77FF02C068597E4FA101C6
:10517000480F591F4836A1E05A0714F048565140CD
:10518000061717075CF0605C7F4FFC01EE0FFF1FF6
:105190006E0F7F1FA1E0601771070CF4A0E04017AD
:1051A00051074CF040545109880F991F481B590B67
:1051B000041715071CF4AA2309F463C0DA9CF00154
:1051C000DB9CF00D1124E854FA4F82A180FD58C0F9
:1051D00000ACF1ADE02DE43BF105A0F0A8014E1BC1
:1051E0005F0BCA018C549F4FBF01645B710960174C
:1051F000710710F50E171F07F8F484EB90E0841B7D
:10520000950B1AC0E017F10748F4CF018C549F4F5B
:105210000817190718F4801B910B0EC0C8018C5495
:105220009F4F68E671E00E94A6338E1B9F0BE8E655
:10523000F1E0E81BF90BCF01AC014D5251094E30A2
:10524000514048F0DA9CF001DB9CF00D1124E85449
:10525000FA4F12AE15C0DA9CF001DB9CF00D112460
:10526000E854FA4F8738910520F46624639462AEBF
:1052700007C0813E910510F482E001C083E082AF57
:10528000A1E0DA9CF001DB9CF00D1124E854FA4F08
:1052900015A632A721A714A703A7AA2309F48AC039
:1052A00004A1002E000C110BE72CF12CC401B90154
:1052B0000E94A6334B0175AB64AB83A1863830F0F6
:1052C00080916707080F111D87FD1A9546E6409FDC
:1052D0003001419F700C1124C701982F8827990F26
:1052E000990F990F81509440B401615071090E9447
:1052F000A6338B01DA9CF001DB9CF00D1124E854FD
:10530000FA4F73AB62AB11AA10AAF201E819F909BE
:10531000F7FD3196F595E795C301B9010E94BA33BF
:10532000E60FF71F6AA47BA4E60DF71DDA9CD001F7
:10533000DB9CB00D1124A854BA4F9F96FC93EE93BA
:105340009E97F7FF19C0222733272E1B3F0B209F64
:10535000C001219F900D309F900D1124D1969C93F8
:105360008E93D097E80DF91DD596FC93EE93D497C4
:105370009F961C921E929E97DA9CF001DB9CF00D8A
:105380001124E854FA4F26A537A584A995A9820FC0
:10539000931FC9972CF0C201821B930B95AB84AB72
:1053A000E091F30681E08E0F8093F306F0E0E75181
:1053B000F94FC082C39493CD3091F30680E08317F8
:1053C00098F4882359F0E82FF0E0DF01A751B94F96
:1053D0009C91E851F94F2081921710F08F5FEFCF29
:1053E0002C9390838150EBCF2C8C3D8C3092B60166
:1053F0002092B50110929E011F8A1E8A80919E0103
:10540000803408F094C68091B5019091B6019093D4
:10541000600780935F078090BA059090BB0500916C
:10542000BC051091BD056801C4010E94941D88A7A8
:105430008091BC059091BD050E94941D8BA3809125
:10544000B5019091B6018A3591050CF065C0409187
:105450005F07509160074115510559F18091BC05D6
:105460009091BD058F73992720E430E0281B390BFC
:10547000EAE5F0E0E41BF50BEE0FFF1FE851F04EFC
:10548000A591B4910E94D6330E949B1D880E991E4F
:1054900080915F0790916007EAE5F0E0E81BF90B67
:1054A000EE0FFF1FE851F04E459054905A86498602
:1054B00002C01A861986E0915F07F0916007309765
:1054C00009F480C18091BA059091BB058F7399272B
:1054D00020E430E0281B390BEE0FFF1FE851F04E9F
:1054E000A591B4910E94D6330E949B1D6C01C00E01
:1054F000D11EE0915F07F0916007EE0FFF1FE851AA
:10550000F04E659074907C866B861D8201E0088762
:10551000188E11E01E8775C1843B91050CF070C098
:1055200024EB30E0A901481B590B509360074093CE
:105530005F074A35510581F12091BC053091BD05C9
:105540002F73332760E470E0621B730B9B01EAE565
:10555000F0E0E41BF50BEE0FFF1FE851F04EA591B4
:10556000B4910E94D6330E949B1D881A990A80919B
:105570005F0790916007EAE5F0E0E81BF90BEE0F9A
:10558000FF1FE851F04E8591949122243324281A6C
:10559000390A3A86298602C01A861986E0915F0781
:1055A000F0916007EA35F10509F415C12091BA05BB
:1055B0003091BB052F7333272F5F3F4FEE0FFF1F37
:1055C000E851F04EA591B4910E94D6330E949B1DE4
:1055D0006C01C00ED11EE0915F07F0916007EE0FE5
:1055E000FF1FE851F04E459054905C864B8601E0D9
:1055F0000D8311E0188702E0088F1FEF1E87F5C0AA
:105600008E3021E092070CF070C080915F0790917E
:1056100060079C01245B31093093600720935F078A
:10562000232B69F12091BC053091BD052F733327E1
:105630002F5F3F4FEEE0F1E0E81BF90BEE0FFF1F8D
:10564000E851F04EA591B4910E94D6330E949B1D63
:10565000881A990A80915F0790916007EAE5F0E067
:10566000E81BF90BEE0FFF1FE851F04E8591949166
:1056700022243324281A390A3A86298602C01A8637
:105680001986E0915F07F0916007309709F4AFC089
:105690002091BA053091BB052F7333272F5F3F4F01
:1056A000EE0FFF1FE851F04EA591B4910E94D63342
:1056B0000E949B1D6801C81AD90AE0915F07F0910A
:1056C0006007EE0FFF1FE851F04E8591949144243E
:1056D0005524481A590A5C864B8601E00D831886CA
:1056E00014E0188F0FEF0E8796C028E631E0A9016D
:1056F000481B590B5093600740935F074A3551058B
:1057000049F12091BC053091BD052F7333272F5FE0
:105710003F4FEAE5F0E0E41BF50BEE0FFF1FE85109
:10572000F04EA591B4910E94D6330E949B1D880E25
:10573000991E80915F0790916007EAE5F0E0E81B11
:10574000F90BEE0FFF1FE851F04E259034903A868A
:10575000298602C01A861986E0915F07F0916007DA
:10576000EA35F10509F44FC08091BA059091BB0567
:105770008F73992720E430E0281B390BEE0FFF1FB1
:10578000E851F04EA591B4910E94D6330E949B1D22
:105790006801C81AD90AE0915F07F0916007EE0F1F
:1057A000FF1FE851F04E8591949144245524481AE6
:1057B000590A5C864B861D82188606E0088F11E028
:1057C0001E871EC01D8211E01887188E01E00E870B
:1057D0001C861B8621C001E00D8311E0188702E0C2
:1057E000088F1FEF1E871C861B8601E00AC011E090
:1057F0001D83188604E0088F1FEF1E871C861B86FA
:105800000FEF0D870AC01D82188616E0188F01E081
:105810000E871C861B861FEF1D872D843BA0230C43
:105820002F864E8458A4450C4F8280915F0790913B
:105830006007EAE5F0E0E81BF90BE058F14E6490F0
:105840006DA6FC01E058F14E74907EA689859A857C
:1058500097FD01967C01F594E794F8AAEFA61D85C3
:1058600020E21202800111241AAB09AB8B859C85C2
:1058700097FD01961C01359427943CAA2BAA0E850E
:1058800010E20102200111245EAA4DAA19A61A8E67
:105890001CA62DA4022C000C33083DA22CA24EA461
:1058A000042C000C55085FA24EA27BA0672C712C23
:1058B0007CAE6BAEC4010E94941D8B8F8091B501AC
:1058C0009091B601009709F449C0843B910509F411
:1058D00045C0E9A4E11007C56BA188A50E94FA1C88
:1058E0008E3108F000C5E82FF0E0E959FE4F8081C5
:1058F0008F3009F0F8C470915B074091B501509169
:10590000B60188EB95E060E0671709F4ECC4FC0190
:10591000E959FE4FDC01A659BE4F2C912223D9F044
:1059200012972C91F8A4F21216C011962C910BA18B
:10593000021769F030E02F5F3F4F2BAC3CAC2216D2
:10594000330649F4443B510534F061E08DC4443BD7
:1059500051050CF488C46F5F0696D6CFEE24EA9406
:10596000FE2C0FEF1FEF1D8B0C8B1E82C6010E94B9
:10597000941D888B8091B5019091B6018A3591056F
:1059800009F465C68E30914009F461C60E85013078
:10599000B1F496014E895F8968898F810E940E203B
:1059A000782E811122C01F811F5F1F832B843C84AE
:1059B000C20CD31CC6010E94941D888BEACF9601AD
:1059C0004E895F8968898F810E940E20782E81110F
:1059D0000CC00F8101500F832B843C84C20CD31C5C
:1059E000C6010E94941D888BEACF4F8000E4409E40
:1059F000200111245F8A4E8A0E850F3F29F49201FF
:105A0000215C3F4F3F8B2E8B0091BA051091BB0557
:105A10002E883F880215130520F4201A310A8101CF
:105A200004C04E885F88041915092091BC05309187
:105A3000BD052C153D052CF4A601421B530B9A0104
:105A400002C02C193D09ACA1BDA10E94D6330E9411
:105A50009B1D5C019801AEA1BFA10E94D6330E949C
:105A60009B1DA80EB91E5AE175124AC0ABA9BCA96C
:105A7000AC0DBD1DAD010B2E000C660B770B8E8996
:105A80009F892DA83EA8820D931D6090BA05709045
:105A9000BB05830120E030E01C01412C512C021594
:105AA0001305240535052CF49C0126193709390105
:105AB00002C0681A790A8091BC059091BD051C014D
:105AC000412C512C241635064606570624F49D0118
:105AD000281B390B03C09C012A1B3B0BACA1BDA1A9
