:100000000C9450110C9478110C9478110C94781174
:100010000C9478110C9478110C9478110C9478113C
:100020000C9478110C9478110C9404190C94761992
:100030000C9478110C9478110C9478110C9478111C
:100040000C9478110C9478110C9478110C9478110C
:100050000C9478110C9478110C9478110C944B2119
:100060000C9478110C9478110C9478110C947811EC
:100070000C9478110C9478110C9478110C947811DC
:100080000C9478110C9478110C9478110C947811CC
:100090000C9478110C9478110C9478110C947811BC
:1000A0000C9478110C9478110C9478110000804015
:1000B0002020202020202020A060E000003F2121DF
:1000C000212121212121213F20100F000000C0E02B
:1000D000F0F0E0C0E0F0F0E0C00000000000010738
:1000E0000F1F3F3F3F1F0F070100000000000000EF
:1000F00000000000000000000000000000003C4084
:10010000403040403C00001C10780000000000001F
:1001100000000000000000000000000000003C4063
:10012000403040403C000044547C0000000000008F
:1001300000000000000000000000000000003C4043
:10014000403040403C000074545C0000000000005F
:1001500000000000000000000000000000003C4023
:10016000403040403C000000087C000000000000DF
:10017000000000000000008080800000041C040CCF
:10018000041C0404040E1F3131311F0E0000000056
:1001900000000000000080C0E0F0F0F0F0F0F0E0BF
:1001A000C08000000000000000000000000000000F
:1001B0000000000000000F1F3F7E76EFEF767E3FCD
:1001C0001F0F000000000000000000000000000001
:1001D00000000000000010180C06FFFFFFFF060CD7
:1001E00018100000000000000000000000000000E7
:1001F0000000000000202030180C070303070C1833
:10020000302020000000000000000000000000007E
:1002100000000000000080C0E0F0F0F0F0F0F0E03E
:10022000C08000000000000000000000000000008E
:100230000000000000000F1F3F7E76EFEF767E3F4C
:100240001F0F000000000000000000000000000080
:1002500000000000000010180C06FFFFFFFF060C56
:100260001810000000000000000000000000000066
:100270000000000000202030180C070303070C18B2
:1002800030202000000000000000000000000000FE
:1002900000000000000080C0E0F0F0F0F0F0F0E0BE
:1002A000C08000000000000000000000000000000E
:1002B0000000000000000F1F3F7E76EFEF767E3FCC
:1002C0001F0F000000000000000000000000000000
:1002D00000000000000010180C06FFFFFFFF060CD6
:1002E00018100000000000000000000000000000E6
:1002F0000000000000202030180C070303070C1832
:10030000302020000000000000000000000000007D
:1003100000000000000080C0E0F0F0F0F0F0F0E03D
:10032000C08000000000000000000000000000008D
:100330000000000000000F1F3F7E76EFEF767E3F4B
:100340001F0F00000000000000000000000000007F
:1003500000000000000010180C06FFFFFFFF060C55
:100360001810000000000000000000000000000065
:100370000000000000202030180C070303070C18B1
:1003800030202000000000000000000000000000FD
:1003900000000000000080C0E0F0F0F0F0F0F0E0BD
:1003A000C08000000000000000000000000000000D
:1003B0000000000000000F1F3F7E76EFEF767E3FCB
:1003C0001F0F0000000000000000000000000000FF
:1003D00000000000000010180C06FFFFFFFF060CD5
:1003E00018100000000000000000000000000000E5
:1003F0000000000000202030180C070303070C1831
:10040000302020000000000000000000000000007C
:1004100000000000000080C0E0F0F0F0F0F0F0E03C
:10042000C08000000000000000000000000000008C
:100430000000000000000F1F3F7E76EFEF767E3F4A
:100440001F0F00000000000000000000000000007E
:1004500000000000000010180C06FFFFFFFF060C54
:100460001810000000000000000000000000000064
:100470000000000000202030180C070303070C18B0
:1004800030202000000000000000000000000000FC
:1004900000000000000080C0E0F0F0F0F0F0F0E0BC
:1004A000C08000000000000000000000000000000C
:1004B0000000000000000F1F3F7E76EFEF767E3FCA
:1004C0001F0F0000000000000000000000000000FE
:1004D00000000000000010180C06FFFFFFFF060CD4
:1004E00018100000000000000000000000000000E4
:1004F0000000000000202030180C070303070C1830
:10050000302020000000000000000000000000007B
:1005100000000000000080C0E0F0F0F0F0F0F0E03B
:10052000C08000000000000000000000000000008B
:100530000000000000000F1F3F7E76EFEF767E3F49
:100540001F0F00000000000000000000000000007D
:1005500000000000000010180C06FFFFFFFF060C53
:100560001810000000000000000000000000000063
:100570000000000000202030180C070303070C18AF
:1005800030202000000000000000000000000000FB
:1005900000000000000080C0E0F0F0F0F0F0F0E0BB
:1005A000C08000000000000000000000000000000B
:1005B0000000000000000F1F3F7E76EFEF767E3FC9
:1005C0001F0F0000000000000000000000000000FD
:1005D00000000000000010180C06FFFFFFFF060CD3
:1005E00018100000000000000000000000000000E3
:1005F0000000000000202030180C070303070C182F
:10060000302020000000000000000000000000007A
:1006100000000000000080C0E0F0F0F0F0F0F0E03A
:10062000C08000000000000000000000000000008A
:100630000000000000000F1F3F7E76EFEF767E3F48
:100640001F0F00000000000000000000000000007C
:1006500000000000000010180C06FFFFFFFF060C52
:100660001810000000000000000000000000000062
:100670000000000000202030180C070303070C18AE
:1006800030202000000000000000000000000000FA
:1006900000000000000080C0E0F0F0F0F0F0F0E0BA
:1006A000C08000000000000000000000000000000A
:1006B0000000000000000F1F3F7E76EFEF767E3FC8
:1006C0001F0F0000000000000000000000000000FC
:1006D00000000000000010180C06FFFFFFFF060CD2
:1006E00018100000000000000000000000000000E2
:1006F0000000000000202030180C070303070C182E
:100700003020200000000000000000000000000079
:1007100000000000000080C0E0F0F0F0F0F0F0E039
:10072000C080000000000000000000000000000089
:100730000000000000000F1F3F7E76EFEF767E3F47
:100740001F0F00000000000000000000000000007B
:1007500000000000000010180C06FFFFFFFF060C51
:100760001810000000000000000000000000000061
:100770000000000000202030180C070303070C18AD
:1007800030202000000000000000000000000000F9
:1007900000000000000000000000000000FF00005A
:1007A0000000000000000000000000000000000049
:1007B0000000000000000000800000C0780F0080F2
:1007C0000000000000000000000000000000000029
:1007D000000000000000422424DB245F5E24DB24B0
:1007E00024420000000000000000000000000000A3
:1007F00000000000000000000100000000000001F7
:1008000000000000000000000000000000000000E8
:1008100000000000000000000000000000000000D8
:1008200000000000000000000000000000000000C8
:1008300000000000FCFC3333C3C3C3C3C3C3C3C342
:100840003333FCFC0000000000000000000000004A
:1008500000000000FFFF3333CCCC3333CCCC333338
:10086000CCCCFFFF000000000000000000000000F2
:10087000000000003F3FF3F3CCCCF3F3CCCCF3F318
:10088000CCCC3F3F0000000000000000FF9999FF22
:10089000FFFFFF9999FF01FD05050505050565F5B4
:1008A000FD01FF9999FFFFFFFF9999FF1C387266C0
:1008B0004C1832664E1C00FF7C380000000000001F
:1008C000FF001C3872664C1832664E1C8EA7B39916
:1008D0008CA6B3B99C8E00FF0000000000001C3EF7
:1008E000FF000EA7B3998CA6B3B99C8EFFFFFFFF44
:1008F000FFFFFFFFFFFF80BFAFA6A0A0A0A0A0A0AA
:10090000BF8080FFFFFFFFFFFFFFFFFFFF01FD052F
:1009100005050505050505050505FD0101C12111B3
:10092000090505050505091121C101FFFF007F40EB
:10093000404040404040404040407F000007081099
:100940002040404040402010080700FFFF0000000A
:10095000000000C0C0C00000000000000002040849
:100960001020408040201008040200FFFF8080809B
:1009700080808081818180808080808080A090883C
:10098000848281808182848890A080FFFF01FD05A0
:1009900005050505050505050505FD0101C1211133
:1009A000090505050505091121C101FFFF007F406B
:1009B000404040404040404040407F000007081019
:1009C0002040404040402010080700FFFF0000008A
:1009D000000000C0C0C000000000000000020408C9
:1009E0001020408040201008040200FFFF8080801B
:1009F00080808081818180808080808080A09088BC
:100A0000848281808182848890A080FFFF01FD051F
:100A100005050505050505050505FD0101C12111B2
:100A2000090505050505091121C101FFFF007F40EA
:100A3000404040404040404040407F000007081098
:100A40002040404040402010080700FFFF00000009
:100A5000000000C0C0C00000000000000002040848
:100A60001020408040201008040200FFFF8080809A
:100A700080808081818180808080808080A090883B
:100A8000848281808182848890A080FFFF01FD059F
:100A900005050505050505050505FD0101C1211132
:100AA000090505050505091121C101FFFF007F406A
:100AB000404040404040404040407F000007081018
:100AC0002040404040402010080700FFFF00000089
:100AD000000000C0C0C000000000000000020408C8
:100AE0001020408040201008040200FFFF8080801A
:100AF00080808081818180808080808080A09088BB
:100B0000848281808182848890A080FFFF01FD051E
:100B100005050505050505050505FD0101C12111B1
:100B2000090505050505091121C101FFFF007F40E9
:100B3000404040404040404040407F000007081097
:100B40002040404040402010080700FFFF00000008
:100B5000000000C0C0C00000000000000002040847
:100B60001020408040201008040200FFFF80808099
:100B700080808081818180808080808080A090883A
:100B8000848281808182848890A080FFFF01FD059E
:100B900005050505050505050505FD0101C1211131
:100BA000090505050505091121C101FFFF007F4069
:100BB000404040404040404040407F000007081017
:100BC0002040404040402010080700FFFF00000088
:100BD000000000C0C0C000000000000000020408C7
:100BE0001020408040201008040200FFFF80808019
:100BF00080808081818180808080808080A09088BA
:100C0000848281808182848890A080FFFF01FD051D
:100C100005050505050505050505FD0101C12111B0
:100C2000090505050505091121C101FFFF007F40E8
:100C3000404040404040404040407F000007081096
:100C40002040404040402010080700FFFF00000007
:100C5000000000C0C0C00000000000000002040846
:100C60001020408040201008040200FFFF80808098
:100C700080808081818180808080808080A0908839
:100C8000848281808182848890A080FFFF152B154B
:100C9000090301010101010101010101010101013A
:100CA0000105EDFDFD050101010101FFFF002030FF
:100CB00080808080803020000000F8FCFC1C181C24
:100CC000DC1C1F1F0F000000000000FFFF0020338E
:100CD000041E131E043320000000FFFE7F000000EE
:100CE0000400000000000080000000FFFF80808002
:100CF00080808080808080808080FFFFFF80808077
:100D0000808080E09CCAB983A08AA0FFFFFF030314
:100D10000303030303030303FFFF03030303FFFFB3
:100D200003030303FFFF03030303FFFFFFFF0000B1
:100D30008080808080000000FFFF00000000FFFF37
:100D400000000000FFFF00000000FFFFFFFF0000A9
:100D50000131493101000000FFFF00000000FFFFEA
:100D600000000000FFFF00000000FFFFFFFFC0C009
:100D7000C0C0C0C0C0C0C0C0FFFFC0C0C0C0FFFF77
:100D8000C0C0C0C0FFFFC0C0C0C0FFFFD5F08D1401
:100D9000A1C881CFD9F1AF20000C088C078C018C41
:100DA000018C018C016C014C012C010C01EC00CC7C
:100DB00000AC00FE0202C2F23A5A7A5A3A1A1A02F9
:100DC0000202C2F23A5A7A5A3A1A1A0202FE028A07
:100DD000228AAAAAAA020202020202020202020253
:100DE00002020202FE02327AFAF2FA7A32020202B7
:100DF000020202020202020202020202029A5A22C3
:100E0000D2CA02FE0202020202020202020202022E
:100E100002020202020202020202020202020202B2
:100E200002020202020202020202020202020202A2
:100E30000202FEE0F8FCFEFEFFBF9F0F0FFFFEFE6A
:100E4000FCF8E0071F3F7F7FFFFFFFE0E0FF7F7FB1
:100E50003F1F07E0F8FCFEFECF4F4F4F0F0FFEFE87
:100E6000FCF8E0071F3F7F7FE0E0E6E6E6E67F7FF5
:100E70003F1F07E0F8FCFEFECFCF4F4F0F0FFEFEE7
:100E8000FCF8E0071F3F7F7FE7E7E6E6E0E07F7FD3
:100E90003F1F078C0C0C0C8C0C0C0C0C0C8C0B0CD2
:100EA0000B8C0A0C0A8C090C098C0C8C0C8C0C8C8D
:100EB0000C8C0C8C0C8C0C8C0C8C0C8C0C8C0C8C72
:100EC0000C8C0C8C0C8C0C8C0C8C0C8C0C8C0C8C62
:100ED0000C8C0C8C088C0C8C088C0C8C088C0C8C5E
:100EE0000C8C0C8C0C8C0C8C088C0C8C0C8C088C4A
:100EF0000C8C088C0C8C088C0C8C0C8C0C8C0C8C3A
:100F00000C8C088C0C8C0C8C0C8C0C796F75206EF6
:100F10006565642061200020636F6C6C6563746597
:100F20006400616D6D6F006865616C746800776561
:100F300061706F6E3400776561706F6E3300776536
:100F400061706F6E3200776561706F6E31006B6536
:100F50007900000100020004000800100020004099
:100F6000008000030006000C00180030006000C084
:100F700000800107000E001C0038007000E000C077
:100F80000180030F001E003C007800F000E001C06B
:100F90000380071F003E007C00F800F001E003C062
:100FA00007800F3F007E00FC00F801F003E007C05F
:100FB0000F801F7F00FE00FC01F803F007E00FC068
:100FC0001F803FFF00FE01FC03F807F00FE01FC089
:100FD0003F807FFF0100FE0300FC0700F80F00F0D8
:100FE0001F00E03F00C07F0080FF00FF0300FE07FE
:100FF00000FC0F00F81F00F03F00E07F00C0FF0082
:1010000080FF01FF0700FE0F00FC1F00F83F00F00B
:101010007F00E0FF00C0FF0180FF03FF0F00FE1F05
:1010200000FC3F00F87F00F0FF00E0FF01C0FF037D
:1010300080FF07FF1F00FE3F00FC7F00F8FF00F06D
:10104000FF01E0FF03C0FF0780FF0FFF3F00FE7FAF
:1010500000FCFF00F8FF01F0FF03E0FF07C0FF0FF7
:1010600080FF1FFF7F00FEFF00FCFF01F8FF03F081
:10107000FF07E0FF0FC0FF1F80FF3FFFFF00FEFFE5
:1010800001FCFF03F8FF07F0FF0FE0FF1FC0FF3F69
:1010900080FF7F00000080B66DDB765A6BADAD241B
:1010A0004992A46AB55AABAA55AB55DE7BEF7D20B9
:1010B000042104AA5AD5AA48241249AA6A55AD5453
:1010C00055A5AAEEDDBBF7EEBD7BEF94524AA9AA67
:1010D000AA6A550004208000002000FEEFFFFEEE0B
:1010E000DEBDBBBEDFEFFB402010045A5B5B6B88AC
:1010F000484422008000800000020010111122AA42
:10110000AAAA6AFEFDFBEF24495292FEFDF7DF100A
:10111000420811FEFFF7FFEEEEDDDDDADADAD6AADD
:1011200056B56AAAAA5A55EEBDF7EEFEFFFFFB4080
:10113000100802A4949452DAD6B6B6FEDFFFFBFE86
:10114000BFFFDF48124922B6DBEDB680402020AA5F
:10115000D56AD500010101B66DBB6D88888848BE8F
:10116000EFF77D54A9529548228924FEFFEFFF6ACC
:10117000ADB556FEDFFFF788442211FEFFFF7FA4C6
:10118000A4A49400042000DEFBDEF788442412EEC1
:10119000EEEEDE88884444EEBD77EF00010202FEE9
:1011A000FDF7EF545555A58844242200100001FE98
:1011B000FEFEFDB6DD76DB48922489FEFFFFEF00E0
:1011C000010102FEFFFFF7DAB66DDB2449499210F8
:1011D00042841000400010DAB66D6DAAAAAAAA8057
:1011E000808040DADAD6D6A4945252200882107653
:1011F00077B7BB944AA5524892249110214244FEED
:10120000BFFFEF767777B7DAB6AD6D5455A9AA4828
:1012100024914810428810FEFFFFFDFEFEFDFD7682
:10122000BBDBED5455559594522995888848442048
:1012300084208400004000FEFBDF7FB6DB6EB7DA5F
:10124000D6B6B554AA54AA4892449200400020FE53
:10125000FDFBF776BBDDED5A6B6B6D54A952A548CB
:1012600024128910111111208410840008800000BC
:10127000000004FEFFFEFFDAB66D5B5A6B6BAD54E7
:101280005555A954AA54A94812491200020810FE43
:10129000FBEFBF7EBFDFDFDEF77DEF76BBDDEEB6B7
:1012A0006DDBB65495AA4A944AA554242949498825
:1012B000888888401008820080004000000000FEFE
:1012C000FFFDFFDEFBDEFB76B7BBDBB6DDB6DB6A20
:1012D000ADD65AAAAA55D52425252920042108408F
:1012E0001004820008400000000002FEEFFFFD7EB7
:1012F0007F7FBFDEF77DDFEEDDBB77EEEEEEEE76D5
:1013000077BBBBAA5A55AB54A52A55A4A4949424E0
:1013100029494A4822492410111121FE7FFFBFFEAE
:10132000FBEF7FBEDFEFF7DEF7BEEFB6DB6EBBB6DF
:10133000EDB6DD6AB5566BAAD56AB5542A952A94DE
:101340004AA95420841082000204100010000200F8
:10135000000100FE7FFF7FFEF77FFFDE7BEFBDEE2B
:10136000DEDDBB7677777776BBDD6EDAB6B66D6A93
:10137000B556ABAA55AB5654A94A95945229A52403
:10138000494A921011222220084110401004818005
:10139000404020808080800002082000200004FE61
:1013A000F7BFFFBEEFF7FDEEEEDEDDB6EDB6EDB654
:1013B0006DDB6DDADADADA6AADB5D66AADD66AAA6D
:1013C00056B5AAAA6A55B5AAAAAA55545555555450
:1013D00095AA5294522AA5242529298848442410E4
:1013E00022440800041080002000080000040000CF
:1013F000000040FEFFFFFFFEFFDFFFFEFBDFFFB64A
:10140000DBED76DAB6B56DDADAD6B66AADB55AAADC
:1014100056AD6AAAAA55555455AA2A5455AAAA5493
:10142000A5AA5494524A29A494524A244992924813
:10143000924892482491448844229110112122100C
:10144000214284104208214020100800020408FEB6
:10145000FFFFDFFEFFFFFE7E7F7F7F7EBFBFDFDE01
:10146000F7BEF7DE7BEF7B76B7BBDD5A5B5B5B5A83
:101470006BADB56AB55AAD542A954AA4949492249A
:101480004992241022448820084108200882200024
:10149000000020000000010002030400050607010F
:1014A00008090A000B0C0D0E0F101103121314156E
:1014B00016171800191A1B1C1D1E1B1F2021222382
:1014C0001B24040125262728292A1A042B2C2D2E1B
:1014D00004001B001B002F30313233341901353624
:1014E00037323802393A013B3C3D083E003F1B4051
:1014F0000041050342433144454647481B492E4AB3
:10150000411634094B4C064D1B4E4F503841515239
:101510003B325300473F541B553956193633572237
:101520000F58595A4B005B125C5D2F5E285F605369
:101530001161620663292F646503666730683A6942
:1015400012136A6B2F1B6C3B6D3267536E00206F5A
:10155000120C700171051B7255037374752E76772A
:101560003A786F14253F6A797A2F0F7B7C551D7D61
:10157000175A07157E19003A787F80810D3F8283C4
:1015800029022F0A64848555864973875A678853D0
:101590003C898A003A8B6947148C413F8D8E012922
:1015A0007A8F05901B5E34855591036D09401A6052
:1015B00092932E42941995003A4A78961E97149861
:1015C00006999A9B8248015D22028F2F9C241B441E
:1015D0009D6C850E9E9F0349A03940A15A1F9256CB
:1015E0001553421046199500003A3A36A296A36266
:1015F00097A412A5060C213F5763A6A701792922BB
:101600007A37A8A9230A0F1B645E9D34AAAB0E5536
:101610003B9F1D035935093E66321A5A60AC075686
:101620008815534BAD3CAE6EAF118A00003A3A3A82
:101630006120B038B143624780143381A5B2250CD4
:10164000B3213FB48DB56A8E31017979B6541671E4
:101650000237B704B82308900F1B1B64440B84B9EE
:101660006CAA85BA0E55283B9186BB0349492CA02C
:1016700009393E1732A174BC5A601FAC75BD56BE05
:101680008815BFC04B42C1107646C2891968778A57
:10169000000000003A3A3A3A2636208B2B38C369CC
:1016A000A36F624797801414C41281A53DB22541EF
:1016B0000C0C13C53F3F5C9B8D70822D6A8EC6C794
:1016C0000101797951B66BC81616710237C9CAA8DB
:1016D000042FB805CB9CCC900FCD1B1B1B6464CE94
:1016E0000B0BCF9DB9346CAAAA85AB65D00E5555AE
:1016F000289E91D19F861D1D03034949596D7DA0E8
:101700005F09093945D266403232A1741A5A5AD358
:10171000D34F1F1FAC7507BDBD56BE938815152E40
:101720002E53534B4B42AD7ED410769446D56E1853
:1017300019AFD6116877D7000000000000003A3AD0
:101740003A3A3A3A3AD84A61D92020788BB02B38C5
:101750001296C3B1DAA3431C624762479797808011
:10176000141414333312818181A58C3D060606259D
:10177000250D410C0C13132121C53F3F5C5CB49B2C
:10178000578D6370B5822DDBA66A8E48C6A7C73118
:10179000010101017979795D5DDC296B54DD22223B
:1017A000161616717A0202373737DE8FB7A804048F
:1017B0002FA92FB805DF23239C08CC0AE0240F248F
:1017C000CD1B1B1B1B1B1B64646464647B7B0B0BAA
:1017D000E1E2CF849DE3B972346C6C7CAAAAAA853D
:1017E0008585ABBA65BAE40E0E5555E555283B3BE9
:1017F0003B3B919191D19F864EBB1DBBE6030303FA
:1018000003494949495959E76D2C7D35A0A05FE846
:101810000973090939E93E3E3ED217664066323205
:101820003232A1A1A174EA1AEABC5AEB5AD3D3D33B
:1018300060604FEC1F1FACACAC7575759207BDBDF9
:10184000BDBD565656BEBE9388881515ED15152E8E
:101850002EBF2E2E5353534B4B4B304B4242ADEECB
:10186000C17E7ED4103C1076769494AE4646D5C2A6
:101870006E5018181919AFAF19D6D61168116877BC
:101880009577D78A000000000000000000000000EB
:10189000000000003A3A3A3A3A3A3A3A3A3A3A3A90
:1018A0003A3A3A3AEF4C4A6161F0D9362020362074
:1018B0002078788B8BA2B05B2B2A2A38121296964E
:1018C000C3C3B1B16969DA7FA343431E6F1C1C1CFB
:1018D00062624747624747479797F1979780F28040
:1018E0008080141414A4A4141433C43333121212B9
:1018F00012818181988181F3A5A58C8C3DF4F40639
:10190000B2060606062525252525410D41410C0C6C
:10191000990C0C0C1313B313132121C52121C59A63
:101920003F3F3F3F3F3F5C5C5C5C5CB4579B9B57D9
:1019300057F5F58D8D6363707063B58282822D2DAE
:101940002DDB6A6AA6A66A6A8E8E8E484848C6C68D
:10195000A7313131C73131C7010101010101010155
:1019600079797979797979794D795D51515D5DDC54
:10197000B6B629296B6B6B5454DDDDC822222222B6
:10198000161616F61616167A7A71717A7AF7020218
:101990000202020237373737373737DEDECACA8FDF
:1019A0008FB7B7A8A8F804040404042F2F2F2FA979
:1019B0002F2FB8B805050505DFDFDF2323CB232351
:1019C000239C9C9C080808CCCC0A0AE0E090902458
:1019D000240F0F0F240F0FCD1B521B1B1B1B1B1B98
:1019E0001B1B1B1B1B1B1B1B1B6464646464646448
:1019F0006464646464646464CE7B447B7B0B0B5ED0
:101A00005E0B0B0BE1E1E2E2CFCF8484849D9D9DD0
:101A1000E3E3E3E3B9B9343472723434346C6C6C9C
:101A20006C6C7C7CAAAAAAF9AAAAAAAAAA8585850E
:101A3000858585585885ABABABBABABA6565BABA75
:101A4000BAD0D0E40E0E0E0E0E0E55555555555506
:101A50005555E5E55555FAFA2828283B3B3B3B9E72
:101A60003B3B3B3B3B9191919191D1D19191D1D114
:101A7000D19F9F9F9F868686864E4EBBBB1D1D1D98
:101A80001DBBBB1D1DE6FBFB030303030303030395
:101A900003030303494949494949494949494949CE
:101AA0005949495959E7E7E76D6D6D6D2C2C7D7DDE
:101AB0007D7D35353535A0A0A0A0A05F5F5F5FE8D4
:101AC000E8E8090909737309090909093939393934
:101AD0003939E9E93E3E4545453E3E3E3ED2D2D209
:101AE000D21717176666666666404040666687329C
:101AF00032323232323232323232A1A1A1A1A1A12C
:101B0000A1A1A1A1A17474EAEAEA1A1A1AEAEAEAFE
:101B1000BCBCBCBC5A5A5A5AEBEB5A5A5A5A5AD302
:101B2000D3D3D3D3FCFCD3D3D3D360606060604FF6
:101B30004F4FECEC1F1F1F1F1F1F1F1F1F1FACACA1
:101B4000ACACACACACACAC757567676775757575EE
:101B50009292929207070707BDBDBDBDBDFDFDFD79
:101B6000BDBDBDBDFEFE565656565656565656BEC1
:101B7000BEBEBEBEBEBEBE93938888882727278878
:101B80008888151515151515EDEDED151515151597
:101B9000151515152E2E2E2E2E2E2EBFBFBF2E2E16
:101BA0002E2E2E53535353C0C0535353535353539A
:101BB0004B4B4B4B4B4B4B4B303030304B4B4B4BE1
:101BC00042424242424242ADADADADADADEEEEEE6F
:101BD000C1C1C1C17E7E7E7E7ED4D4D4D4D4D41083
:101BE000103C3C3C101010101076767676767676A7
:101BF000949494949494AEAEAEAEAEAE4646464641
:101C000046D5D5D5D5D5C2C2C2C2C26E6E6E6E5093
:101C1000505050501818188989898919191919199B
:101C20001919AFAFAFAFAFAF1919191919D6D6D669
:101C3000D6D6111111116868686811111111686800
:101C400068689595957777779595777777FFFFD73C
:101C5000D70000008A000000000000000000000023
:101C60000000000000000000000000000000000074
:101C70000000000000000000000000000000000064
:101C80000000000000000000000000000000000054
:101C9000000000520F4E0F460F3E0F360F2E0F273B
:101CA0000F220F170F0B0F080B0002020201000991
:101CB00004000001020200000524001001052401B7
:101CC0000101042402060524060001070581031012
:101CD000004009040100020A00000007050202405A
:101CE00000000705830240000004030904120100FC
:101CF00002EF0201404123360000010102030141CD
:101D0000726475696E6F204C4C4300417264756259
:101D10006F790040404040404040403F3F3F3F3FA0
:101D20003E3E3E3E3D3D3D3C3C3B3B3A3A3A3939F6
:101D300038373736363534343332323130302F2E6F
:101D40002D2C2C2B2A292827272625242322212025
:101D50001F1E1D1C1B1A1918171615141312110F0C
:101D60000E0D0C0B0A090807060403020100FFFE12
:101D7000FDFCFAF9F8F7F6F5F4F3F2F1EFEEEDEC1D
:101D8000EBEAE9E8E7E6E5E4E3E2E1E0DFDEDDDC1B
:101D9000DBDAD9D9D8D7D6D5D4D4D3D2D1D0D0CFF5
:101DA000CECECDCCCCCBCACAC9C9C8C7C7C6C6C699
:101DB000C5C5C4C4C3C3C3C2C2C2C2C1C1C1C1C1FB
:101DC000C0C0C0C0C0C0C0C0C0C0C0C0C0C0C0C112
:101DD000C1C1C1C1C2C2C2C2C3C3C3C4C4C5C5C6D6
:101DE000C6C6C7C7C8C9C9CACACBCCCCCDCECECF50
:101DF000D0D0D1D2D3D4D4D5D6D7D8D9D9DADBDC88
:101E0000DDDEDFE0E1E2E3E4E5E6E7E8E9EAEBEC8A
:101E1000EDEEEFF1F2F3F4F5F6F7F8F9FAFCFDFE6A
:101E2000FF0001020304060708090A0B0C0D0E0F40
:101E30001112131415161718191A1B1C1D1E1F201A
:101E4000212223242526272728292A2B2C2C2D2E16
:101E50002F30303132323334343536363737383943
:101E6000393A3A3A3B3B3C3C3D3D3D3E3E3E3E3FAF
:101E70003F3F3F3F404040404040400000010002A3
:101E8000000300040006000700080009000A000B18
:101E9000000C000E000F00100011001200140015BD
:101EA000001600170019001A001B001C001E001F5E
:101EB000002100220023002500260028002A002BF4
:101EC000002D002E00300032003400360038003A79
:101ED000003C003E0040004200450047004A004CE4
:101EE000004F005200550058005B005F0063006621
:101EF000006B006F00730078007E00830089009003
:101F00000097009E00A700B000BA00C500D100DF16
:101F100000EF00010115012D0149016B019401C77A
:101F20000109026102DC029303C5042907530E0F65
:101F3000090F00020F0D0D0B090D0F03020F0B0906
:101F40000D0F0A0E010D030F0D0F0B0B0F0E050EDB
:101F50000F0B0C0609090F09060F0B090F05010FDE
:101F6000090D0F040F000D000509070F020D0F08E2
:101F7000080F020F0F010E07090F0F05070F0907C2
:101F80000F050A0B090D010F010F080F0708070FB6
:101F9000040F090609030C030D0B090000000101E1
:101FA00001010101010101000000000000000182A7
:101FB00000008212131401000001010F0F0F010035
:101FC00000010010100F010000010112100F0100AC
:101FD0000001010F0F0F010000000010131001019C
:101FE00001010000000001000012000000000100DB
:101FF000000F000000000100000F000000000100C1
:1020000001100100000001000101010000000100B9
:1020100000010100000001010101010101010101B4
:1020200001010101010100000000000000010000A9
:10203000000000000001000000000000000100009E
:10204000000000000001000000000000000100008E
:10205000000000000001000000000000000100007E
:10206000000000000001000000000000000100006E
:10207000000000000001000000000000000100005E
:10208000000000000001000000000000000100004E
:102090000000000000010101010101010101000037
:1020A0000000000000000000000000000000000E22
:1020B0001A0A00001200001D000000000F00000DB1
:1020C000000000000F00000000000000100000866B
:1020D000800081000000008B8C00000000000000E8
:1020E0000000000000000000000000000000000EE2
:1020F000000A00010100001A000000000100000DAC
:1021000000000001010000000000000000000000CD
:1021100000000000000000000000000000000100BE
:1021200000000000000001000000000000000100AD
:10213000000000000000010000000000000001009D
:10214000000000000000010000000000000001008D
:10215000000000000000010000000000000000007E
:10216000000000000001000000000000000100006D
:10217000000000000001000000000000000100005D
:10218000000000000001000000000000000100004D
:10219000000000000001000000000000000101013B
:1021A0000101010101010000000000000000000029
:1021B000000000010000000100000000000000001D
:1021C0000000000000000100010101010101000008
:1021D00000000000000000000000000000000000FF
:1021E00000000000000000000000000000000000EF
:1021F00000000000000000000000000000000000DF
:1022000000000000000000000000000000000000CE
:1022100000000000000001010101010101010000B6
:1022200000000000000000000000000000000000AE
:10223000000000000000000000000000000000009E
:10224000000000000000000000000000000000008E
:102250000000000000000000000000000000000876
:10226000080808080802060405050505050706050F
:102270000505050505070605050505050507060508
:1022800005050505050706050505050505070605F8
:1022900005050505050701090909090909038E3224
:1022A00011241FBECFEFDAE0DEBFCDBF27E0A4E6EA
:1022B000B1E001C01D92A93BB207E1F711E0A0E037
:1022C000B1E0E0E3FDE602C005900D92A436B1074F
:1022D000D9F711E1C0E5D1E104C02197FE010E94C8
:1022E000EB32CF34D107C9F70E9495210C94963672
:1022F0000C9400008F929F92AF92BF92CF92DF9288
:10230000EF92FF920F931F93CF93DF931F92CDB75E
:10231000DEB74C016B015A01602F822F29830E9486
:10232000521D182D1F734AE5E41AF108298194EB18
:10233000E916F10438F090E4911B192F81116BC05C
:1023400081E003C0811164C08FEF820F602F0E9473
:10235000521D882309F456C08F3039F590917E05BF
:10236000E0914F07F0915007992391F0228130E0DE
:102370002F5F3F4F96E0220F331F9A95E1F793812D
:10238000290F311D205F3F4F2A153B0570F43CC0DB
:102390009281238130E0E0E49E9F200D311D1124C5
:1023A00020513109A216B30678F192E020918705F9
:1023B000022E000C330B215F3F4F412F50E02417BA
:1023C0003507DCF0113178F020EF210F30E0F4EB2D
:1023D000EF16F10430F0280D391DF601318320830A
:1023E00005C0821A930AF601918280828F3029F407
:1023F00080915407816080935407892F103180F4B5
:1024000081600EC080E00CC0105C90E080E0CECF18
:102410008F3021F499CF8F3009F492CF90E0C6CF5E
:102420000F90DF91CF911F910F91FF90EF90DF9070
:10243000CF90BF90AF909F908F9008952F923F9232
:102440004F925F926F927F928F929F92AF92BF92C4
:10245000CF92DF92EF92FF920F931F93CF93DF9370
:10246000CDB7DEB760970FB6F894DEBF0FBECDBF15
:102470006C013E872D87188B0F87F9018080918032
:10248000F80160807180442309F455C120918705CB
:10249000443081F45C01FAE5AF0EB11C48E6A416A5
:1024A00041E0B40608F445C15C015EE0A51A51E0C4
:1024B000B50A3FC1433069F46B016A35710520F4F8
:1024C00088E9C81A8EEFD80A9AE5C91AD1085B01C3
:1024D00030C14130A1F55C01F501ED5EF24EE491B1
:1024E000E202C001112497FDCF9636E095958795BD
:1024F0003A95E1F7880D991D9E838D83FB01ED5E72
:10250000F24EE491E202F0011124F7FDFF9626E07D
:10251000F595E7952A95E1F7E60DF71DFC83EB832A
:102520006501E4EBCE0ED11CF8E6CF16F1E0DF0634
:1025300008F438C0650144EBC41AD10833C0FC016B
:10254000ED5EF24EE491E202F0011124F7FDFF96F8
:1025500096E0F595E7959A95E1F7C4018E1B9F0BE0
:102560009E838D83FB01ED5EF24EE491E202F00169
:102570001124F7FDFF9686E0F595E7958A95E1F73A
:10258000C3018E1B9F0B9C838B83560154EBA50EBE
:10259000B11C88E6A81681E0B80620F0560194EB3D
:1025A000A91AB108592C550C87FC5394550C86FC7C
:1025B0005394472C440C67FC4394440C66FC4394AE
:1025C0007501042D252DAE014D5F5F4FB301C40190
:1025D0000E946E20182F252DA301BE016B5F7F4F37
:1025E000C4010E947A11382E8B819C812D813E81FD
:1025F000A301E4EBAE16B10438F4405F5F4F5A8795
:102600004987FC01709606C0405151095A87498795
:10261000FC017097FC87EB87C5018A559109843BC3
:10262000910540F0C4014096A901405F5F4F588773
:102630004F8306C0C4014097F9017097F887EF8374
:1026400030FE03C010FF32C067C07A826982292F32
:10265000220F87FD2395220F86FD23957601042DF9
:10266000AE014F5F5F4FB3010E946E20282E812F75
:1026700090E0830D911D892BA9F44F815885252F5A
:10268000220F47FD2395220F46FD23957A8269820A
:102690007501AE014F5F5F4FB3018F8198850E9436
:1026A0006E20280E20FE02C09E828D8210FD34C056
:1026B0009A82898289859A85092F000F87FD039563
:1026C000000F86FD03957601252DAC01BE016F5FDD
:1026D0007F4FC4010E947A11D82E812F90E0830D84
:1026E000911D892BA9F4EB85FC850F2F000FE7FDC9
:1026F0000395000FE6FD03959A8289827501252DC9
:10270000AF01BE016F5F7F4FC4010E947A11D80EE6
:10271000D0FE02C07C826B828D819E81ED85FE851C
:10272000918380838B819C81EF85F889918380835D
:1027300002C0B601D1CE60960FB6F894DEBF0FBED0
:10274000CDBFDF91CF911F910F91FF90EF90DF9060
:10275000CF90BF90AF909F908F907F906F905F9041
:102760004F903F902F9008958F929F92AF92BF927B
:10277000CF92DF92EF92FF920F931F93CF93DF934D
:102780000E94E33560E470E00E94C83280935307F2
:1027900080918805882321F081508093880502C0AC
:1027A0001092910580919205882359F090915107DC
:1027B00090FD07C0181614F4885001C0885F8093FC
:1027C000920580919F05811103C010929E0503C060
:1027D000815080939F050E941E2187FF08C0809131
:1027E0009105823011F41092880581E029C00E9481
:1027F0001E2184FF08C080919105813011F4109250
:10280000880582E01DC00E941E2185FF10C00E9425
:102810001E2183FF02C083E013C080919205181629
:1028200014F410929205809192058B501EC00E9464
:102830001E2186FF2AC00E941E2183FF0EC084E055
:1028400080939105809188058E5F809388058091A3
:102850009E0580326CF098EF0EC08091920587FD46
:102860001092920580919205855F809392050DC02C
:10287000813E1CF498E090939D0590919D05890FF1
:1028800080939E0585E080939F0580918805823125
:1028900018F082E1809388058091920581341CF0C4
:1028A0008B508093920580919205803C1CF4855F4B
:1028B00080939205E12C6FE1F62E7EE1B72EE2E0E7
:1028C000DE2EF4E0CF2EA6E0AA2EB8E79B2E14E66B
:1028D000812E8091E106E81608F059C1EE2DF0E056
:1028E000E952F94F808190E0F89ED001F99EB00D39
:1028F0001124A158BA4FD2964C91D29741FD45C1AF
:1029000040FF7EC097968D919C919897C29708F052
:102910003CC1D5969C91D597963808F437C081E094
:1029200080935207EBE7E90F8E2F8068E82FEF7056
:10293000F0E0EE0FFF1FED56F34E259134913093EA
:10294000960520939505E82FF0E034E0F595E7959E
:102950003A95E1F7EE0FFF1FED56F34E25913491B6
:102960003093980520939705909299054260D296EE
:102970004C939B3859F480918A05845F853618F40E
:1029800080938A0502C180928A05FFC09C38A9F411
:1029900080918C05875E80938C0580918D05865F84
:1029A00080938D0580918E058B5F80938E0580913D
:1029B0008F058F5F80938F05E8C0963831F4809142
:1029C00090058F5F80939005E0C0973821F4809147
:1029D0008B05816005C0983831F480918B05826049
:1029E00080938B05D2C0993821F480918B05846047
:1029F000F7CF9A3809F0C9C080918B058860F0CF75
:102A0000D5962C91223819F4C092870502C0A09265
:102A10008705F89EF001F99EF00D1124E158FA4F58
:102A200026A12130A1F038F0223009F454C024301E
:102A300009F4A1C0AAC023A5222309F4A6C027A196
:102A400030A52F3F310511F008F09FC005C047A108
:102A500050A54138510500F1D6A221A532A5A90102
:102A6000445B510957FD03C050AB47A704C02C5429
:102A70003F4F30AB27A7F89EF001F99EF00D1124CF
:102A8000E158FA4F87A590A9EC01CA55D109D7FFA3
:102A90007CC0C859DE4F79C033A9311119C04091AB
:102AA000530734A9430F44AB30918A05332339F0DF
:102AB000433328F0315030938A0520935207F89E13
:102AC000F001F99EF00D1124E158FA4FB3AA5DC050
:102AD000315033AB5AC023A5222341F027A130A5A2
:102AE0002038310518F481E086A34FC0F89EF0012C
:102AF000F99EF00D1124E158FA4F27A130A521309D
:102B0000324010F0C6A241C0209151072F73F1F45A
:102B100021A532A5A901445B510957FD03C050AB63
:102B200047A704C02C543F4F30AB27A7F89EF001B5
:102B3000F99EF00D1124E158FA4F27A530A9E901BB
:102B4000CA55D109D7FF02C0C859DE4FF89EA0016F
:102B5000F99E500D11248A010E551A4F9A012056E4
:102B60003A4FFA01E158FA4F41E0BE0187A590A91A
:102B70000E941E120AC083A5882339F087A190A560
:102B80008F3F910509F008F4D6A2E394A2CE4091BC
:102B90000C07E091070786E0E89FF0011124E85157
:102BA000F94FDF011296EF0124967F0183E0E80ED2
:102BB000F11C90E06FEF53E072E010EF20910C07F2
:102BC000921790F58C91813061F4F7018081288112
:102BD000821305C08F3351F47C9318831EC08F5F1E
:102BE0001AC0823041F48881811102C05C9315C003
:102BF0008150888312C0833081F4F7018081811174
:102C000009C01C92292F30E0295F384FF9016083F9
:102C1000415003C08150F70180839F5F169626962E
:102C2000F6E0EF0EF11CCACF80E0821798F48823FB
:102C300059F0E82FF0E0DF01A95FB84F9C91EA5FFF
:102C4000F84F3081931710F08F5FEFCF3C93908354
:102C50008150EBCF40930C0780915307837039F577
:102C6000EDEEF6E093E031E0209106078217F8F4EC
:102C7000208120FF19C0DF0113972C91211114C06E
:102C80003C9311961C921196209153072C7F2C9304
:102C9000A0910C0721E02A0F20930C07B0E0A95F58
:102CA000B84F8C93915019F08F5F3696DDCFDF913E
:102CB000CF911F910F91FF90EF90DF90CF90BF9039
:102CC000AF909F908F9008959F92AF92BF92CF92B6
:102CD000DF92EF92FF920F931F93CF93DF93182F02
:102CE000EB01FA0180E098E0BA010E94B432A62F0D
:102CF000ED56FB4EE49144E0E49FC00111242933DA
:102D0000310590F0D7FF08C02C0F3D1F2933310546
:102D100068F028E330E00AC0C833D1050CF528E399
:102D200030E02C1B3D0B1EC0D7FF1CC0FC01ED5634
:102D3000FF4E749148E0572F51705A0FC50FD11DA7
:102D4000D7FF06C00F5F76954150A9F70196EECFE9
:102D5000D42E209719F40F5FD0E087C0D0E00CC0CC
:102D600020E030E0DC2FFC01ED56FF4E7491A8E02E
:102D7000DA2EC72FC170C60F4C2F50E0241735072D
:102D800008F4C22F402F469546954695D701A40FCB
:102D9000B11DE02FE770F0E0E45EFE4F5C914081F2
:102DA0004523AC2EB12C09F45BC0A12FB0E04D2F10
:102DB00046954695469550E8459FA00DB11D1124B6
:102DC000A258BE4FED2FE770CE2EC93068F4A50192
:102DD00041505109E3E0440F551FEA95E1F74C0DCE
:102DE000511D440F551F10C0F501399748E1942E2D
:102DF0009E9EA0019F9E500D112440585F4FE3E01E
:102E0000CE9E400D511D1124FA01ED5AF04FE49170
:102E1000FC91FE2BFC931196FC911197EF2B1196D0
:102E2000EC931197FA01EC5AF04FC490FD01E05871
:102E3000FF4F90809C28908231969080C928C08254
:102E4000C93070F0FA01EB5AF04F4491FD01F3954F
:102E50005081542B5083AF5FBE4FEC91E42BEC9329
:102E60002A193B0949F0DC0F0F5FDA94DD2011F0DD
:102E700076957FCF019677CFDF91CF911F910F91FC
:102E8000FF90EF90DF90CF90BF90AF909F9008950C
:102E9000EF92FF920F931F93CF93DF93EA01FB0111
:102EA00077FD379653E0F595E7955A95E1F7F69556
:102EB000FE2FEE27F795E795E80FF11DE258FE4F3C
:102EC000CB0168E070E00E94C832DC01A45EBE4F16
:102ED0008C9190E0492F50E04217530720F5A12F25
:102EE000A695A695A695A770B0E0A45EBE4FB801C2
:102EF00064E0769F612D772711246E0D7F1D5C9114
:102F0000DB014C91452331F04081482B40834181C6
:102F1000482B4183880F19F4E058FF4F81E00C0FD4
:102F20001D1F9F5FD7CFDF91CF911F910F91FF9012
:102F3000EF90089565E070E080E090E00C94A61BAF
:102F4000FC0180916601811103C08FEF9FEF08950E
:102F50009FB7F89482E08093E9002091F20030E07E
:102F60001216130614F421E030E02115310559F052
:102F7000289884E6809365018091F1008083809198
:102F8000F200882319F09FBFC90108958BE6809352
:102F9000E800F9CF2FB7F89483E08093E90090918F
:102FA000E800892F807295FF04C09091F20080E4C0
:102FB000891B2FBF089580916B0181110DC082E0A4
:102FC0008093670184E08093680110926A011092F7
:102FD000690181E080936B0187E691E00895CF93CA
:102FE000DF931F92CDB7DEB76983DC01ED91FC91D1
:102FF0000280F381E02D41E050E0BE016F5F7F4F22
:1030000009950F90DF91CF91089583E08093E900B7
:103010008091F200882319F08AE38093E8000895F4
:10302000FC018485958597FD0BC09FB7F89482E0DD
:103030008093E9008091F2009FBF90E0019608958F
:103040009FB7F89482E08093E9008091F2009FBFDF
:1030500090E0089540917801509179012091760196
:103060003091770142175307B4F49091E8009570BE
:10307000E1F39091E80092FD19C08093F1008091F6
:1030800078019091790101968F739927892B19F412
:103090008EEF8093E80080917801909179010196FC
:1030A000909379018093780181E0089580E00895FC
:1030B000DF92EF92FF920F931F93CF93DF93D82E5F
:1030C0008A017B01E40EF51EEB01CE15DF0571F0E0
:1030D000D7FE03C0FE01849101C088810E942A1896
:1030E00021968111F2CF8FEF9FEF01C0C801DF91D0
:1030F000CF911F910F91FF90EF90DF900895615055
:1031000030F02091F100FC0120830196F8CF28983F
:1031100084E68093650108950E94CA1790E008959F
:10312000CF93DF931F92CDB7DEB7FC0184859585E1
:1031300097FD05C02FEF3FEF358724870BC0CE01E9
:1031400001960E94A017019719F4898190E002C0AE
:103150008FEF9FEF0F90DF91CF9108950F931F9303
:10316000CF93DF931F92CDB7DEB78C01FC0184852E
:10317000958597FF0EC0CE0101960E94A01701977A
:1031800019F4298130E002C02FEF3FEFF8013587B5
:103190002487F801848595850F90DF91CF911F9149
:1031A0000F9108950F931F93CF93DF931F92CDB785
:1031B000DEB782E0898342E450E067EA7CE180E8A0
:1031C0000E9458180E94DB17DC0112960D911C9189
:1031D00013970115110569F0D801ED91FC9102805A
:1031E000F381E02DBE016F5F7F4FC801099597FF06
:1031F00007C089810F90DF91CF911F910F910895A2
:10320000F80100851185E5CF1F920F920FB60F923E
:1032100011248F939F938091E1009091E100937F1F
:103220009093E10083FF0FC01092E90091E090932A
:10323000EB001092EC0092E39093ED001092660187
:1032400098E09093F00082FF20C093E09093E90013
:103250009091F200992319F09AE39093E8009091ED
:103260007A01992339F090917A01915090937A01E3
:10327000992389F190916501992339F09091650125
:10328000915090936501992341F184FF10C0809182
:10329000E2008E7E81608093E2008091E1008F7E6B
:1032A0008093E100809175018E7E806111C080FF66
:1032B00016C08091E2008E7E80618093E200809152
:1032C000E1008E7E8093E100809175018E7E8160A9
:1032D0008093750104C05D9ACDCF289AD6CF9F9177
:1032E0008F910F900FBE0F901F9018951F920F9205
:1032F0000FB60F921124CF92DF92EF92FF920F93AD
:103300001F932F933F934F935F936F937F938F936D
:103310009F93AF93BF93EF93FF93CF93DF93CDB77B
:10332000DEB76C97DEBFCDBF1092E9008091E80058
:1033300083FFEDC168E0CE0145960E947F1882EFC1
:103340008093E8008D8987FF05C09091E80090FF89
:10335000FCCF03C09EEF9093E800982F907609F081
:10336000C6C09E892F89188D91110CC0803829F410
:10337000809174018093F10002C01092F1001092CC
:10338000F10048C1422F50E0512B913051F481118E
:1033900041C14130510509F03DC1809174018D7FDB
:1033A0000BC0933061F4811135C14130510509F0F2
:1033B00031C1809174018260809374012BC195307A
:1033C00041F48091E80080FFFCCF20682093E30067
:1033D00021C1963009F05FC0EB8CFC8C1092E900A3
:1033E0001092790110927801123091F510927701C4
:1033F000109276010E94D21899E0BE016F5F7F4F54
:10340000DB01E92F1D92EA95E9F799831A8391E090
:103410009E8390EA98879AEF99872091780130915E
:103420007901275F3F4F3C832B838D831092E90006
:103430001092790110927801F0927701E092760172
:1034400049E050E080E00E9458180E94D218E2C083
:10345000F0927701E09276010E94DB17DC01129670
:10346000ED90FC901397E114F10409F4C0C0D7016A
:10347000ED91FC910480F581E02DBE016B5E7F4FE4
:10348000C7010995009719F00CF0C4C0C7C0F70137
:10349000E084F184E8CF973009F4C0C0983021F47B
:1034A00081E08093F100B6C0993009F0B3C0837019
:1034B00009F0B4C0E5E2F1E081E021E036E390817B
:1034C000992361F08093E9002093EB009191909310
:1034D000EC003093ED008F5F873089F78EE78093A3
:1034E000EA001092EA008F898093660193C08B8D69
:1034F0009C8D1092E90010927901109278019093BE
:10350000770180937601898D811156C08E899D89BE
:10351000913A59F4813209F081C047E050E064E00B
:1035200071E080E00E94581875C0913209F076C0B1
:10353000833289F4888D90E0982F88272F89822BF9
:10354000A0E0B0E08093000190930101A0930201FC
:10355000B09303015FC0803269F48091E80082FF7C
:10356000FCCF67E084E091E00E947F188BEF8093AE
:10357000E80006C0823209F04DC08F8980930B01AC
:1035800080917301882319F0EEEFFAE002C0E0E0C9
:10359000F8E08091040190910501A0910601B0919D
:1035A0000701803B9440A105B10509F07BC08091E3
:1035B0000B0180FF93C076C00E94DB17DC011296DE
:1035C0000D911C9113970115110541F1D801ED9151
:1035D000FC910190F081E02DBE016B5E7F4FC80130
:1035E0000995811117C0F80100851185ECCF1130C4
:1035F00009F44EC0133091F48F89882309F445C033
:10360000823081F440E867E08BE09DE10E94513216
:10361000882321F08EEF8093E80079C081E28093C7
:10362000EB0075C0813029F440E86BE08FEF9CE13E
:10363000EDCF833099F70E94DB17DC011296ED90F5
:10364000FC9013978E010F5F1F4F6801E114F10486
:1036500079F0D701ED91FC910680F781E02DB8015A
:10366000C7010995080F111DF701E084F184EECF21
:10367000D8011C92F60101900020E9F73197BF01B3
:103680006C197D0940E0C601C1CF69EE7CE102C042
:103690006DEE7CE16115710509F2FB01449150E08A
:1036A00080E840CF0FB6F894A895809160008861BB
:1036B00080936000109260000FBEA895EE3F2AE054
:1036C000F20739F08091FE0A9091FF0A918380837E
:1036D000A1CF1092FF0A1092FE0A9CCFEE3F8AE023
:1036E000F80731F0808191819093FF0A8093FE0A60
:1036F00087E797E7918380839BE088E10FB6F89492
:10370000A895809360000FBE9093600083CF6C9665
:103710000FB6F894DEBF0FBECDBFDF91CF91FF9102
:10372000EF91BF91AF919F918F917F916F915F9139
:103730004F913F912F911F910F91FF90EF90DF904C
:10374000CF900F900FBE0F901F9018958F929F9261
:10375000AF92BF92CF92DF92EF92FF926B017C010A
:103760000E9426214B015C01C114D104E104F10443
:10377000F1F00E942621DC01CB0188199909AA09E0
:10378000BB09883E9340A105B10570F321E0C21A40
:10379000D108E108F10888EE880E83E0981EA11C8C
:1037A000B11CC114D104E104F10419F7DDCFFF907D
:1037B000EF90DF90CF90BF90AF909F908F90089543
:1037C0008F929F92AF92BF92CF92DF92EF92FF9231
:1037D0000F931F93CF93DF935C016B017A0180916C
:1037E0000B01882309F45BC080916601882309F4EA
:1037F00056C08091750180FF05C08091E000826015
:103800008093E000E70110E00AEF83E0882E9AE35E
:10381000992E2097D9F10E94CA1781110AC0015030
:1038200009F43DC061E070E080E090E00E94A61BDA
:10383000F0CF282F30E0C217D3070CF48C2F4FB7EE
:10384000F8948092E9009091E80095FF1DC0282F20
:1038500030E0C21BD30BF601982F915020F08191DC
:103860008093F100FACFC20ED31E112319F090926B
:10387000E80009C08091E80085FD06C09092E8004C
:1038800011E0209709F010E04FBFC3CF1111C3CF53
:103890005D9884E680937A011E141F0444F081E051
:1038A00090E0F5019383828380E090E001C0C7013E
:1038B000DF91CF911F910F91FF90EF90DF90CF900C
:1038C000BF90AF909F908F900895EF92FF920F93CB
:1038D0001F93CF93DF9390E4899F80011124E0E44C
:1038E0006E9FB0011124FA0133818091830590917C
:1038F0008405213039F4432F50E0481B590B460F03
:10390000571F06C00196831B9109AC01461B570B3C
:10391000C0914D07D0914E07E0908105F09082054F
:10392000CA35D105C1F0EAE5F0E0EC1BFD0BEE0F66
:10393000FF1FE558F14EA591B4919A010E94E4321F
:10394000DC01CB0166E0B695A795979587956A95BA
:10395000D1F7BC010CC04115510539F4E016F10650
:1039600021F0B701601B710B02C060E070E0E091D4
:103970007C01F0917D019F012A553109243B3105DD
:1039800040F0E60EF71EC801CF968E159F0550F445
:1039900040C0E616F70608F43CC0E61AF70AE0163F
:1039A000F106B8F190918105EA35F10549F0243B23
:1039B000310518F0901B960F04C0961B901B01C098
:1039C0009F7390934A074115510529F470934C0752
:1039D00060934B071CC0EDE6FDE1EC1BFD0BE49191
:1039E000CA01A0E0B0E0BC01CD0126E0660F771F60
:1039F000881F991F2A95D1F72E2FEE0F330B440BFA
:103A0000550B0E942E3630934C0720934B0781E0D4
:103A100001C080E0DF91CF911F910F91FF90EF9057
:103A200008958F73E0914F07F0915007643B710543
:103A300040F4309711F0938101C09FE3981B892FC8
:103A40000895309711F09381891B0895962F9695CC
:103A500096959695E82FE695E695E695F0E028E0B0
:103A6000929FE00DF11D1124E25AFD4D9491677073
:103A70008770E82FF0E088E0689FE00DF11D1124C9
:103A800020E4929FE00DF11D1124E256F04E849146
:103A90002FEF3FEF30934C0720934B079FEF90930E
:103AA0004A070895CF93DF93D82FC62F0E94261D73
:103AB0001092500710924F0710927E058E3108F039
:103AC0005AC0E82FF0E0E55DFE4F9081993239F45D
:103AD0008091E70642EE56E0DA0166E00FC09A31C7
:103AE000B9F4F6CF2D91629F9001112421583A4FDD
:103AF000F901E759FE4F70817D1729F02A2F241B09
:103B0000281780F305C0319620812C13F7CF33C0DE
:103B10009F3099F5809149072FE735E090E06C2FB1
:103B200070E0F901E257FE4F981729F1D901A1572A
:103B3000BE4F4C91D41312C011964C91C41791F002
:103B400011965C91552351F050E04F5F5F4F641721
:103B5000750721F481E080937E0507C09F5F2A5F8F
:103B60003F4FDFCF8381882351F0F0935007E093DC
:103B70004F078FE005C080E003C0892F01C081E0BE
:103B8000DF91CF9108952F923F924F925F926F9263
:103B90007F928F929F92AF92BF92CF92DF92EF92DD
:103BA000FF920F931F93CF93DF93CDB7DEB7289784
:103BB0000FB6F894DEBF0FBECDBF5A01822E912CF6
:103BC0009C01280D391D37FDC4C0803891050CF0CB
:103BD000C0C09B01200F311D37FDBBC06034710593
:103BE0000CF0B7C0AB0177FF04C044275527461B34
:103BF000570B477055279B0177FF02C0295F3F4F46
:103C0000E3E035952795EA95E1F777FF08C0215065
:103C1000310968E070E0DB01A41BB50BAD01602F3A
:103C200066956695669570E0077011F06F5F7F4F3F
:103C3000DB01A20FB31FBA83A98339017694762CD6
:103C4000662477946794680E791EE12CF12C00E0CD
:103C500010E02301B0E84B0E511C68E070E0DB017E
:103C6000A41BB50BBC83AB8369817A812617370708
:103C700009F46FC02830310509F46BC02F3FBFEF46
:103C80003B070CF45BC0B201600F711FDB01A2584F
:103C9000BE4FBE83AD83D801A60DB71DA258BE4F3F
:103CA0006C0160E070E0681579050CF047C0E0E851
:103CB000CE16D10409F442C0D7FC34C02F3FFFEF29
:103CC0003F0709F442C0FB01EE0DFF1DEA0DFB1D8D
:103CD000E491042E01C0EE0F0A94EAF73C90E32928
:103CE000EC9341155105F1F027303105D9F0FB0176
:103CF000EE0DFF1DEA0DFB1DE4912E2E312CF1017E
:103D00000B8002C0F595E7950A94E2F7F887EF83F8
:103D1000ED81FE813080EF81F885E3291F01ED817F
:103D2000FE8120826F5F7F4FED81FE813196FE83A1
:103D3000ED83FFEFCF1ADF0A1196B5CF2F5F3F4F0C
:103D400000581F4FE80CF91C8FCF4115510579F62B
:103D5000E9CF28960FB6F894DEBF0FBECDBFDF9136
:103D6000CF911F910F91FF90EF90DF90CF90BF9078
:103D7000AF909F908F907F906F905F904F903F900B
:103D80002F900895EF92FF920F93CF93C82F7B014E
:103D9000F70144914423E1F0403231F0413614F40C
:103DA000405303C0475501C044E283E04802A001EC
:103DB0001124415D504E08E023E061E070E08C2F5B
:103DC00090E00E94C31DCC5FEFEFEE1AFE0AE0CF39
:103DD0008C2FCF910F91FF90EF900895CF92DF92AB
:103DE000EF92FF920F93CF93C82F6A01E62EF12C2A
:103DF000F60121916F01222389F0205383E02802EC
:103E000090011124A901415D504E08E023E0B70163
:103E10008C2F90E00E94C31DCC5FEACFCF910F9111
:103E2000FF90EF90DF90CF900895CF93DF93AC0198
:103E3000C7E0D0E06CE270E08CE290E0AAE5B0E090
:103E4000B695A795219731F18A35910508F5FC01C2
:103E5000EE0FFF1FE558F14E2591349124173507D9
:103E600050F49D012F5F3F4F36952795280F391F3E
:103E7000BC01C901E5CF4217530760F49D012F5FD4
:103E80003F4F36952795BC01621B730B9B01F0CF0A
:103E900089E590E09C01220F331F2558314EF9012E
:103EA000A591B491F901A417B50729F0A591B49192
:103EB000A41BB50B05C025913491DA01A21BB30BED
:103EC0009B01220F331F2558314EF901C591D49122
:103ED000F901C417D50739F025913491F901E41B94
:103EE000F50BAF0104C025913491421B530B4A17C7
:103EF0005B0708F4CB01DF91CF910895BF92CF9279
:103F0000DF92EF92FF920F931F93CF93DF93082FCF
:103F1000F62E142FE9010E94261DE82F8E3120F481
:103F2000F0E0E55DFE4FE0811E1614F080E0CCC0AD
:103F3000E93239F44091E70662EE76E0CB0156E0D3
:103F400011C0EA31C9F4F6CFDC012D91CD01529FA9
:103F50009001112421583A4FD901A759BE4FFC9125
:103F6000F01729F0282F261B241770F305C011968F
:103F70002C912F11F7CFDACFEF3011F08E2FA4C094
:103F8000B12C86E0E82E80914907B81678F6AB2D63
:103F9000B0E0EA9E9001EB9E300D112421583A4F7B
:103FA000F901E057FE4F808131979081091360C07D
:103FB000682F70E08F15B1F0349680818F1508F46A
:103FC00057C031978081F81608F452C09B0146E033
:103FD000220F331F4A95E1F7215C3F4F81E02C17F8
:103FE0003D0708F080E0680F711D20917C01309141
:103FF0007D01243B310514F023E001C021E0EA9E5D
:10400000A001EB9E500D1124FA01E35FF84F6F0100
:10401000FA01E05FF84F9081FB0136E0EE0FFF1FE1
:104020003A95E1F7E90FF11D213091F481110AC0B1
:10403000EC17FD07F8F0A601802F0E94651C88236D
:10404000B9F018C0EC17FD0708F470CF91E013C069
:10405000882351F0CE17DF07C8F3A601802F0E94F6
:10406000651C882329F0F2CFCE17DF0718F45ECF46
:10407000B39489CF90E0D60113968C9180937B0105
:1040800020914A072F3F99F481110BC09E012F5FA9
:104090003F4F2F733327232B21F41F7310934A07AD
:1040A00006C0CF73C81B9111C05CC0934A078091B2
:1040B0004A0780341CF08FE380934A0780914A07B7
:1040C00087FD10924A078FE0DF91CF911F910F91EA
:1040D000FF90EF90DF90CF90BF9008959F92AF92A6
:1040E000BF92CF92DF92EF92FF920F931F93CF93E5
:1040F000DF931F92CDB7DEB76B015A01602F822F7D
:1041000029830E94521D982EB701C6010E94111DDD
:10411000182F2981911027C084EBE816F10410F4C0
:1041200061E001C06FEF600F822F0E94521D982E38
:10413000EFE08E1315C0212F30E0B701C601F4EB7C
:10414000EF16F10420F40196820F931F03C001972C
:10415000821B930B0E94111D180F803120F405C0A3
:10416000811103C0105C90E001C092E020918705AE
:10417000022E000C330B215F3F4F412F50E02417DC
:104180003507CCF0113160F020EF210F30E0F4EB77
:10419000EF16F10418F4C20ED31E02C0C21AD30ADD
:1041A000F501D182C082FFE09F1205C080915407C3
:1041B000816080935407892F103108F481600F903B
:1041C000DF91CF911F910F91FF90EF90DF90CF90F3
:1041D000BF90AF909F900895CF92DF92EF92FF92A1
:1041E0000F931F93CF93DF936C017A018B01C0E093
:1041F000D0E0CE15DF0589F0D8016D918D01D60193
:10420000ED91FC910190F081E02DC6010995892B7B
:1042100011F47E0102C02196ECCFC701DF91CF914E
:104220001F910F91FF90EF90DF90CF900895089528
:10423000089580E090E008950E94F1328FB180955A
:10424000807F669B88601C9B846008953FB7F894CC
:104250008091B5079091B607A091B707B091B807C4
:1042600026B5A89B05C02F3F19F00196A11DB11DD1
:104270003FBFBA2FA92F982F8827820F911DA11D0C
:10428000B11DBC01CD0142E0660F771F881F991F49
:104290004A95D1F708951F920F920FB60F921124ED
:1042A0002F933F938F939F93AF93BF938091B007CA
:1042B0009091B107A091B207B091B3073091B407C4
:1042C00023E0230F2D3720F40196A11DB11D05C059
:1042D00026E8230F0296A11DB11D2093B4078093F9
:1042E000B0079093B107A093B207B093B307809142
:1042F000B5079091B607A091B707B091B80701969E
:10430000A11DB11D8093B5079093B607A093B70781
:10431000B093B807BF91AF919F918F913F912F912B
:104320000F900FBE0F901F901895CF93DF93CDB7CE
:10433000DEB7C054D1090FB6F894DEBF0FBECDBFB3
:10434000789484B5826084BD84B5816084BD85B570
:10435000826085BD85B5816085BD80916E0081607C
:1043600080936E0010928100809181008260809322
:104370008100809181008160809381008091800024
:104380008160809380008091910082608093910091
:104390008091910081608093910080919000816074
:1043A000809390008091C10084608093C1008091CF
:1043B000C10082608093C1008091C10081608093C0
:1043C000C1008091C30081608093C3008091C000D0
:1043D00082608093C0008091C20081608093C2009F
:1043E00080917A00846080937A0080917A00826064
:1043F00080937A0080917A00816080937A00809126
:104400007A00806880937A0010926601109274019D
:10441000109275018091D70081608093D70080EA67
:104420008093D80089B5806189BD89B5826089BDD6
:1044300009B400FEFDCF61E070E080E090E00E94F2
:10444000A61B8091D8008F7C80618093D8008091DA
:10445000E000807F8093E0008091E1008E7E809379
:10446000E1008DE08093E200559A209AEEEFFFE79D
:10447000859194918B3F9C4D19F481E08093730159
:1044800081E280935C0781EC80937C0085B1806F32
:1044900085B984B1877E84B984B1876E84B95E9A08
:1044A0005F988AB1806D8AB9769A6E9881B3806F71
:1044B00081BB899880B38D7080BB80E58CBD81E025
:1044C0008DBD0E949A175F9A0E949A175E985C9819
:1044D000ECE8FDE08DE08E0F94919EBD00000DB4E0
:1044E00007FEFDCF31968E13F7CF5C9A81E880935B
:1044F0006400809165008160809365000E941E21A8
:1045000087FF0AC08091640080628093640081E02C
:1045100083BF889513BEFCCF86ED93E09093820510
:104520008093810580E992E09093840580938305D0
:1045300088E0809387051092880510928605109276
:10454000850581E280938A051092890581E0809338
:104550008B0510928C0510928D0510928E0510928D
:104560008F05109290051092910510929C0588EF8E
:1045700080939D0510929E0510929F0510929305C1
:1045800010929B05109294051092990585E0E2EE39
:10459000F6E0DF011D928A95E9F71092E706109286
:1045A000060710920C071092D60610924907109237
:1045B00051071092520770E2A72EB12C712CE6E041
:1045C0005E2E33243394FFE16F2EAAE02A2EB0E250
:1045D0009B2E8BE1C82ED12C40E2E42EF12C812CB5
:1045E00098E050E1452E78EF672D882D7DAF9EAF86
:1045F0000E94261D26EE280F7DAD9EAD2430B8F515
:1046000040910607453098F521E0240F20930607D6
:1046100050E0549E9001559E300D112421583A4F80
:10462000F901E759FE4F80823196708231961082EF
:1046300031961082329610828B3111F08D3141F417
:10464000549EF001559EF00D1124E351F94F308234
:1046500024EE280F223058F4549E9001559E300DC0
:104660001124F901E351F94F30813260308387FF23
:1046700051C04091D6064A3008F04CC021E0240FCA
:104680002093D60650E0649E9001659E300D112463
:10469000F901E056FA4FDF01662D1D926A95E9F7A0
:1046A000F901E158FA4FF2A2E1A2B4A2A3A232AA00
:1046B00085AB803811F444A603C0813821F474A777
:1046C00095A696A615C02AE7280F273020F494A7B0
:1046D00045A646A60DC0823859F412AA25A216A2F4
:1046E00012A611A614A695A696A6D0AAC7A611AA88
:1046F0008058E82FF0E0EE0FFF1FE756F24F2591AC
:104700003491649EF001659EF00D1124E354FA4F3C
:1047100031832083839480E4E80EF11CA0E48A12A4
:1047200063CF7394B0E4AB0EB11C7A1255CF92E014
:10473000E12CA6E0DA2EBB24B394B1E1AB2E89E0E4
:10474000982E25E0822EF12CF3E0CF2E6F2D8E2DAA
:104750009EAF0E94261D9EAD8E3108F080C0E82FCE
:10476000F0E0E55DFE4F20812F3009F075C09230FA
:1047700009F041C0409149074A3008F074C091E007
:10478000940F9093490750E0D49E9001D59E300D30
:1047900011248901035F184F21583A4FF901E2575C
:1047A000FE4F10828F30B1F0B082D901A157BE4FB9
:1047B000EC921196FC92823111F4C0820BC08331CD
:1047C00011F4808207C0843111F4908203C08531D6
:1047D00009F4A082D49EC001D59E900D1124815869
:1047E0009A4FFC01EE56FE4FF0823196F0823297DE
:1047F000108291E034C0913089F58F30E1F0823140
:1048000021F4F801908192600CC0833129F4D80121
:104810009C9194609C9306C0843131F4F80190819E
:104820009860908392E007C092E0853121F4D8012E
:104830002C9120612C932EEE280F243020F4F801C7
:10484000E182F28206C0813121F4D8018C918A6024
:104850008C93F801F58203C092E001C090E0F394DC
:10486000F0E4FF1273CFE39430E4C32EEC106BCF6F
:104870000E94B4138FB7F8944091B0075091B107DC
:104880006091B2077091B3078FBF80915D07D42EFE
:10489000D81A8D2D90915E07992331F0D0925F0741
:1048A00010925E070C946A2E90915C07D91658F40A
:1048B0008F5F891710F00C946A2E81E083BF889572
:1048C00013BE0C946A2E11E010935E0740935D07AF
:1048D00080915807909159070196909359078093BA
:1048E000580780915A0780935B070E941E2180938E
:1048F0005A070E94B4138FB7F894A090B007B090F5
:10490000B107C090B207D090B307ABAABCAACDAA9A
:10491000DEAA8FBF809151078F7069F48091540790
:1049200080FF07C01093520780918A058A508093B8
:104930008A051092540780915207882381F081E004
:10494000EEE7F1E081118FEF002481938193819351
:1049500081930394D1F7109252070C945B2E8091AF
:10496000920587FD815F282F25952595259525950D
:104970008091850590918605820F911D27FD9A955E
:1049800097FF03C088599E4F06C0883601E0900704
:1049900014F0885691409093860580938505E090A9
:1049A0008505F09086051AE5E116F10420F428E962
:1049B000E21A2EEFF20A3AE5E31AF1088091930524
:1049C0008823A1F090919405992319F09450909325
:1049D00094059091940591311CF040E24E8F02C0F5
:1049E00050E15E8F81508093930513C00E941E2179
:1049F00082FF0AC080E4809394058AE18093930546
:104A00001E8E61E06D8F06C080919E058093940597
:104A10001E8E1D8E0E941E2183FF8AC0E091850597
:104A2000F0918605ED5EF24EE49140918105509142
:104A300082054E0F511DE7FD5A95F701ED5EF24ECE
:104A4000E49120918305309184052E0F311DE7FDFF
:104A50003A95CA0166E0969587956A95E1F7182F11
:104A6000B901E6E076956795EA95E1F7062F0E9491
:104A70007E1F8A3109F04BC09091060780E0E8EE76
:104A8000F6E0891709F454C0208121133DC021812B
:104A900020133AC09581292F227091FF18C0909160
:104AA0009005911114C0E5EAFCE1859194919093F1
:104AB000960580939505E5E9FCE1859194919093A5
:104AC00098058093970588E78093990531C0928176
:104AD00091112EC0222341F0909190059150909316
:104AE000900595819D7F958391E0928313829FE34A
:104AF0009483E0910C0791E09E0F90930C07F0E0F7
:104B0000E95FF84F808314C036968F5FBACF8091EB
:104B10009B0581110AC08091890590E00196837000
:104B20009927809389058FE001C0815080939B0570
:104B300088E08093870503E815E021E835E040919F
:104B40009105B70180918505909186050E941E12FE
:104B500080904907609081057090820520918305BF
:104B60003091840590915407BFE02B2EB7E03B2E87
:104B7000E0E1F7E06DE077E00FE715E0B12C80E4CD
:104B8000982EB81409F489C0DB01FC904F2D50E039
:104B900055954795842F8F70BF2DB170AB2E4081F6
:104BA000F0FE16C0480F403411F0408305C010825B
:104BB000D1014C914F5F4C93D101EC90A8014D561F
:104BC0005E4FDA014C91E4121CC04F2D4E7F17C08E
:104BD000411105C09082D1014C9141504C93E0802D
:104BE000E81AE082D101DC90A8014E565E4FDA014E
:104BF0004C91D41206C0E11004C04F2D4160DB017E
:104C00004C93D101FC90408150E0B0E4FB9E400DFC
:104C1000511D11247A01AFE3EA0EF11C6801B1E7DE
:104C2000CB1ABEEFDB0AD6015C906901B0E1CB0E76
:104C3000D11C4C155D0518F4CE14DF0450F0690149
:104C4000A0E1CA1AD1084C155D05E8F4CE14DF04C2
:104C5000D0F4B0E45B9EA00111247A01A0E1EA1A2D
:104C6000F108E614F70478F4405B5F4F64167506AC
:104C700050F4482F50E0AA2019F0240F351F02C02D
:104C8000241B350B9160B394B6E02B0E311C0A5FE8
:104C90001F4F36966A5F7F4F74CF30938405209301
:104CA0008305909354072090850530908605C101B7
:104CB00080975C01990FCC08DD08AF8AB88EC98E49
:104CC000DA8ED7FE0AC09601850108591E4F2F4F74
:104CD0003F4F0F8B188F298F3A8F10E2210E311C16
:104CE000032C000C4408550828E6221621E0320661
:104CF0004104510434F038E6231A31E0330A410804
:104D0000510820919C0580919E05082E000C990B5E
:104D1000820F911D27FD9A955C0134E0B594A7940C
:104D20003A95E1F7BFA2AEA21092E106E12C4FE165
:104D3000F42E8091D606E81608F04AC2CE2CD12C6B
:104D4000FC9CF001FD9CF00D1124E158FA4F82A962
:104D500081FD3CC2A0908105B090820581A192A105
:104D6000A816B90630F48C010A191B09580181E014
:104D700003C0A81AB90A82E0809083059090840548
:104D8000FC9CF001FD9CF00D1124E158FA4F23A189
:104D900034A18216930638F4A901481959094A0129
:104DA00024E0722E04C0821A930A98E0792E780EBD
:104DB000A814B904D0F4C40106E0880F991F0A951D
:104DC000E1F752E0A516B10420F0B5010E94B4321B
:104DD000CB010E94151F0AE510E0081B190BF80112
:104DE000ED5EF24EE491C40119C0C50116E0880FD2
:104DF000991F1A95E1F762E08616910420F0B4013C
:104E00000E94B432CB010E94151F8C01EAE5F0E04C
:104E1000E81BF90BED5EF24EE491C501A0E0B0E0B5
:104E2000BC01CD01B6E0660F771F881F991FBA95A8
:104E3000D1F72E2FEE0F330B440B550B0E942E365D
:104E400075E0771206C08AE590E0801B910B8C011B
:104E500011C096E0791203C0065A1F4F0BC0A9E09B
:104E60007A1203C0025F1E4F05C0EEE0F1E0E01BC6
:104E7000F10B8F01FC9CF001FD9CF00D1124E15819
:104E8000FA4F96A446E6949E30011124C3019595ED
:104E90008795959587958217930708F497C12115F3
:104EA000310509F493C185A5869550E4859FC0011D
:104EB0001124B9010E94B432762F49E050E0F3EB9F
:104EC000AF2EB12C83EB90E0A8E6B1E0B695A795A4
:104ED0004150510901F18836E1E09E07D0F4FC0110
:104EE000ED5EF24EE491E7174CF4FD013196F69534
:104EF000E795E80FF91F5C01CF01E8CF7E175CF45E
:104F0000FD013196F695E7955C01AE1ABF0AF501F1
:104F1000F2CF87E691E0FC01ED5EF24E7491462FF0
:104F2000660F550B672F770F770B641B750B1616E3
:104F300017063CF4A4910A2E000CBB0BA41BB50B66
:104F400006C0E491DA01AE1BB109E7FDB395F501A6
:104F5000ED5EF24E6491062E000C770B641B750B10
:104F6000161617064CF4E4910E2E000CFF0BBF0131
:104F7000641B750BAB0105C0E4914E1B5109E7FDA5
:104F800053954A175B070CF4C5016AE570E00E946F
:104F9000C8326F89788D681B790B77FF02C068591A
:104FA0007E4FAC01420D531D4836A1E05A0714F064
:104FB00048565140061717075CF0605C7F4FFC01B4
:104FC000EE0FFF1F6E0F7F1FA1E0601771070CF43B
:104FD000A0E0401751074CF040545109880F991F29
:104FE000481B590B041715071CF4AA2309F465C0C4
:104FF000FC9CF001FD9CF00D1124E158FA4F82A9B0
:1050000080FD5AC007A4F0A9E02DE43BF105A0F013
:10501000A8014E1B5F0BCA018C549F4FBF01645BFC
:1050200071096017710710F50E171F07F8F484EB6C
:1050300090E0841B950B1AC0E017F10748F4CF01EC
:105040008C549F4F0817190718F4801B910B0EC042
:10505000C8018C549F4F68E671E00E94B4328E1BE9
:105060009F0BE8E6F1E0E81BF90BCF01AC014D52D4
:1050700051094E30514048F0FC9CF001FD9CF00D70
:105080001124E158FA4F11AA17C0FC9CF001FD9CB5
:10509000F00D1124E158FA4F8738910520F4AA2425
:1050A000A394A1AA09C0813E910520F4A2E0BA2EE2
:1050B000B1AA02C043E041ABA1E0FC9CF001FD9C21
:1050C000F00D1124E158FA4F13A630A727A312A719
:1050D00001A7AA2309F47AC0A92CB12CC301B901F4
:1050E0000E94B4328B0175AF64AF84A5882349F068
:1050F00056E68502C0011124B9010E94C8329B0105
:1051000002C020E030E0C501982F8827990F990F41
:10511000990F81509440B801615071090E94B432D6
:10512000FC9CF001FD9CF00D1124E158FA4F73AF87
:1051300062AF11AE10AE88E390E0801B910B97FD3B
:10514000019695958795820F931FAEA0BFA08A0DFB
:105150009B1DFC9CF001FD9CF00D1124E158FA4FC1
:1051600097AB86AB97FF13C044275527481B590BB5
:10517000469F9001479F300D569F300D112431AF4F
:1051800020AF800F911F95AF84AF17AA16AAFC9C81
:10519000F001FD9CF00D1124E158FA4F26A937A922
:1051A00084AD95AD820F931FC99734F088E390E0EA
:1051B000821B930B95AF84AFE091E10681E08E0FE7
:1051C0008093E106F0E0E952F94FE082E394B1CD3B
:1051D0003091E10680E0831798F4882359F0E82F96
:1051E000F0E0DF01A952B94F9C91EA52F94F2081BA
:1051F000921710F08F5FEFCF2C9390838150EBCFFD
:10520000CF88D88CD0927D01C0927C01109264012D
:10521000198A188A80916401803408F0BCC44091D6
:105220007C0150917D0150934E0740934D07209093
:10523000810530908205810160908305709084051E
:10524000D72CDD0C67FCD394DD0C66FCD394DC8E8C
:10525000E32CEE0C27FCE394EE0C26FCE394ECA28A
:105260004A3551050CF050C04115510509F473C180
:10527000C3018F73992720E430E0281B390BEAE53E
:10528000EE2EF12CE41AF50AF701EE0FFF1FBF0115
:105290006558714E7B01FB01A591B4910E94E432E7
:1052A000DC01CB0126E0B695A795979587952A95C1
:1052B000D1F7280E391EF701A590B490B986A886BB
:1052C0000F73112720E430E0201B310B440F551FD2
:1052D0004558514EFA01A591B4910E94E432DC0187
:1052E000CB0176E0B695A795979587957A95D1F7F6
:1052F000680E791EFA01459054901D8201E00F83DB
:105300001E8A11E01C8725C1443B51050CF060C08A
:10531000E4EBF0E09F01241B350BA90130934E070D
:1053200020934D072A35310509F41EC1C3018F733F
:10533000992720E430E0281B390B8AE5E82EF12C70
:10534000E41AF50AF701EE0FFF1FBF016558714E11
:105350007B01FB01A591B4910E94E432DC01CB01F9
:1053600026E0B695A795979587952A95D1F7281A9F
:10537000390AF70185919491AA24BB24A81AB90A85
:10538000B986A88698012F7333272F5F3F4F440FAC
:10539000551F4558514EFA01A591B4910E94E4322F
:1053A000DC01CB0176E0B695A795979587957A9520
:1053B000D1F7680E791EFA014590549001E00D83F3
:1053C00011E01F8302E00E8B1FEF1C8701E0C1C0BC
:1053D0004E3021E052070CF060C07A0134EBE31A42
:1053E000F108F0924E07E0924D07E114F10409F440
:1053F000C7C093012F7333272F5F3F4FEEE0F1E0DB
:10540000BF01641B750BAB01440F551F4558514E2E
:10541000FA01A591B4910E94E432DC01CB01F6E0DF
:10542000B695A79597958795FA95D1F7281A390AD1
:10543000FA0185919491AA24BB24A81AB90AB986C5
:10544000A88698012F7333272F5F3F4FF701EE0F88
:10545000FF1FAF014558514EFA01A591B4910E942A
:10546000E432DC01CB0116E0B695A79597958795B8
:105470001A95D1F7681A790AFA0185919491442412
:105480005524481A590A01E00D831F8214E01E8B2F
:105490000FEF0C871FEF1B878BC0E8E6F1E09F0141
:1054A000241B350BA90130934E0720934D072A3555
:1054B000310509F471C093012F7333272F5F3F4FDC
:1054C000AAE5EA2EF12CE41AF50AF701EE0FFF1F08
:1054D000BF016558714E7B01FB01A591B4910E94FB
:1054E000E432DC01CB0126E0B695A7959795879528
:1054F0002A95D1F7280E391EF701A590B490B986E8
:10550000A8860F73112720E430E0201B310B440FD5
:10551000551F4558514EFA01A591B4910E94E432AD
:10552000DC01CB0176E0B695A795979587957A959E
:10553000D1F7681A790AFA01859194914424552487
:10554000481A590A1D821F8206E00E8B11E01C8743
:105550000FEF0B872DC01D8211E01F831E8A01E013
:105560000C87412C512C21C001E00D8311E01F83D9
:1055700002E00E8B1FEF1C87412C512C01E00AC06A
:1055800011E01D831F8204E00E8B1FEF1C87412C4E
:10559000512C0FEF0B870AC01D821F8216E01E8B55
:1055A00001E00C87412C512C1FEF1B8719861886B0
:1055B000AB84BC8CAB0CAF86CC84DCA0CD0CCA8693
:1055C00080914D0790914E07EAE5F0E0E81BF90B5A
:1055D000ED5EF24EE490E9A6FC01ED5EF24EF49031
:1055E000FAA68885998597FD01968C0115950795F2
:1055F0001CA70BA70B8510E2010250011124BEA6C7
:10560000ADA6C20157FC01965C01B594A794B8AA57
:10561000AFA60C8510E2010260011124DAAAC9AA22
:105620001DA21BA218A6A9A40A2C000CBB08B8A294
:10563000AF8ECAA40C2C000CDD08DAA2C9A2FC8C27
:10564000EF2CF12CFCAEEBAE032D000F27FC0395E5
:10565000000F26FC03950B8F80917C0190917D01BA
:10566000009709F449C0843B910509F44CC01DA181
:10567000111186C36C8D8CA10E94261D8E3108F0FD
:105680007FC3E82FF0E0E55DFE4F80818F3009F0A9
:1056900077C37091490740917C0150917D018FE75C
:1056A00095E060E0671709F46BC3FC01E257FE4F19
:1056B000DC01AF56BE4F2C912223D9F012972C91CA
:1056C000ACA0A21216C011962C91BC8CB21669F037
:1056D00030E02F5F3F4FCBACDCACC216D30649F4B1
:1056E000443B510534F061E000C3443B51050CF4E8
:1056F000FBC26F5F0696D6CF0FEF1FEF4FEF5FEF46
:105700005E874D8706C00FEF1FEF6FEF7FEF7E873D
:105710006D871E8292C01F8500E4109FA001112496
:105720000B850F3F11F4415C5F4F00918105109193
:105730008205021513050CF061C36101C01AD10A7C
:10574000E0918305F0918405E417F50708F05AC34A
:105750009A012E1B3F0BAF8DB8A10E94E4324B0182
:105760005C0186E0B694A794979487948A95D1F7C4
:105770009601A9A1BAA10E94E432DC01CB0126E086
:10578000B695A795979587952A95D1F76401C80E88
:10579000D91EDE86CD862E812A3109F03FC38BA526
:1057A0009CA5820D931DADA4BEA44A0D5B1D6A018C
:1057B000E12CF12CCA8ADB8AEC8AFD8A4801A12CF3
:1057C000B12C6C01092E000CEE08FF088C149D040E
:1057D000AE04BF040CF01AC36C01C01AD10ACF0189
:1057E000A0E0B0E0EA88FB880C891D898E159F0532
:1057F000A007B1070CF00EC39A012E1B3F0BAF8D13
:10580000B8A10E94E4324B015C01F6E0B694A79483
:1058100097948794FA95D1F79601A9A1BAA10E940D
:10582000E432DC01CB0116E0B695A79597958795F4
:105830001A95D1F78401080F191FE72CEE0C67FCAD
:10584000E394EE0C66FCE39480917C0190917D01E1
:105850008A35910509F410C18E30914009F40CC1CC
:105860008C858130B9F49301488959896E2D8A85D8
:105870000E947E1F982E811124C09A859F5F9A876F
:10588000640C751CE72CEE0C67FCE394EE0C66FCD4
:10589000E394E9CF9301488959896E2D8A850E9446
:1058A0007E1F982E81110DC0AA85A150AA87640C75
:1058B000751CE72CEE0C67FCE394EE0C66FCE3949D
:1058C000E9CFAA8420E4A29E50011124B98AA88AB3
:1058D0002C852F3F29F4A501415C5F4F598B488BE4
:1058E000C0908105D0908205A888B988CA14DB04CD
:1058F00018F4AC18BD0805C0560128893989A21AC8
:10590000B30A409183055091840521965FAF4EAF55
:1059100021974615570524F49301241B350B06C027
:1059200021962EAD3FAD219726193709AF8DB8A12D
:105930000E94E4329B01AC0176E05695479537957D
:1059400027957A95D1F72A8B3B8B4C8B5D8B9501F4
:10595000A9A1BAA10E94E432DC01CB01E6E0B69530
:10596000A79597958795EA95D1F7EA89FB89E80F7E
:10597000F91F3AE193125EC06FA578A9660D771DF5
:10598000CB01072E000CAA0BBB0B8A8B9B8BAC8B1D
:10599000BD8B88899989A9A8BAA88A0D9B1D460143
:1059A000A12CB12C9C0140E050E082169306A40685
:1059B000B5062CF4AC014C195D096A0102C0C81A85
:1059C000D90A2196AEACBFAC2197C501A0E0B0E0EA
:1059D0002A893B894C895D8982179307A407B507FB
:1059E00024F49B012A193B0906C021962EAD3FAD38
:1059F0002197261B370BAF8DB8A10E94E4324B01D3
:105A00005C0156E0B694A794979487945A95D1F781
:105A10009601A9A1BAA10E94E432DC01CB0166E0A3
:105A2000B695A795979587956A95D1F79401280F14
:105A3000391F14C03FE093120DC0A0904A07ABA2DB
:105A4000C0904B07D0904C072FEFC216D206F9F04A
:105A500096011EC059E29F01951206C00217130756
:105A600008F4F3C149E2942E4E814A31E9F420173B
:105A7000310708F4F5C109C03E813A3109F00CC57F
:105A8000912C2FEF3FEFEFEFFFEF4AE1EEC19F01C7
:105A90004E814F3049F7AD84BE84AE16BF0621F467
:105AA0006FEF7FEF7E876D87AD84BE84EA15FB05BF
:105AB000D8F06801E12CF12CCA8ADB8AEC8AFD8AD5
:105AC0004E814F3009F4E0C1C10160E470E00E94F2
:105AD000C832B82E4D815A85AF80AD829E80EF844A
