:100000000C943E110C9466110C9466110C946611BC
:100010000C9466110C9466110C9466110C94661184
:100020000C9466110C9466110C94B2180C9424195B
:100030000C9466110C9466110C9466110C94661164
:100040000C9466110C9466110C9466110C94661154
:100050000C9466110C9466110C9466110C94F820A3
:100060000C9466110C9466110C9466110C94661134
:100070000C9466110C9466110C9466110C94661124
:100080000C9466110C9466110C9466110C94661114
:100090000C9466110C9466110C9466110C94661104
:1000A0000C9466110C9466110C946611000080404B
:1000B0002020202020202020A060E000003F2121DF
:1000C000212121212121213F20100F000000C0E02B
:1000D000F0F0E0C0E0F0F0E0C00000000000010738
:1000E0000F1F3F3F3F1F0F070100000000000000EF
:1000F00000000000000000000000000000003C4084
:10010000403040403C00001C10780000000000001F
:1001100000000000000000000000000000003C4063
:10012000403040403C000044547C0000000000008F
:1001300000000000000000000000000000003C4043
:10014000403040403C000074545C0000000000005F
:1001500000000000000000000000000000003C4023
:10016000403040403C000000087C000000000000DF
:10017000000000000000008080800000041C040CCF
:10018000041C0404040E1F3131311F0E0000000056
:1001900000000000000080C0E0F0F0F0F0F0F0E0BF
:1001A000C08000000000000000000000000000000F
:1001B0000000000000000F1F3F7E76EFEF767E3FCD
:1001C0001F0F000000000000000000000000000001
:1001D00000000000000010180C06FFFFFFFF060CD7
:1001E00018100000000000000000000000000000E7
:1001F0000000000000202030180C070303070C1833
:10020000302020000000000000000000000000007E
:1002100000000000000080C0E0F0F0F0F0F0F0E03E
:10022000C08000000000000000000000000000008E
:100230000000000000000F1F3F7E76EFEF767E3F4C
:100240001F0F000000000000000000000000000080
:1002500000000000000010180C06FFFFFFFF060C56
:100260001810000000000000000000000000000066
:100270000000000000202030180C070303070C18B2
:1002800030202000000000000000000000000000FE
:1002900000000000000080C0E0F0F0F0F0F0F0E0BE
:1002A000C08000000000000000000000000000000E
:1002B0000000000000000F1F3F7E76EFEF767E3FCC
:1002C0001F0F000000000000000000000000000000
:1002D00000000000000010180C06FFFFFFFF060CD6
:1002E00018100000000000000000000000000000E6
:1002F0000000000000202030180C070303070C1832
:10030000302020000000000000000000000000007D
:1003100000000000000080C0E0F0F0F0F0F0F0E03D
:10032000C08000000000000000000000000000008D
:100330000000000000000F1F3F7E76EFEF767E3F4B
:100340001F0F00000000000000000000000000007F
:1003500000000000000010180C06FFFFFFFF060C55
:100360001810000000000000000000000000000065
:100370000000000000202030180C070303070C18B1
:1003800030202000000000000000000000000000FD
:1003900000000000000080C0E0F0F0F0F0F0F0E0BD
:1003A000C08000000000000000000000000000000D
:1003B0000000000000000F1F3F7E76EFEF767E3FCB
:1003C0001F0F0000000000000000000000000000FF
:1003D00000000000000010180C06FFFFFFFF060CD5
:1003E00018100000000000000000000000000000E5
:1003F0000000000000202030180C070303070C1831
:10040000302020000000000000000000000000007C
:1004100000000000000080C0E0F0F0F0F0F0F0E03C
:10042000C08000000000000000000000000000008C
:100430000000000000000F1F3F7E76EFEF767E3F4A
:100440001F0F00000000000000000000000000007E
:1004500000000000000010180C06FFFFFFFF060C54
:100460001810000000000000000000000000000064
:100470000000000000202030180C070303070C18B0
:1004800030202000000000000000000000000000FC
:1004900000000000000080C0E0F0F0F0F0F0F0E0BC
:1004A000C08000000000000000000000000000000C
:1004B0000000000000000F1F3F7E76EFEF767E3FCA
:1004C0001F0F0000000000000000000000000000FE
:1004D00000000000000010180C06FFFFFFFF060CD4
:1004E00018100000000000000000000000000000E4
:1004F0000000000000202030180C070303070C1830
:10050000302020000000000000000000000000007B
:1005100000000000000080C0E0F0F0F0F0F0F0E03B
:10052000C08000000000000000000000000000008B
:100530000000000000000F1F3F7E76EFEF767E3F49
:100540001F0F00000000000000000000000000007D
:1005500000000000000010180C06FFFFFFFF060C53
:100560001810000000000000000000000000000063
:100570000000000000202030180C070303070C18AF
:1005800030202000000000000000000000000000FB
:1005900000000000000080C0E0F0F0F0F0F0F0E0BB
:1005A000C08000000000000000000000000000000B
:1005B0000000000000000F1F3F7E76EFEF767E3FC9
:1005C0001F0F0000000000000000000000000000FD
:1005D00000000000000010180C06FFFFFFFF060CD3
:1005E00018100000000000000000000000000000E3
:1005F0000000000000202030180C070303070C182F
:10060000302020000000000000000000000000007A
:1006100000000000000080C0E0F0F0F0F0F0F0E03A
:10062000C08000000000000000000000000000008A
:100630000000000000000F1F3F7E76EFEF767E3F48
:100640001F0F00000000000000000000000000007C
:1006500000000000000010180C06FFFFFFFF060C52
:100660001810000000000000000000000000000062
:100670000000000000202030180C070303070C18AE
:1006800030202000000000000000000000000000FA
:1006900000000000000080C0E0F0F0F0F0F0F0E0BA
:1006A000C08000000000000000000000000000000A
:1006B0000000000000000F1F3F7E76EFEF767E3FC8
:1006C0001F0F0000000000000000000000000000FC
:1006D00000000000000010180C06FFFFFFFF060CD2
:1006E00018100000000000000000000000000000E2
:1006F0000000000000202030180C070303070C182E
:100700003020200000000000000000000000000079
:1007100000000000000080C0E0F0F0F0F0F0F0E039
:10072000C080000000000000000000000000000089
:100730000000000000000F1F3F7E76EFEF767E3F47
:100740001F0F00000000000000000000000000007B
:1007500000000000000010180C06FFFFFFFF060C51
:100760001810000000000000000000000000000061
:100770000000000000202030180C070303070C18AD
:1007800030202000000000000000000000000000F9
:1007900000000000000000000000000000FF00005A
:1007A0000000000000000000000000000000000049
:1007B0000000000000000000800000C0780F0080F2
:1007C0000000000000000000000000000000000029
:1007D000000000000000422424DB245F5E24DB24B0
:1007E00024420000000000000000000000000000A3
:1007F00000000000000000000100000000000001F7
:1008000000000000000000000000000000000000E8
:1008100000000000000000000000000000000000D8
:1008200000000000000000000000000000000000C8
:1008300000000000FCFC3333C3C3C3C3C3C3C3C342
:100840003333FCFC0000000000000000000000004A
:1008500000000000FFFF3333CCCC3333CCCC333338
:10086000CCCCFFFF000000000000000000000000F2
:10087000000000003F3FF3F3CCCCF3F3CCCCF3F318
:10088000CCCC3F3F0000000000000000FF9999FF22
:10089000FFFFFF9999FF01FD05050505050565F5B4
:1008A000FD01FF9999FFFFFFFF9999FF1C387266C0
:1008B0004C1832664E1C00FF7C380000000000001F
:1008C000FF001C3872664C1832664E1C8EA7B39916
:1008D0008CA6B3B99C8E00FF0000000000001C3EF7
:1008E000FF000EA7B3998CA6B3B99C8EFFFFFFFF44
:1008F000FFFFFFFFFFFF80BFAFA6A0A0A0A0A0A0AA
:10090000BF8080FFFFFFFFFFFFFFFFFFFF01FD052F
:1009100005050505050505050505FD0101C12111B3
:10092000090505050505091121C101FFFF007F40EB
:10093000404040404040404040407F000007081099
:100940002040404040402010080700FFFF0000000A
:10095000000000C0C0C00000000000000002040849
:100960001020408040201008040200FFFF8080809B
:1009700080808081818180808080808080A090883C
:10098000848281808182848890A080FFFF01FD05A0
:1009900005050505050505050505FD0101C1211133
:1009A000090505050505091121C101FFFF007F406B
:1009B000404040404040404040407F000007081019
:1009C0002040404040402010080700FFFF0000008A
:1009D000000000C0C0C000000000000000020408C9
:1009E0001020408040201008040200FFFF8080801B
:1009F00080808081818180808080808080A09088BC
:100A0000848281808182848890A080FFFF01FD051F
:100A100005050505050505050505FD0101C12111B2
:100A2000090505050505091121C101FFFF007F40EA
:100A3000404040404040404040407F000007081098
:100A40002040404040402010080700FFFF00000009
:100A5000000000C0C0C00000000000000002040848
:100A60001020408040201008040200FFFF8080809A
:100A700080808081818180808080808080A090883B
:100A8000848281808182848890A080FFFF01FD059F
:100A900005050505050505050505FD0101C1211132
:100AA000090505050505091121C101FFFF007F406A
:100AB000404040404040404040407F000007081018
:100AC0002040404040402010080700FFFF00000089
:100AD000000000C0C0C000000000000000020408C8
:100AE0001020408040201008040200FFFF8080801A
:100AF00080808081818180808080808080A09088BB
:100B0000848281808182848890A080FFFF01FD051E
:100B100005050505050505050505FD0101C12111B1
:100B2000090505050505091121C101FFFF007F40E9
:100B3000404040404040404040407F000007081097
:100B40002040404040402010080700FFFF00000008
:100B5000000000C0C0C00000000000000002040847
:100B60001020408040201008040200FFFF80808099
:100B700080808081818180808080808080A090883A
:100B8000848281808182848890A080FFFF01FD059E
:100B900005050505050505050505FD0101C1211131
:100BA000090505050505091121C101FFFF007F4069
:100BB000404040404040404040407F000007081017
:100BC0002040404040402010080700FFFF00000088
:100BD000000000C0C0C000000000000000020408C7
:100BE0001020408040201008040200FFFF80808019
:100BF00080808081818180808080808080A09088BA
:100C0000848281808182848890A080FFFF01FD051D
:100C100005050505050505050505FD0101C12111B0
:100C2000090505050505091121C101FFFF007F40E8
:100C3000404040404040404040407F000007081096
:100C40002040404040402010080700FFFF00000007
:100C5000000000C0C0C00000000000000002040846
:100C60001020408040201008040200FFFF80808098
:100C700080808081818180808080808080A0908839
:100C8000848281808182848890A080FFFF152B154B
:100C9000090301010101010101010101010101013A
:100CA0000105EDFDFD050101010101FFFF002030FF
:100CB00080808080803020000000F8FCFC1C181C24
:100CC000DC1C1F1F0F000000000000FFFF0020338E
:100CD000041E131E043320000000FFFE7F000000EE
:100CE0000400000000000080000000FFFF80808002
:100CF00080808080808080808080FFFFFF80808077
:100D0000808080E09CCAB983A08AA0FFFFFF030314
:100D10000303030303030303FFFF03030303FFFFB3
:100D200003030303FFFF03030303FFFFFFFF0000B1
:100D30008080808080000000FFFF00000000FFFF37
:100D400000000000FFFF00000000FFFFFFFF0000A9
:100D50000131493101000000FFFF00000000FFFFEA
:100D600000000000FFFF00000000FFFFFFFFC0C009
:100D7000C0C0C0C0C0C0C0C0FFFFC0C0C0C0FFFF77
:100D8000C0C0C0C0FFFFC0C0C0C0FFFFD5F08D1401
:100D9000A1C881CFD9F1AF200001802020100C081C
:100DA00001812020F88C0700822020008C01008324
:100DB0002020008C0100842020008C010085202050
:100DC000008C0101861010086C0101871010084C7E
:100DD0000101881010082C0101891010080C010174
:100DE0008A101008EC00018B101008CC00018C1048
:100DF0001008AC00FE0202C2F23A5A7A5A3A1A1AA3
:100E0000020202C2F23A5A7A5A3A1A1A0202FE024E
:100E10008A228AAAAAAA020202020202020202028A
:100E20000202020202FE02327AFAF2FA7A32020276
:100E300002020202020202020202020202029A5AA2
:100E400022D2CA02FE0202020202020202020202CE
:100E50000202020202020202020202020202020272
:100E60000202020202020202020202020202020262
:100E7000020202FEE0F8FCFEFEFFBF9F0F0FFFFE26
:100E8000FEFCF8E0071F3F7F7FFFFFFFE0E0FF7FF2
:100E90007F3F1F07E0F8FCFEFECF4F4F4F0F0FFEC6
:100EA000FEFCF8E0071F3F7F7FE0E0E6E6E6E67F36
:100EB0007F3F1F07E0F8FCFEFECFCF4F4F0F0FFE26
:100EC000FEFCF8E0071F3F7F7FE7E7E6E6E0E07F14
:100ED0007F3F1F078C0C0C0C8C0B0C0B8C0A0C0A24
:100EE0008C090C098C08796F75206E65656420612A
:100EF000200020636F6C6C656374656400616D6DC8
:100F00006F006865616C746800776561706F6E343E
:100F100000776561706F6E3300776561706F6E3258
:100F200000776561706F6E31006B657900000100BC
:100F300002000400080010002000400080000300B0
:100F400006000C00180030006000C000800107009F
:100F50000E001C0038007000E000C00180030F008C
:100F60001E003C007800F000E001C00380071F0075
:100F70003E007C00F800F001E003C007800F3F0056
:100F80007E00FC00F801F003E007C00F801F7F0027
:100F9000FE00FC01F803F007E00FC01F803FFF00D8
:100FA000FE01FC03F807F00FE01FC03F807FFF0148
:100FB00000FE0300FC0700F80F00F01F00E03F00F8
:100FC000C07F0080FF00FF0300FE0700FC0F00F859
:100FD0001F00F03F00E07F00C0FF0080FF01FF071F
:100FE00000FE0F00FC1F00F83F00F07F00E0FF0054
:100FF000C0FF0180FF03FF0F00FE1F00FC3F00F851
:101000007F00F0FF00E0FF01C0FF0380FF07FF1F2C
:1010100000FE3F00FC7F00F8FF00F0FF01E0FF034F
:10102000C0FF0780FF0FFF3F00FE7F00FCFF00F8BE
:10103000FF01F0FF03E0FF07C0FF0F80FF1FFF7FEE
:1010400000FEFF00FCFF01F8FF03F0FF07E0FF0FC9
:10105000C0FF1F80FF3FFFFF00FEFF01FCFF03F802
:10106000FF07F0FF0FE0FF1FC0FF3F80FF7F000082
:101070000080B66DDB765A6BADAD244992A46AB59B
:101080005AABAA55AB55DE7BEF7D20042104AA5A4A
:10109000D5AA48241249AA6A55AD5455A5AAEEDD31
:1010A000BBF7EEBD7BEF94524AA9AAAA6A55000489
:1010B000208000002000FEEFFFFEEEDEBDBBBEDFA5
:1010C000EFFB402010045A5B5B6B88484422008091
:1010D00000800000020010111122AAAAAA6AFEFDD7
:1010E000FBEF24495292FEFDF7DF10420811FEFF8C
:1010F000F7FFEEEEDDDDDADADAD6AA56B56AAAAA8D
:101100005A55EEBDF7EEFEFFFFFB40100802A49417
:101110009452DAD6B6B6FEDFFFFBFEBFFFDF481201
:101120004922B6DBEDB680402020AAD56AD5000161
:101130000101B66DBB6D88888848BEEFF77D54A964
:10114000529548228924FEFFEFFF6AADB556FEDFB7
:10115000FFF788442211FEFFFF7FA4A4A49400049B
:101160002000DEFBDEF788442412EEEEEEDE8888F7
:101170004444EEBD77EF00010202FEFDF7EF545547
:1011800055A58844242200100001FEFEFEFDB6DDB8
:1011900076DB48922489FEFFFFEF00010102FEFF8B
:1011A000FFF7DAB66DDB2449499210428410004003
:1011B0000010DAB66D6DAAAAAAAA80808040DADA99
:1011C000D6D6A4945252200882107677B7BB944AA0
:1011D000A5524892249110214244FEBFFFEF76773A
:1011E00077B7DAB6AD6D5455A9AA48249148104294
:1011F0008810FEFFFFFDFEFEFDFD76BBDBED5455C6
:10120000559594522995888848442084208400006C
:101210004000FEFBDF7FB6DB6EB7DAD6B6B554AA68
:1012200054AA4892449200400020FEFDFBF776BB92
:10123000DDED5A6B6B6D54A952A54824128910112B
:101240001111208410840008800000000004FEFFBB
:10125000FEFFDAB66D5B5A6B6BAD545555A954AAB7
:1012600054A94812491200020810FEFBEFBF7EBFCE
:10127000DFDFDEF77DEF76BBDDEEB66DDBB65495D6
:10128000AA4A944AA5542429494988888888401044
:1012900008820080004000000000FEFFFDFFDEFB32
:1012A000DEFB76B7BBDBB6DDB6DB6AADD65AAAAAE3
:1012B00055D5242525292004210840100482000842
:1012C000400000000002FEEFFFFD7E7F7FBFDEF7E3
:1012D0007DDFEEDDBB77EEEEEEEE7677BBBBAA5A96
:1012E00055AB54A52A55A4A494942429494A4822CC
:1012F000492410111121FE7FFFBFFEFBEF7FBEDFEF
:10130000EFF7DEF7BEEFB6DB6EBBB6EDB6DD6AB566
:10131000566BAAD56AB5542A952A944AA9542084B2
:101320001082000204100010000200000100FE7F85
:10133000FF7FFEF77FFFDE7BEFBDEEDEDDBB767766
:10134000777776BBDD6EDAB6B66D6AB556ABAA5561
:10135000AB5654A94A95945229A524494A92101192
:1013600022222008411040100481804040208080CB
:1013700080800002082000200004FEF7BFFFBEEFBF
:10138000F7FDEEEEDEDDB6EDB6EDB66DDB6DDADA6D
:10139000DADA6AADB5D66AADD66AAA56B5AAAA6A2D
:1013A00055B5AAAAAA55545555555495AA529452C2
:1013B0002AA5242529298848442410224408000409
:1013C0001080002000080000040000000040FEFF24
:1013D000FFFFFEFFDFFFFEFBDFFFB6DBED76DAB6D9
:1013E000B56DDADAD6B66AADB55AAA56AD6AAAAA0A
:1013F00055555455AA2A5455AAAA54A5AA549452EC
:101400004A29A494524A24499292489248924824E4
:1014100091448844229110112122102142841042CB
:1014200008214020100800020408FEFFFFDFFEFF35
:10143000FFFE7E7F7F7F7EBFBFDFDEF7BEF7DE7BF6
:10144000EF7B76B7BBDD5A5B5B5B5A6BADB56AB5BC
:101450005AAD542A954AA494949224499224102275
:101460004488200841082008822000000020000055
:10147000000100020304000506070108090A000B29
:101480000C0D0E0F10110312131415161718001956
:101490001A1B1C1D1E1B1F202122231B2404012597
:1014A000262728292A1A042B2C2D2E04001B001B6A
:1014B000002F3031323334190135363732380239A2
:1014C0003A013B3C3D083E003F1B400041050342C2
:1014D000433144454647481B492E4A411634094B7F
:1014E0004C064D1B4E4F50384151523B3253004732
:1014F0003F541B55395619363357220F58595A4BFA
:10150000005B125C5D2F5E285F60531161620663B1
:10151000292F646503666730683A6912136A6B2F76
:101520001B6C3B6D3267536E00206F120C700171A3
:10153000051B7255037374752E76773A786F1425F0
:101540003F6A797A2F0F7B7C551D7D175A07157ED0
:1015500019003A787F80810D3F828329022F0A6427
:10156000848555864973875A6788533C898A003A2F
:101570008B6947148C413F8D8E01297A8F05901B12
:101580005E34855591036D09401A6092932E429402
:101590001995003A4A78961E97149806999A9B8254
:1015A00048015D22028F2F9C241B449D6C850E9E5A
:1015B0009F0349A03940A15A1F9256155342104625
:1015C000199500003A3A36A296A36297A412A5068E
:1015D0000C213F5763A6A7017929227A37A8A923AE
:1015E0000A0F1B645E9D34AAAB0E553B9F1D035929
:1015F00035093E66321A5A60AC07568815534BAD12
:101600003CAE6EAF118A00003A3A3A6120B038B170
:1016100043624780143381A5B2250CB3213FB48DBA
:10162000B56A8E31017979B65416710237B704B8AC
:101630002308900F1B1B64440B84B96CAA85BA0E57
:1016400055283B9186BB0349492CA009393E1732E6
:10165000A174BC5A601FAC75BD56BE8815BFC04B87
:1016600042C1107646C2891968778A000000003AA4
:101670003A3A3A2636208B2B38C369A36F624797D4
:10168000801414C41281A53DB225410C0C13C53F32
:101690003F5C9B8D70822D6A8EC6C701017979519E
:1016A000B66BC81616710237C9CAA8042FB805CB85
:1016B0009CCC900FCD1B1B1B6464CE0B0BCF9DB934
:1016C000346CAAAA85AB65D00E5555289E91D19F42
:1016D000861D1D03034949596D7DA05F09093945E0
:1016E000D266403232A1741A5A5AD3D34F1F1FAC5C
:1016F0007507BDBD56BE938815152E2E53534B4B03
:1017000042AD7ED410769446D56E1819AFD61168C6
:1017100077D7000000000000003A3A3A3A3A3A3AE5
:10172000D84A61D92020788BB02B381296C3B1DA11
:10173000A3431C6247624797978080141414333385
:1017400012818181A58C3D06060625250D410C0CD4
:1017500013132121C53F3F5C5CB49B578D6370B56B
:10176000822DDBA66A8E48C6A7C731010101017927
:1017700079795D5DDC296B54DD2222161616717AAB
:101780000202373737DE8FB7A804042FA92FB80518
:10179000DF23239C08CC0AE0240F24CD1B1B1B1B3A
:1017A0001B1B64646464647B7B0B0BE1E2CF849D50
:1017B000E3B972346C6C7CAAAAAA858585ABBA653C
:1017C000BAE40E0E5555E555283B3B3B3B919191B4
:1017D000D19F864EBB1DBBE603030303494949491C
:1017E0005959E76D2C7D35A0A05FE80973090939C7
:1017F000E93E3E3ED21766406632323232A1A1A1A6
:1018000074EA1AEABC5AEB5AD3D3D360604FEC1F88
:101810001FACACAC7575759207BDBDBDBD565656B7
:10182000BEBE9388881515ED15152E2EBF2E2E538E
:1018300053534B4B4B304B4242ADEEC17E7ED410E6
:101840003C1076769494AE4646D5C26E5018181960
:1018500019AFAF19D6D611681168779577D78A0076
:101860000000000000000000000000000000003A3E
:101870003A3A3A3A3A3A3A3A3A3A3A3A3A3A3AEF13
:101880004C4A6161F0D936202036202078788B8B45
:10189000A2B05B2B2A2A3812129696C3C3B1B16943
:1018A00069DA7FA343431E6F1C1C1C6262474762B8
:1018B0004747479797F1979780F2808080141414D8
:1018C000A4A4141433C433331212121281818198E8
:1018D0008181F3A5A58C8C3DF4F406B206060606BC
:1018E0002525252525410D41410C0C990C0C0C1387
:1018F00013B313132121C52121C59A3F3F3F3F3F19
:101900003F5C5C5C5C5CB4579B9B5757F5F58D8DD9
:101910006363707063B58282822D2D2DDB6A6AA6A7
:10192000A66A6A8E8E8E484848C6C6A7313131C72E
:101930003131C70101010101010101797979797919
:101940007979794D795D51515D5DDCB6B629296BA8
:101950006B6B5454DDDDC822222222161616F616B1
:1019600016167A7A71717A7AF70202020202023747
:10197000373737373737DEDECACA8F8FB7B7A8A8F1
:10198000F804040404042F2F2F2FA92F2FB8B80513
:10199000050505DFDFDF2323CB2323239C9C9C0845
:1019A0000808CCCC0A0AE0E0909024240F0F0F2402
:1019B0000F0FCD1B521B1B1B1B1B1B1B1B1B1B1BA6
:1019C0001B1B1B1B646464646464646464646464FB
:1019D000646464CE7B447B7B0B0B5E5E0B0B0BE184
:1019E000E1E2E2CFCF8484849D9D9DE3E3E3E3B90C
:1019F000B9343472723434346C6C6C6C6C7C7CAA88
:101A0000AAAAF9AAAAAAAAAA858585858585585869
:101A100085ABABABBABABA6565BABABAD0D0E40E88
:101A20000E0E0E0E0E5555555555555555E5E555A9
:101A300055FAFA2828283B3B3B3B9E3B3B3B3B3B34
:101A40009191919191D1D19191D1D1D19F9F9F9F0E
:101A5000868686864E4EBBBB1D1D1D1DBBBB1D1D38
:101A6000E6FBFB030303030303030303030303492D
:101A700049494949494949494949495949495959A6
:101A8000E7E7E76D6D6D6D2C2C7D7D7D7D35353502
:101A900035A0A0A0A0A05F5F5F5FE8E8E8090909A2
:101AA00073730909090909393939393939E9E93EBD
:101AB0003E4545453E3E3E3ED2D2D2D2171717662E
:101AC000666666664040406666873232323232323F
:101AD0003232323232A1A1A1A1A1A1A1A1A1A1A121
:101AE0007474EAEAEA1A1A1AEAEAEABCBCBCBC5AFA
:101AF0005A5A5AEBEB5A5A5A5A5AD3D3D3D3D3FC25
:101B0000FCD3D3D3D360606060604F4F4FECEC1FC9
:101B10001F1F1F1F1F1F1F1F1FACACACACACACACFA
:101B2000ACAC75756767677575757592929292071B
:101B3000070707BDBDBDBDBDFDFDFDBDBDBDBDFEF6
:101B4000FE565656565656565656BEBEBEBEBEBE1D
:101B5000BEBE9393888888272727888888151515FF
:101B6000151515EDEDED1515151515151515152E84
:101B70002E2E2E2E2E2EBFBFBF2E2E2E2E2E535388
:101B80005353C0C0535353535353534B4B4B4B4B73
:101B90004B4B4B303030304B4B4B4B42424242422E
:101BA0004242ADADADADADADEEEEEEC1C1C1C17E57
:101BB0007E7E7E7ED4D4D4D4D4D410103C3C3C1051
:101BC00010101010767676767676769494949494B7
:101BD00094AEAEAEAEAEAE4646464646D5D5D5D5AB
:101BE000D5C2C2C2C2C26E6E6E6E505050505018F6
:101BF00018188989898919191919191919AFAFAFD5
:101C0000AFAFAF1919191919D6D6D6D6D6111111E9
:101C10001168686868111111116868686895959570
:101C20007777779595777777FFFFD7D70000008A8A
:101C300000000000000000000000000000000000A4
:101C40000000000000000000000000000000000094
:101C50000000000000000000000000000000000084
:101C600000000000000000000000000000002D0F38
:101C7000290F210F190F110F090F020FFD0EF20E80
:101C8000E60E080B00020202010009040000010236
:101C900002000005240010010524010101042402B2
:101CA0000605240600010705810310004009040110
:101CB00000020A0000000705020240000007058339
:101CC000024000000403090412010002EF02014077
:101CD0004123360000010102030141726475696EFF
:101CE0006F204C4C430041726475626F7900404034
:101CF0004040404040403F3F3F3F3F3E3E3E3E3DF4
:101D00003D3D3C3C3B3B3A3A3A3939383737363639
:101D10003534343332323130302F2E2D2C2C2B2AC7
:101D200029282727262524232221201F1E1D1C1B8E
:101D30001A1918171615141312110F0E0D0C0B0A81
:101D4000090807060403020100FFFEFDFCFAF9F88A
:101D5000F7F6F5F4F3F2F1EFEEEDECEBEAE9E8E794
:101D6000E6E5E4E3E2E1E0DFDEDDDCDBDAD9D9D889
:101D7000D7D6D5D4D4D3D2D1D0D0CFCECECDCCCC53
:101D8000CBCACAC9C9C8C7C7C6C6C6C5C5C4C4C3E5
:101D9000C3C3C2C2C2C2C1C1C1C1C1C0C0C0C0C030
:101DA000C0C0C0C0C0C0C0C0C0C0C1C1C1C1C1C22C
:101DB000C2C2C2C3C3C3C4C4C5C5C6C6C6C7C7C8DA
:101DC000C9C9CACACBCCCCCDCECECFD0D0D1D2D33C
:101DD000D4D4D5D6D7D8D9D9DADBDCDDDEDFE0E163
:101DE000E2E3E4E5E6E7E8E9EAEBECEDEEEFF1F259
:101DF000F3F4F5F6F7F8F9FAFCFDFEFF0001020333
:101E000004060708090A0B0C0D0E0F111213141506
:101E1000161718191A1B1C1D1E1F202122232425EA
:101E200026272728292A2B2C2C2D2E2F30303132F3
:101E30003233343435363637373839393A3A3A3B33
:101E40003B3C3C3D3D3D3E3E3E3E3F3F3F3F3F40B5
:101E500040404040404000000100020003000400F8
:101E600006000700080009000A000B000C000E0025
:101E70000F001000110012001400150016001700CA
:101E800019001A001B001C001E001F002100220068
:101E900023002500260028002A002B002D002E00FC
:101EA000300032003400360038003A003C003E007A
:101EB00040004200450047004A004C004F005200DD
:101EC000550058005B005F00630066006B006F0008
:101ED000730078007E0083008900900097009E00C8
:101EE000A700B000BA00C500D100DF00EF0001017B
:101EF00015012D0149016B019401C701090261021D
:101F0000DC029303C5042907530E0F090F00020FCB
:101F10000D0D0B090D0F03020F0B090D0F0A0E011A
:101F20000D030F0D0F0B0B0F0E050E0F0B0C0609FB
:101F3000090F09060F0B090F05010F090D0F040FFB
:101F4000000D000509070F020D0F08080F020F0F03
:101F5000010E07090F0F05070F09070F050A0B09E7
:101F60000D010F010F080F0708070F040F090609DD
:101F7000030C030D0B090000000101010101010127
:101F80000101000000000000000182000082121325
:101F90001401000001010F0F0F01000001001010DB
:101FA0000F010000010112100F01000001010F0FCD
:101FB0000F010000000010131001010101000000DA
:101FC0000001000012000000000100000F000000EE
:101FD000000100000F0000000001000110010000DE
:101FE00000010001010100000001000001010000EA
:101FF00000010101010101010101010101010101D2
:1020000001000000000000000100000000000000CE
:1020100001000000000000000100000000000000BE
:1020200001000000000000000100000000000000AE
:10203000010000000000000001000000000000009E
:10204000010000000000000001000000000000008E
:10205000010000000000000001000000000000007E
:10206000010000000000000001000000000000006E
:102070000101010101010101010000000000000057
:10208000000000000000000000000E1A0A0000120C
:1020900000001D000000000F00000D000000000FF8
:1020A0000000000000000011000086800081000098
:1020B00000008B8C00000000000000000000000009
:1020C000000000000000000000000E000A000101F6
:1020D00000001A000000000100000D0000000101D6
:1020E00000000000000000000000000000000000F0
:1020F00000000000000000000001000000000000DF
:1021000000010000000000000001000000000000CD
:1021100000010000000000000001000000000000BD
:1021200000010000000000000001000000000000AD
:10213000000100000000000000000000000000009E
:10214000010000000000000001000000000000008D
:10215000010000000000000001000000000000007D
:10216000010000000000000001000000000000006D
:102170000100000000000000010101010101010156
:10218000010000000000000000000000000001004D
:10219000000001000000000000000000000000003E
:1021A0000001000101010101010000000000000028
:1021B000000000000000000000000000000000001F
:1021C000000000000000000000000000000000000F
:1021D00000000000000000000000000000000000FF
:1021E00000000000000000000000000000000000EF
:1021F00000010101010101010100000000000000D7
:1022000000000000000000000000000000000000CE
:1022100000000000000000000000000000000000BE
:1022200000000000000000000000000000000000AE
:10223000000000000000000000000808080808086E
:10224000020604050505050507060505050505053E
:102250000706050505050505070605050505050528
:102260000706050505050505070605050505050518
:1022700007010909090909090300203211241FBEB9
:10228000CFEFDAE0DEBFCDBF27E0A0EAB1E001C0CA
:102290001D92A43FB207E1F711E0A0E0B1E0E4E550
:1022A000FCE602C005900D92A03AB107D9F711E102
:1022B000CEE3D1E104C02197FE010E947D32CD33EF
:1022C000D107C9F70E9442210C9428360C940000D3
:1022D0008F929F92AF92BF92CF92DF92EF920F9325
:1022E0001F93CF93DF931F92CDB7DEB74C016B01E5
:1022F0005A01602F822F29830E94531C182D1F73AF
:102300002981EE2039F090E4911B192F811170C0C2
:1023100081E003C0811169C08FEF820F602F0E949E
:10232000531C882309F45BC08F3039F59091B905AF
:10233000E0918A07F0918B07992391F0228130E098
:102340002F5F3F4F96E0220F331F9A95E1F793815D
:10235000290F311D205F3F4F2A153B0570F441C006
:102360009281238130E040E4949F200D311D11249F
:1023700020513109A216B306A0F192E02091C205C6
:10238000022E000C330B215F3F4F412F50E02417EA
:10239000350704F1113168F020EF210F30E0EE2015
:1023A00031F0280D391DF6013183208305C0821AD2
:1023B000930AF601918280828F3061F4E0918A075E
:1023C000F0918B07808185FF05C080918F07816028
:1023D00080938F07892F103180F481600EC080E0D8
:1023E0000CC0105C90E080E0C9CF8F3021F494CF16
:1023F0008F3009F48DCF90E0C1CF0F90DF91CF9156
:102400001F910F91EF90DF90CF90BF90AF909F9072
:102410008F9008952F923F924F925F926F927F928A
:102420008F929F92AF92BF92CF92DF92EF92FF92E4
:102430000F931F93CF93DF93CDB7DEB72D970FB6D2
:10244000F894DEBF0FBECDBF4C017B013A872987D0
:102450001C870B87F901A080B180F801C080D18072
:10246000442309F416C1443061F4865A9F4F740125
:102470008836F1E09F0798F094012E5031404901D1
:102480000FC0433071F4CB016A35710510F48859DF
:102490009E4F4701AC014A5551097A0101C04C01D8
:1024A00041E0F401E251F34E2491A091C205022EC5
:1024B000000C330B0A2E000CBB0B0E946E324D87B2
:1024C0000E94C81C9E838D83F701E251F34EE49174
:1024D0006091C205E602F0011124BF01FF0F880BD5
:1024E000990B0E94C81C2D813E814D85413051F4CD
:1024F0002A0D3B1D3E832D838C0D9D1D9C838B835C
:10250000740117C0F501E21BF30BFE83ED83960106
:10251000281B390B3C832B83740134EBE30EF11C35
:1025200048E6E41641E0F40620F0740154EBE51AA5
:10253000F108C5010E94C11C482EC6010E94C11CA1
:10254000382E11E0C7018A559109843B910508F4A2
:1025500010E05524539484EBE816F10408F0512C54
:10256000052D232D442DBE016D5F7F4FC6010E94B6
:1025700019208887E12E032D242DA601BE016B5F53
:102580007F4FC5010E946811282F8B809C80ED80B1
:10259000FE803601552039F090E1690E711CE0E1B2
:1025A0008E0E911C06C0F0E16F1A710830E1831A9B
:1025B0009108C501112329F0409640E1E40EF11C79
:1025C00004C0409750E1E51AF1083885322B3F836B
:1025D00030FD53C020FD25C00E94C11CDA82C98293
:1025E00001E00525232D482FBE016F5F7F4FC601F7
:1025F0000E941920282E3F8131110FC0C7010E946F
:10260000C11CDA82C982052D232D482FBE016F5FC0
:102610007F4FC6010E941920282A20FE02C0BE82D8
:10262000AD82388530FD29C0C3010E94C11CBA8229
:10263000A98291E0E12EE926082F242DA301BE01F5
:102640006F5F7F4FC5010E946811F82E3F813111E5
:1026500010C0C4010E94C11CBA82A982E12E082FB9
:10266000242DA401BE016F5F7F4FC5010E94681138
:10267000F82AF0FE02C0DC82CB828D819E81E98542
:10268000FA85918380838B819C81EB85FC85918386
:1026900080832D960FB6F894DEBF0FBECDBFDF91BD
:1026A000CF911F910F91FF90EF90DF90CF90BF904F
:1026B000AF909F908F907F906F905F904F903F90E2
:1026C0002F9008958F929F92AF92BF92CF92DF92F8
:1026D000EF92FF920F931F93CF93DF930E94753574
:1026E00060E470E00E945A3280938E078091C305A7
:1026F000882321F081508093C30502C01092CC053D
:102700008091CD05882359F090918C0790FD07C0EA
:10271000181614F4885001C0885F8093CD0580910D
:10272000DA05811103C01092D90503C0815080934E
:10273000DA050E94CB2087FF08C08091CC0581304C
:1027400011F41092C30581E029C00E94CB2084FFC0
:1027500008C08091CC05813011F41092C30582E04D
:102760001DC00E94CB2085FF10C00E94CB2083FF9C
:1027700002C083E013C08091CD05181614F41092A6
:10278000CD058091CD058B501EC00E94CB2086FFC9
:102790002AC00E94CB2083FF0EC084E08093CC052A
:1027A0008091C3058E5F8093C3058091D9058032E7
:1027B0006CF098EF0EC08091CD0587FD1092CD058D
:1027C0008091CD05855F8093CD050DC0813E1CF4C1
:1027D00098E09093D8059091D805890F8093D905FA
:1027E00085E08093DA058091C305823118F082E19B
:1027F0008093C3058091CD0581341CF08B5080936C
:10280000CD058091CD05803C1CF4855F8093CD057E
:10281000E12C6FE1F62E7EE1B72EE2E0DE2EF4E051
:10282000CF2EA6E0AA2EB8E79B2E14E6812E80912B
:102830001C07E81608F059C1EE2DF0E0EE5EF84FE7
:10284000808190E0F89ED001F99EB00D1124A6542D
:10285000BA4F91964C91919741FD45C140FF7EC082
:102860009E968D919C919F97C29708F03CC192963D
:102870009C919297963808F437C081E080938D0739
:10288000EBE7E90F8E2F8068E82FEF70F0E0EE0F96
:10289000FF1FE259F34E259134913093D1052093D7
:1028A000D005E82FF0E034E0F595E7953A95E1F7AB
:1028B000EE0FFF1FE259F34E259134913093D3056B
:1028C0002093D2059092D405426091964C939B3808
:1028D00059F48091C505845F853618F48093C50549
:1028E00002C18092C505FFC09C38A9F48091C7053C
:1028F000875E8093C7058091C805865F8093C80571
:102900008091C9058B5F8093C9058091CA058F5F4F
:102910008093CA05E8C0963831F48091CB058F5F6B
:102920008093CB05E0C0973821F48091C605816083
:1029300005C0983831F48091C60582608093C60541
:10294000D2C0993821F48091C6058460F7CF9A38B7
:1029500009F0C9C08091C6058860F0CF92962C918D
:10296000223819F4C092C20502C0A092C205F89E96
:10297000F001F99EF00D1124E654FA4F25A52130FF
:10298000A1F038F0223009F454C0243009F4A1C079
:10299000AAC022A9222309F4A6C026A537A52F3F45
:1029A000310511F008F09FC005C046A557A5413874
:1029B000510500F1D5A620A931A9A901445B51090F
:1029C00057FD03C054AB43AB04C02C543F4F34AB52
:1029D00023ABF89EF001F99EF00D1124E654FA4F56
:1029E00083A994A9EC01CA55D109D7FF7CC0C85965
:1029F000DE4F79C036A9311119C040918E0737A931
:102A0000430F47AB3091C505332339F0433328F0EA
:102A100031503093C50520938D07F89EF001F99E43
:102A2000F00D1124E654FA4FB6AA5DC0315036AB12
:102A30005AC022A9222341F026A537A52038310506
:102A400018F481E085A74FC0F89EF001F99EF00DC3
:102A50001124E654FA4F26A537A52130324010F054
:102A6000C5A641C020918C072F73F1F420A931A98C
:102A7000A901445B510957FD03C054AB43AB04C0EB
:102A80002C543F4F34AB23ABF89EF001F99EF00D70
:102A90001124E654FA4F23A934A9E901CA55D109F2
:102AA000D7FF02C0C859DE4FF89EA001F99E500D15
:102AB00011248A010C511A4F9A012E513A4FFA01F2
:102AC000E654FA4F41E0BE0183A994A90E940A127C
:102AD0000AC082A9882339F086A597A58F3F910562
:102AE00009F008F4D5A6E394A2CE40914707E091FF
:102AF000420786E0E89FF0011124ED5DF84FDF0109
:102B00001296EF0124967F0183E0E80EF11C90E01D
:102B10006FEF53E072E010EF20914707921790F5A6
:102B20008C91813061F4F70180812881821305C086
:102B30008F3351F47C9318831EC08F5F1AC082308C
:102B400041F48881811102C05C9315C08150888353
:102B500012C0833081F4F7018081811109C01C9279
:102B6000292F30E02E5B384FF9016083415003C0BC
:102B70008150F70180839F5F16962696F6E0EF0E50
:102B8000F11CCACF80E0821798F4882359F0E82F0F
:102B9000F0E0DF01AE5BB84F9C91EF5BF84F308106
:102BA000931710F08F5FEFCF3C9390838150EBCF62
:102BB0004093470780918E07837039F5E8E2F7E08C
:102BC00093E031E0209141078217F8F4208120FF43
:102BD00019C0DF0113972C91211114C03C93119659
:102BE0001C92119620918E072C7F2C93A091470761
:102BF00021E02A0F20934707B0E0AE5BB84F8C93DB
:102C0000915019F08F5F3696DDCFDF91CF911F91F4
:102C10000F91FF90EF90DF90CF90BF90AF909F907B
:102C20008F9008959F92AF92BF92CF92DF92EF92D2
:102C3000FF920F931F93CF93DF93182FEB01FA01AD
:102C400080E098E0BA010E944632A62FE259FB4E7E
:102C5000E49144E0E49FC00111242933310590F050
:102C6000D7FF08C02C0F3D1F2933310568F028E33A
:102C700030E00AC0C833D1050CF528E330E02C1B46
:102C80003D0B1EC0D7FF1CC0FC01E259FF4E7491E2
:102C900048E0572F51705A0FC50FD11DD7FF06C0FE
:102CA0000F5F76954150A9F70196EECFD42E20976D
:102CB00019F40F5FD0E087C0D0E00CC020E030E016
:102CC000DC2FFC01E259FF4E7491A8E0DA2EC72FE9
:102CD000C170C60F4C2F50E02417350708F4C22FDF
:102CE000402F469546954695D701A40FB11DE02F7C
:102CF000E770F0E0E85AFE4F5C9140814523AC2E2E
:102D0000B12C09F45BC0A12FB0E04D2F469546953C
:102D1000469550E8459FA00DB11D1124A754BE4F04
:102D2000ED2FE770CE2EC93068F4A501415051094E
:102D3000E3E0440F551FEA95E1F74C0D511D440F98
:102D4000551F10C0F501399748E1942E9E9EA001B1
:102D50009F9E500D112440585F4FE3E0CE9E400DE2
:102D6000511D1124FA01E25DF04FE491FC91FE2B1C
:102D7000FC931196FC911197EF2B1196EC93119700
:102D8000FA01E15DF04FC490FD01E058FF4F9080E3
:102D90009C28908231969080C928C082C93070F0FA
:102DA000FA01E05DF04F4491FD01F3955081542B01
:102DB0005083AF5FBE4FEC91E42BEC932A193B0993
:102DC00049F0DC0F0F5FDA94DD2011F076957FCFAC
:102DD000019677CFDF91CF911F910F91FF90EF90E8
:102DE000DF90CF90BF90AF909F900895EF92FF92A9
:102DF0000F931F93CF93DF93EA01FB0177FD379683
:102E000053E0F595E7955A95E1F7F695FE2FEE27F5
:102E1000F795E795E80FF11DE754FE4FCB0168E009
:102E200070E00E945A32DC01A85ABE4F8C9190E0AB
:102E3000492F50E04217530720F5A12FA695A695DC
:102E4000A695A770B0E0A85ABE4FB80164E0769F7F
:102E5000612D772711246E0D7F1D5C91DB014C9154
:102E6000452331F04081482B40834181482B4183E9
:102E7000880F19F4E058FF4F81E00C0F1D1F9F5F72
:102E8000D7CFDF91CF911F910F91FF90EF900895D1
:102E900065E070E080E090E00C94541BFC018091B0
:102EA000A201811103C08FEF9FEF08959FB7F8949F
:102EB00082E08093E9002091F20030E012161306C0
:102EC00014F421E030E02115310559F0289884E60A
:102ED0008093A1018091F10080838091F20088238A
:102EE00019F09FBFC90108958BE68093E800F9CFE0
:102EF0002FB7F89483E08093E9009091E800892F40
:102F0000807295FF04C09091F20080E4891B2FBF6E
:102F100008958091A70181110DC082E08093A301E3
:102F200084E08093A4011092A6011092A50181E093
:102F30008093A70183EA91E00895CF93DF931F92D6
:102F4000CDB7DEB76983DC01ED91FC910280F3819E
:102F5000E02D41E050E0BE016F5F7F4F09950F907B
:102F6000DF91CF91089583E08093E9008091F20092
:102F7000882319F08AE38093E8000895FC01848592
:102F8000958597FD0BC09FB7F89482E08093E90088
:102F90008091F2009FBF90E0019608959FB7F8944A
:102FA00082E08093E9008091F2009FBF90E0089555
:102FB0004091B4015091B5012091B2013091B3011B
:102FC00042175307B4F49091E8009570E1F39091A3
:102FD000E80092FD19C08093F1008091B4019091B6
:102FE000B50101968F739927892B19F48EEF809381
:102FF000E8008091B4019091B50101969093B501DC
:103000008093B40181E0089580E00895DF92EF920B
:10301000FF920F931F93CF93DF93D82E8A017B01EA
:10302000E40EF51EEB01CE15DF0571F0D7FE03C0EF
:10303000FE01849101C088810E94D81721968111D8
:10304000F2CF8FEF9FEF01C0C801DF91CF911F91A9
:103050000F91FF90EF90DF900895615030F0209134
:10306000F100FC0120830196F8CF289884E6809334
:10307000A10108950E94781790E00895CF93DF93FF
:103080001F92CDB7DEB7FC018485958597FD05C0FD
:103090002FEF3FEF358724870BC0CE0101960E94AA
:1030A0004E17019719F4898190E002C08FEF9FEFCE
:1030B0000F90DF91CF9108950F931F93CF93DF93DC
:1030C0001F92CDB7DEB78C01FC018485958597FFF3
:1030D0000EC0CE0101960E944E17019719F4298166
:1030E00030E002C02FEF3FEFF80135872487F80169
:1030F000848595850F90DF91CF911F910F91089551
:103100000F931F93CF93DF931F92CDB7DEB782E06B
:10311000898342E450E062E87CE180E80E9406187E
:103120000E948917DC0112960D911C9113970115CD
:10313000110569F0D801ED91FC910280F381E02D39
:10314000BE016F5F7F4FC801099597FF07C0898156
:103150000F90DF91CF911F910F910895F801008595
:103160001185E5CF1F920F920FB60F9211248F9306
:103170009F938091E1009091E100937F9093E10013
:1031800083FF0FC01092E90091E09093EB00109242
:10319000EC0092E39093ED001092A20198E09093DE
:1031A000F00082FF20C093E09093E9009091F2003C
:1031B000992319F09AE39093E8009091B60199232E
:1031C00039F09091B60191509093B601992389F10D
:1031D0009091A101992339F09091A1019150909380
:1031E000A101992341F184FF10C08091E2008E7EFD
:1031F00081608093E2008091E1008F7E8093E10006
:103200008091B1018E7E806111C080FF16C08091D7
:10321000E2008E7E80618093E2008091E1008E7EEC
:103220008093E1008091B1018E7E81608093B10135
:1032300004C05D9ACDCF289AD6CF9F918F910F90E1
:103240000FBE0F901F9018951F920F920FB60F92FE
:103250001124CF92DF92EF92FF920F931F932F933F
:103260003F934F935F936F937F938F939F93AF930E
:10327000BF93EF93FF93CF93DF93CDB7DEB76C97F8
:10328000DEBFCDBF1092E9008091E80083FFEDC161
:1032900068E0CE0145960E942D1882EF8093E800E9
:1032A0008D8987FF05C09091E80090FFFCCF03C097
:1032B0009EEF9093E800982F907609F0C6C09E8903
:1032C0002F89188D91110CC0803829F48091B0019C
:1032D0008093F10002C01092F1001092F10048C1F9
:1032E000422F50E0512B913051F4811141C14130B6
:1032F000510509F03DC18091B0018D7F0BC0933025
:1033000061F4811135C14130510509F031C180911D
:10331000B00182608093B0012BC1953041F480915F
:10332000E80080FFFCCF20682093E30021C19630A5
:1033300009F05FC0EB8CFC8C1092E9001092B50193
:103340001092B401123091F51092B3011092B201B3
:103350000E94801899E0BE016F5F7F4FDB01E92F6B
:103360001D92EA95E9F799831A8391E09E8390EA8A
:1033700098879AEF99872091B4013091B501275F22
:103380003F4F3C832B838D831092E9001092B5014F
:103390001092B401F092B301E092B20149E050E022
:1033A00080E00E9406180E948018E2C0F092B301EB
:1033B000E092B2010E948917DC011296ED90FC9018
:1033C0001397E114F10409F4C0C0D701ED91FC9109
:1033D0000480F581E02DBE016B5E7F4FC70109952A
:1033E000009719F00CF0C4C0C7C0F701E084F18465
:1033F000E8CF973009F4C0C0983021F481E0809381
:10340000F100B6C0993009F0B3C0837009F0B4C0C0
:10341000E1E6F1E081E021E036E39081992361F07B
:103420008093E9002093EB0091919093EC0030930E
:10343000ED008F5F873089F78EE78093EA00109266
:10344000EA008F898093A20193C08B8D9C8D10928E
:10345000E9001092B5011092B4019093B3018093EA
:10346000B201898D811156C08E899D89913A59F496
:10347000813209F081C047E050E064E071E080E013
:103480000E94061875C0913209F076C0833289F423
:10349000888D90E0982F88272F89822BA0E0B0E0BC
:1034A0008093000190930101A0930201B093030166
:1034B0005FC0803269F48091E80082FFFCCF67E052
:1034C00084E091E00E942D188BEF8093E80006C005
:1034D000823209F04DC08F8980930B018091AF013A
:1034E000882319F0EEEFFAE002C0E0E0F8E0809106
:1034F000040190910501A0910601B0910701803B64
:103500009440A105B10509F07BC080910B0180FFBB
:1035100093C076C00E948917DC0112960D911C9110
:1035200013970115110541F1D801ED91FC9101901E
:10353000F081E02DBE016B5E7F4FC80109958111BE
:1035400017C0F80100851185ECCF113009F44EC089
:10355000133091F48F89882309F445C0823081F4B7
:1035600040E867E086EE9CE10E94E331882321F089
:103570008EEF8093E80079C081E28093EB0075C004
:10358000813029F440E86BE08AED9CE1EDCF833097
:1035900099F70E948917DC011296ED90FC90139721
:1035A0008E010F5F1F4F6801E114F10479F0D7011C
:1035B000ED91FC910680F781E02DB801C7010995D6
:1035C000080F111DF701E084F184EECFD8011C92A1
:1035D000F60101900020E9F73197BF016C197D09D0
:1035E00040E0C601C1CF64EC7CE102C068EC7CE144
:1035F0006115710509F2FB01449150E080E840CF6C
:103600000FB6F894A895809160008861809360005F
:10361000109260000FBEA895EE3F2AE0F20739F045
:103620008091FE0A9091FF0A91838083A1CF10922E
:10363000FF0A1092FE0A9CCFEE3F8AE0F80731F0B5
:10364000808191819093FF0A8093FE0A87E797E734
:10365000918380839BE088E10FB6F894A8958093CE
:1036600060000FBE9093600083CF6C960FB6F89405
:10367000DEBF0FBECDBFDF91CF91FF91EF91BF9124
:10368000AF919F918F917F916F915F914F913F91FA
:103690002F911F910F91FF90EF90DF90CF900F909F
:1036A0000FBE0F901F9018958F929F92AF92BF926E
:1036B000CF92DF92EF92FF926B017C010E94D320A8
:1036C0004B015C01C114D104E104F104F1F00E944A
:1036D000D320DC01CB0188199909AA09BB09883ECE
:1036E0009340A105B10570F321E0C21AD108E108A9
:1036F000F10888EE880E83E0981EA11CB11CC1144D
:10370000D104E104F10419F7DDCFFF90EF90DF90D1
:10371000CF90BF90AF909F908F9008958F929F927F
:10372000AF92BF92CF92DF92EF92FF920F931F93CF
:10373000CF93DF935C016B017A0180910B018823A9
:1037400009F45BC08091A201882309F456C08091DE
:10375000B10180FF05C08091E00082608093E000AD
:10376000E70110E00AEF83E0882E9AE3992E209774
:10377000D9F10E94781781110AC0015009F43DC0A7
:1037800061E070E080E090E00E94541BF0CF282FB1
:1037900030E0C217D3070CF48C2F4FB7F894809207
:1037A000E9009091E80095FF1DC0282F30E0C21B72
:1037B000D30BF601982F915020F081918093F10066
:1037C000FACFC20ED31E112319F09092E80009C05F
:1037D0008091E80085FD06C09092E80011E02097F6
:1037E00009F010E04FBFC3CF1111C3CF5D9884E63D
:1037F0008093B6011E141F0444F081E090E0F501AF
:103800009383828380E090E001C0C701DF91CF9174
:103810001F910F91FF90EF90DF90CF90BF90AF90EE
:103820009F908F9008958F73E0918A07F0918B0796
:10383000662341F0309711F0938101C09FE3981BFC
:10384000892F0895309711F09381891B0895962F41
:10385000969596959695E82FE695E695E695F0E08F
:1038600028E0929FE00DF11D1124E75CFD4D94913D
:1038700067708770E82FF0E088E0689FE00DF11D29
:10388000112420E4929FE00DF11D1124E758F04E21
:1038900084912FEF3FEF30938707209386079FEFA8
:1038A000909385070895CF93DF93D82FC62F0E945A
:1038B000271C10928B0710928A071092B9058E313F
:1038C00008F057C0E82FF0E0E959FE4F90819A3197
:1038D000E9F4809122074DE157E0DA0166E02A2FF2
:1038E000241B281708F049C02D91629F90011124D4
:1038F00026543A4FF901E759FE4F70817D13EFCFFF
:10390000319620812C13EBCF90E037C09F30A9F582
:10391000809184072AEB35E090E06C2F70E0F9018C
:10392000E257FE4F981729F1D901A157BE4F4C918C
:10393000D41312C011964C91C41791F011965C915A
:10394000552351F050E04F5F5F4F6417750721F426
:1039500081E08093B90507C09F5F2A5F3F4FDFCFAB
:103960008381882341F0F0938B07E0938A078FE0EF
:1039700005C080E003C081E001C0892FDF91CF91B5
:1039800008959C01221F331F221F331F832F089588
:10399000AB01BC01441F551F661F441F551F661F06
:1039A000852F962F08950F931F93CF93DF9390E465
:1039B000899F80011124E0E46E9FB0011124FA0177
:1039C00033818091BE059091BF05213039F4C32F1A
:1039D000D0E0C81BD90BC60FD71F06C00196831BAA
:1039E0009109EC01C61BD70B80918807909189073C
:1039F0008A35910589F0EAE5F0E0E81BF90BEE0F56
:103A0000FF1FEA5AF14EA591B4919E010E947632B1
:103A10000E94C81C9C010EC0209751F42091BC0547
:103A20003091BD052017310719F0201B310B02C062
:103A300020E030E06091B7017091B801AB014A55C8
:103A400051098091BC059091BD05443B510540F062
:103A5000820F931FF801FF96E817F90748F43DC05D
:103A600082179307D0F1821B930B80179107A8F15F
:103A70009091BC056A35710549F0443B510518F039
:103A8000901B920F04C0921B901B01C09F739093D8
:103A900085072097E1F08091880790918907E8E4F5
:103AA000FDE1E81BF90BE491CE01A0E0B0E0BC0120
:103AB000CD0126E0660F771F881F991F2A95D1F741
:103AC0002E2FEE0F330B440B550B0E94C035309355
:103AD00087072093860781E001C080E0DF91CF91C6
:103AE0001F910F9108952F923F924F925F926F9284
:103AF0007F928F929F92AF92BF92CF92DF92EF927E
:103B0000FF920F931F93CF93DF93CDB7DEB7289724
:103B10000FB6F894DEBF0FBECDBF5A01822E912C96
:103B20009C01280D391D37FDC4C0803891050CF06B
:103B3000C0C09B01200F311D37FDBBC06034710533
:103B40000CF0B7C0AB0177FF04C044275527461BD4
:103B5000570B477055279B0177FF02C0295F3F4FE6
:103B6000E3E035952795EA95E1F777FF08C0215006
:103B7000310968E070E0DB01A41BB50BAD01602FDB
:103B800066956695669570E0077011F06F5F7F4FE0
:103B9000DB01A20FB31FBA83A98339017694762C77
:103BA000662477946794680E791EE12CF12C00E06E
:103BB00010E02301B0E84B0E511C68E070E0DB011F
:103BC000A41BB50BBC83AB8369817A8126173707A9
:103BD00009F46FC02830310509F46BC02F3FBFEFE7
:103BE0003B070CF45BC0B201600F711FDB01A754EF
:103BF000BE4FBE83AD83D801A60DB71DA754BE4FDF
:103C00006C0160E070E0681579050CF047C0E0E8F1
:103C1000CE16D10409F442C0D7FC34C02F3FFFEFC9
:103C20003F0709F442C0FB01EE0DFF1DEA0DFB1D2D
:103C3000E491042E01C0EE0F0A94EAF73C90E329C8
:103C4000EC9341155105F1F027303105D9F0FB0116
:103C5000EE0DFF1DEA0DFB1DE4912E2E312CF1011E
:103C60000B8002C0F595E7950A94E2F7F887EF8399
:103C7000ED81FE813080EF81F885E3291F01ED8120
:103C8000FE8120826F5F7F4FED81FE813196FE8342
:103C9000ED83FFEFCF1ADF0A1196B5CF2F5F3F4FAD
:103CA00000581F4FE80CF91C8FCF4115510579F6CC
:103CB000E9CF28960FB6F894DEBF0FBECDBFDF91D7
:103CC000CF911F910F91FF90EF90DF90CF90BF9019
:103CD000AF909F908F907F906F905F904F903F90AC
:103CE0002F900895EF92FF920F93CF93C82F7B01EF
:103CF000F70144914423E1F0403231F0413614F4AD
:103D0000405303C0475501C044E283E04802A0018C
:103D10001124465F504E08E023E061E070E08C2FF4
:103D200090E00E94731DCC5FEFEFEE1AFE0AE0CF29
:103D30008C2FCF910F91FF90EF900895CF92DF924B
:103D4000EF92FF920F93CF93C82F6A01E62EF12CCA
:103D5000F60121916F01222389F0205383E028028C
:103D600090011124A901465F504E08E023E0B701FD
:103D70008C2F90E00E94731DCC5FEACFCF910F9102
:103D8000FF90EF90DF90CF900895CF93DF93AC0139
:103D9000C7E0D0E06CE270E08CE290E0AAE5B0E031
:103DA000B695A795219731F18A35910508F5FC0163
:103DB000EE0FFF1FEA5AF14E259134912417350773
:103DC00050F49D012F5F3F4F36952795280F391FDF
:103DD000BC01C901E5CF4217530760F49D012F5F75
:103DE0003F4F36952795BC01621B730B9B01F0CFAB
:103DF00089E590E09C01220F331F2A5A314EF901C8
:103E0000A591B491F901A417B50729F0A591B49132
:103E1000A41BB50B05C025913491DA01A21BB30B8D
:103E20009B01220F331F2A5A314EF901C591D491BB
:103E3000F901C417D50739F025913491F901E41B34
:103E4000F50BAF0104C025913491421B530B4A1767
:103E50005B0708F4CB01DF91CF910895BF92CF9219
:103E6000DF92EF92FF920F931F93CF93DF93182F60
:103E7000062FF42EE9010E94271C181614F080E08A
:103E8000CEC08E3108F0CBC0E82FF0E0E959FE4FEC
:103E9000E081EA31E9F4809122074DE157E0EA013F
:103EA00066E09C2F941B981708F08FC02991629FA1
:103EB0009001112426543A4FD901A759BE4F9C9125
:103EC0009113EFCF11969C919013EBCFE0E07DC062
:103ED000EF3009F07AC0B12C86E0E82E809184079B
:103EE000B81668F6AB2DB0E0EA9E9001EB9E300D5F
:103EF000112426543A4FF901E057FE4F8081319743
:103F00009081191360C0682F70E08017B1F034966B
:103F10008081801708F457C031978081081708F412
:103F200052C09B0146E0220F331F4A95E1F7215C06
:103F30003F4F81E02C173D0708F080E0680F711DAE
:103F40002091B7013091B801243B310514F023E0F2
:103F500001C021E0EA9EA001EB9E500D1124FA0160
:103F6000E85BF84F6F01FA01E55BF84F9081FB01C8
:103F700036E0EE0FFF1F3A95E1F7E90FF11D213012
:103F800091F481110AC0EC17FD0708F1A601812FF9
:103F90000E94D31C8823B9F01AC0EC17FD0708F45F
:103FA0006ECF91E015C0882351F0CE17DF07C8F31C
:103FB000A601812F0E94D31C882329F0F2CFCE17AF
:103FC000DF0728F45CCFB39489CF8E2F28C090E010
:103FD000809185078F3FB1F4F601838181110CC078
:103FE0009E012F5F3F4F2F733327232B29F48F2DF3
:103FF0008F738093850706C0CF73C81B9111C05C77
:10400000C09385078091850780341CF08FE38093EF
:1040100085078091850787FD109285078FE0DF91E6
:10402000CF911F910F91FF90EF90DF90CF90BF90B5
:104030000895BF92CF92DF92EF92FF920F931F935A
:10404000CF93DF9300D0CDB7DEB77C016B01622F39
:10405000842F2A8349830E94531CB82E602FC701E6
:104060000E94131C182F2A814981B11025C00023FA
:1040700011F061E001C06FEF620F842F0E94531CAA
:10408000B82E8FE0B81215C0212F30E0002331F098
:10409000602FC7010196820F931F05C060E0C70122
:1040A0000197821B930B0E94131C180F803120F480
:1040B00005C0B11003C0105C90E001C092E02091F7
:1040C000C205022E000C330B215F3F4F412F50E001
:1040D00024173507F4F0113150F020EF210F30E0B4
:1040E000002319F0E20EF31E02C0E21AF30AF601F1
:1040F000F182E082FFE0BF120CC0E0918A07F091EC
:104100008B07808185FF05C080918F078160809338
:104110008F07892F103108F481600F900F90DF9185
:10412000CF911F910F91FF90EF90DF90CF90BF90B4
:104130000895CF92DF92EF92FF920F931F93CF9348
:10414000DF936C017A018B01C0E0D0E0CE15DF0572
:1041500089F0D8016D918D01D601ED91FC9101900E
:10416000F081E02DC6010995892B11F47E0102C072
:104170002196ECCFC701DF91CF911F910F91FF9056
:10418000EF90DF90CF9008950895089580E090E03B
:1041900008950E9483328FB18095807F669B8860EE
:1041A0001C9B846008953FB7F8948091F00790912C
:1041B000F107A091F207B091F30726B5A89B05C0BF
:1041C0002F3F19F00196A11DB11D3FBFBA2FA92F96
:1041D000982F8827820F911DA11DB11DBC01CD0113
:1041E00042E0660F771F881F991F4A95D1F70895FF
:1041F0001F920F920FB60F9211242F933F938F931C
:104200009F93AF93BF938091EB079091EC07A091A0
:10421000ED07B091EE073091EF0723E0230F2D3724
:1042200020F40196A11DB11D05C026E8230F0296BA
:10423000A11DB11D2093EF078093EB079093EC072E
:10424000A093ED07B093EE078091F0079091F107EE
:10425000A091F207B091F3070196A11DB11D8093C3
:10426000F0079093F107A093F207B093F307BF9183
:10427000AF919F918F913F912F910F900FBE0F9013
:104280001F901895CF93DF93CDB7DEB7EF970FB69A
:10429000F894DEBF0FBECDBF789484B5826084BD34
:1042A00084B5816084BD85B5826085BD85B581603A
:1042B00085BD80916E00816080936E0010928100B8
:1042C0008091810082608093810080918100816073
:1042D0008093810080918000816080938000809134
:1042E0009100826080939100809191008160809321
:1042F0009100809190008160809390008091C10036
:1043000084608093C1008091C10082608093C1006D
:104310008091C10081608093C1008091C300816061
:104320008093C3008091C00082608093C000809120
:10433000C20081608093C20080917A008460809383
:104340007A0080917A00826080937A0080917A006E
:10435000816080937A0080917A00806880937A00EF
:104360001092A2011092B0011092B1018091D70079
:1043700081608093D70080EA8093D80089B58061FE
:1043800089BD89B5826089BD09B400FEFDCF61E0B9
:1043900070E080E090E00E94541B8091D8008F7CF8
:1043A00080618093D8008091E000807F8093E0005E
:1043B0008091E1008E7E8093E1008DE08093E200A9
:1043C000559A209AEEEFFFE7859194918B3F9C4D93
:1043D00019F481E08093AF0181E28093970781EC2B
:1043E00080937C0085B1806F85B984B1877E84B964
:1043F00084B1876E84B95E9A5F988AB1806D8AB9FC
:10440000769A6E9881B3806F81BB899880B38D70E6
:1044100080BB80E58CBD81E08DBD0E9448175F9A0E
:104420000E9448175E985C98ECE8FDE08DE08E0FE6
:1044300094919EBD00000DB407FEFDCF31968E1302
:10444000F7CF5C9A81E88093640080916500816079
:10445000809365000E94CB2087FF0AC08091640092
:1044600080628093640081E083BF889513BEFCCF97
:1044700086ED93E09093BD058093BC0580E992E0C2
:104480009093BF058093BE0588E08093C20510928B
:10449000C3051092C1051092C00581E28093C50545
:1044A0001092C40581E08093C6051092C705109252
:1044B000C8051092C9051092CA051092CB0510923A
:1044C000CC051092D70588EF8093D8051092D905B6
:1044D0001092DA051092CE051092D6051092CF05F3
:1044E0001092D40585E0EDE1F7E0DF011D928A9599
:1044F000E9F7109222071092410710924707109295
:1045000011071092840710928C0710928D0710E209
:10451000812E912C22E0D12C06E0702E442443946D
:1045200081E1582E99E0692E35E0C32EE0E2AE2EEF
:10453000B12C00E0F3E03F2EA7E02A2E602F8D2D56
:104540002FAF0E94271C182F2FAD87FF22C080910C
:1045500011078A3008F0DCC091E0980F90931107A2
:104560001058219EB00111246756724FBFE1B89FC9
:104570007001112447E050E0C70185529A4F0E9414
:104580008535F701E654FA4F91A680A6B3A6A2A6F8
:104590002FAD1E3108F0BCC086EE810F843090F53F
:1045A00080914107853070F591E0980F9093410715
:1045B00090E0789EA001799E500D112446545A4FE8
:1045C000FA01E759FE4FD082319600831B3111F07A
:1045D0001D3151F4789EF001799EF00D1124E85DB3
:1045E000F84F30813160308334EE310F323050F487
:1045F000789EF001799EF00D1124E85DF84F8081DE
:104600008260808381EF810F873008F07EC0223086
:1046100009F046C0809184078A3008F080C091E09C
:10462000980F9093840790E0789E9001799E300DCA
:104630001124A901485B584F50938B0740938A0778
:1046400026543A4FF901E257FE4F10821F30B1F065
:104650004082D901A157BE4FDC9211960C931231C2
:1046600011F430820BC0133111F4C08207C0143131
:1046700011F4608203C0153109F45082789E9001D4
:10468000799E300D1124C90186549A4FFC01EE56D3
:10469000FE4F0083319600833297108221E038C0AC
:1046A0002130A9F51F30D9F0E0918A07F0918B07EE
:1046B000123119F48081826009C0133119F48081AC
:1046C000846004C0143129F480818860808322E0F2
:1046D00006C022E0153119F4808180618083E09169
:1046E0008A07F0918B078EEE810F843018F4D18207
:1046F000028305C0113119F4808180628083E091CA
:104700008A07F0918B07058303C022E001C020E0F7
:104710000F5FE0E4AE0EB11C003409F00FCFD3946C
:10472000F0E48F0E911CB0E42B2ED210FFCE10922D
:104730008B0710928A070E9462138FB7F8944091FA
:10474000EB075091EC076091ED077091EE078FBF7A
:1047500080919807342E381A832D909199079923C8
:1047600031F030929A07109299070C94932D909102
:104770009707391658F48F5F891710F00C94932D12
:1047800081E083BF889513BE0C94932D11E01093A4
:104790009907409398078091930790919407019609
:1047A0009093940780939307809195078093960741
:1047B0000E94CB20809395070E9462138FB7F894D4
:1047C0004090EB075090EC076090ED077090EE077B
:1047D0004DAA5EAA6FAA78AE8FBF80918C078F70AA
:1047E00069F480918F0780FF07C010938D07809137
:1047F000C5058A508093C50510928F0780918D075B
:10480000882381F081E0E9EBF1E081118FEF002452
:1048100081938193819381930394D1F710928D07B3
:104820000C94842D8091CD0587FD815F282F2595DF
:104830002595259525958091C0059091C105820FFC
:10484000911D27FD9A9597FF03C088599E4F06C07A
:10485000883601E0900714F0885691409093C10586
:104860008093C005E090C005F090C1051AE5E116FF
:10487000F10420F428E9E21A2EEFF20A3AE5E31AED
:10488000F1088091CE058823A1F09091CF0599235E
:1048900019F094509093CF059091CF0591311CF071
:1048A00040E248A302C050E158A381508093CE0556
:1048B00013C00E94CB2082FF0AC080E48093CF0502
:1048C0008AE18093CE0518A261E06F8F06C08091C7
:1048D000D9058093CF0518A21F8E0E94CB2083FF9D
:1048E00088C0E091C005F091C105E251F34EE4911A
:1048F000C090BC05D090BD05CE0ED11CE7FDDA946A
:10490000F701E251F34EE4910091BE051091BF050D
:104910000E0F111DE7FD1A95C6010E94C11CB82E8D
:10492000C8010E94C11CA82E9801A601682F8B2DDA
:104930000E942E1F8A3109F04BC08091410790E000
:10494000E3E2F7E0981709F454C020812B113DC031
:1049500021812A113AC08581282F227081FF18C039
:104960008091CB05811114C0E0E8FCE18591949120
:104970009093D1058093D005E0E7FCE18591949177
:104980009093D3058093D20588E78093D40531C0F6
:10499000828181112EC0222341F08091CB0581506C
:1049A0008093CB0585818D7F858381E0828313820F
:1049B0008FE38483E091470781E08E0F8093470760
:1049C000F0E0EE5BF84F908314C036969F5FBACF4D
:1049D0008091D60581110AC08091C40590E00196AE
:1049E000837099278093C4058FE001C08150809324
:1049F000D60588E08093C2050EEB15E02CEB35E080
:104A00004091CC05B7018091C0059091C1050E94ED
:104A10000A12C12C76E0D72E10E480918407C816C4
:104A200008F002C1EC2CF12CDE9C9001DF9C300DD3
:104A3000112426543A4FF901E257FE4F9081492F35
:104A400050E055954795842F8F70D901AF56BE4FD2
:104A5000092F01704C9190FF21C0480F403411F094
:104A60004C9307C01C92D901A057BE4F2C912F5FC9
:104A70002C93DE9C9001DF9C300D112426543A4F7C
:104A8000A90140575E4FD901AD56BE4FFA01508182
:104A90004C91541327C015979E7F23C0411107C026
:104AA0001C93D901A057BE4F2C9121502C93DE9C12
:104AB0009001DF9C300D112426543A4FD901AF5696
:104AC000BE4F6C91681B6C93A90140575E4F1196C5
:104AD000FA0150814C91541305C0611103C0149721
:104AE00091609C93DE9CA001DF9C500D11244654E4
:104AF0005A4FDA01A057BE4F9C9111962C9130E08D
:104B0000F0E49F9F200D311D1124B901615C7F4F9E
:104B100012979C914091BE055091BF05DA015096C5
:104B20002A173B0718F4A617B70750F0DA01509779
:104B30002A173B0708F076C0A617B70708F072C01F
:104B400060E4969F900111246091BC057091BD05B1
:104B5000D9015097A617B70708F064C0205B3F4FF4
:104B60006217730708F05EC090E0002339F0840FED
:104B7000951F9093BF058093BE0506C0481B590B37
:104B80005093BF054093BE058091BE059091BF052F
:104B90000E94C11C982E8091BC059091BD050E9479
:104BA000C11C882E692D0E94531C882361F18F300F
:104BB00041F52091C0053091C105590174EBA70E54
:104BC000B11C8091BE059091BF05A8E6AA16A1E090
:104BD000BA0620F05901B4EBAB1AB108022F292D07
:104BE000482DBC010E941920B82E8091BE059091DD
:104BF000BF050A2D292D482DBC010E9419208B29A3
:104C000080FD1092C505DE9CF001DF9CF00D1124A3
:104C1000E85BF84F808185FF05C080918F07816038
:104C200080938F07C394F9CE2090C0053090C105C2
:104C3000C10180972C01990F660877084A8E5B8E18
:104C40006C8E7D8E77FE0AC09301820108591E4F3B
:104C50002F4F3F4F0A8F1B8F2C8F3D8F10E2210E5D
:104C6000311C032C000C4408550828E6221621E0CC
:104C700032064104510434F038E6231A31E0330A95
:104C8000410851082091D7058091D905082E000CC4
:104C9000990B820F911D27FD9A953C0134E0759484
:104CA00067943A95E1F779A668A610921C07E12C63
:104CB0004FE1F42E80911107E81608F04BC2CE2C7C
:104CC000D12CFC9CF001FD9CF00D1124E654FA4F10
:104CD00081A181FD3DC2A090BC05B090BD0580A51D
:104CE00091A5A816B90630F48C010A191B095801C0
:104CF00081E003C0A81AB90A82E08090BE059090B6
:104D0000BF05FC9CF001FD9CF00D1124E654FA4F08
:104D100022A533A58216930638F4A901481959092A
:104D20004A0124E0722E04C0821A930A98E0792E78
:104D3000780EA814B904D0F4C40106E0880F991FB6
:104D40000A95E1F752E0A516B10420F0B5010E94E2
:104D50004632CB010E94C51E0AE510E0081B190B64
:104D6000F801E251F34EE491C40119C0C50116E007
:104D7000880F991F1A95E1F762E08616910420F0DA
:104D8000B4010E944632CB010E94C51E8C01EAE5A7
:104D9000F0E0E81BF90BE251F34EE491C501A0E00D
:104DA000B0E0BC01CD01B6E0660F771F881F991FE8
:104DB000BA95D1F72E2FEE0F330B440B550B0E94F3
:104DC000C03575E0771206C08AE590E0801B910B34
:104DD0008C0111C096E0791203C0065A1F4F0BC018
:104DE000A9E07A1203C0025F1E4F05C0EEE0F1E0B9
:104DF000E01BF10B8F01FC9CF001FD9CF00D1124D8
:104E0000E654FA4F94A046E6949E30011124C30163
:104E100095958795959587958217930708F498C17E
:104E20002115310509F494C183A1869550E4859F2D
:104E3000C0011124B9010E944632762F49E050E0AA
:104E4000F3EBAF2EB12C83EB90E0A8E6B1E0B69582
:104E5000A7954150510901F18836E1E09E07D0F451
:104E6000FC01E251F34EE491E7174CF4FD01319659
:104E7000F695E795E80FF91F5C01CF01E8CF7E17A3
:104E80005CF4FD013196F695E7955C01AE1ABF0A18
:104E9000F501F2CF87E691E0FC01E251F34E749107
:104EA000462F660F550B672F770F770B641B750B1B
:104EB000161617063CF4A4910A2E000CBB0BA41B7B
:104EC000B50B06C0E491DA01AE1BB109E7FDB3955D
:104ED000F501E251F34E6491062E000C770B641B32
:104EE000750B161617064CF4E4910E2E000CFF0BF2
:104EF000BF01641B750BAB0105C0E4914E1B51094A
:104F0000E7FD53954A175B070CF4C5016AE570E0AD
:104F10000E945A326A8D7B8D681B790B77FF02C025
:104F200068597E4FAC01420D531D4836A1E05A0727
:104F300014F048565140061717075CF0605C7F4F2D
:104F4000FC01EE0FFF1F6E0F7F1FA1E060177107BE
:104F50000CF4A0E0401751074CF040545109880F61
:104F6000991F481B590B041715071CF4AA2309F4B1
:104F700065C0FC9CF001FD9CF00D1124E654FA4F35
:104F800081A180FD5AC003A8F4A9E02DE43BF105FE
:104F9000A0F0A8014E1B5F0BCA018C549F4FBF01AC
:104FA000645B71096017710710F50E171F07F8F49D
:104FB00084EB90E0841B950B1AC0E017F10748F4CE
:104FC000CF018C549F4F0817190718F4801B910BC1
:104FD0000EC0C8018C549F4F68E671E00E944632B3
:104FE0008E1B9F0BE8E6F1E0E81BF90BCF01AC014B
:104FF0004D5251094E30514048F0FC9CF001FD9C4F
:10500000F00D1124E654FA4F15AA17C0FC9CF001CC
:10501000FD9CF00D1124E654FA4F8738910520F4D9
:10502000AA24A394A5AA09C0813E910520F462E0B8
:10503000B62EB5AA02C043E045ABA1E0FC9CF0014E
:10504000FD9CF00D1124E654FA4F12AA37A726A7AB
:1050500011AB00ABAA2309F47BC0A92CB12CC3016E
:10506000B9010E9446328B0177AF66AF85A18823D4
:1050700049F056E68502C0011124B9010E945A3256
:105080009B0102C020E030E0C501982F8827990FCE
:10509000990F990F81509440B801615071090E9495
:1050A0004632FC9CF001FD9CF00D1124E654FA4FB1
:1050B00075AF64AF13AE12AE88E390E0801B910B26
:1050C00097FD019695958795820F931F68A479A403
:1050D000860D971DFC9CF001FD9CF00D1124E654FB
:1050E000FA4F91AF80AF97FF13C044275527481B55
:1050F000590B469F9001479F300D569F300D11244C
:1051000033AF22AF800F911F97AF86AF11AE10AEB5
:10511000FC9CF001FD9CF00D1124E654FA4F20ADEB
:1051200031ADFE9680819181820F931FC99734F033
:1051300088E390E0821B930B91838083E0911C07AE
:1051400081E08E0F80931C07F0E0EE5EF84FE08266
:10515000E394B0CD30911C0780E0831798F4882346
:1051600059F0E82FF0E0DF01AE5EB84F9C91EF5EA2
:10517000F84F2081921710F08F5FEFCF2C93908320
:105180008150EBCFAA8CBB8CB092B801A092B70132
:105190001092A001188E1F8A8091A001803408F01F
:1051A00023C48091B7019091B801909389078093AF
:1051B00088078090BC059090BD050091BE051091B8
:1051C000BF056801C4010E94C11C8DA38091BE056A
:1051D0009091BF050E94C11C8E8F8091B701909164
:1051E000B8018A3591050CF065C04091880750914F
:1051F00089074115510559F18091BE059091BF0570
:105200008F73992720E430E0281B390BEAE5F0E0A2
:10521000E41BF50BEE0FFF1FEA5AF14EA591B49176
:105220000E9476320E94C81C880E991E80918807C1
:1052300090918907EAE5F0E0E81BF90BEE0FFF1FFC
:10524000EA5AF14EE590F490F986E88602C0198694
:105250001886E0918807F0918907309709F480C19A
:105260008091BC059091BD058F73992720E430E0B3
:10527000281B390BEE0FFF1FEA5AF14EA591B4918E
:105280000E9476320E94C81C6C01C00ED11EE091B3
:105290008807F0918907EE0FFF1FEA5AF14E05913A
:1052A00014911B870A871F8211E01D83198E01E06C
:1052B0000D8780C1843B91050CF070C024EB30E079
:1052C000A901481B590B50938907409388074A3519
:1052D000510581F12091BE053091BF052F73332711
:1052E00060E470E0621B730B9B01EAE5F0E0E41BF5
:1052F000F50BEE0FFF1FEA5AF14EA591B4910E94F3
:1053000076320E94C81C881A990A80918807909169
:105310008907EAE5F0E0E81BF90BEE0FFF1FEA5AF8
:10532000F14E8591949122243324281A390A398622
:10533000288602C019861886E0918807F0918907AF
:10534000EA35F10509F415C12091BC053091BD0580
:105350002F7333272F5F3F4FEE0FFF1FEA5AF14E97
:10536000A591B4910E9476320E94C81C6C01C00EB7
:10537000D11EE0918807F0918907EE0FFF1FEA5ACE
:10538000F14E459054905B864A8601E00F8311E010
:105390001D8302E0098F1FEF1D87F5C08E3021E0CD
:1053A00092070CF070C080918807909189079C014A
:1053B000245B31093093890720938807232B69F1F7
:1053C0002091BE053091BF052F7333272F5F3F4FCC
:1053D000EEE0F1E0E81BF90BEE0FFF1FEA5AF14E89
:1053E000A591B4910E9476320E94C81C881A990A2D
:1053F0008091880790918907EAE5F0E0E81BF90BB6
:10540000EE0FFF1FEA5AF14E859194912224332426
:10541000281A390A3986288602C019861886E0912A
:105420008807F0918907309709F4AFC02091BC0537
:105430003091BD052F7333272F5F3F4FEE0FFF1FB6
:10544000EA5AF14EA591B4910E9476320E94C81C8E
:105450006801C81AD90AE0918807F0918907EE0F10
:10546000FF1FEA5AF14E8591949144245524481A1D
:10547000590A5B864A8601E00F831D8214E0198F6A
:105480000FEF0D8796C028E631E0A901481B590BA4
:1054900050938907409388074A35510549F1209177
:1054A000BE053091BF052F7333272F5F3F4FEAE5CD
:1054B000F0E0E41BF50BEE0FFF1FEA5AF14EA59149
:1054C000B4910E9476320E94C81C880E991E809169
:1054D000880790918907EAE5F0E0E81BF90BEE0FE9
:1054E000FF1FEA5AF14E259034903986288602C073
:1054F00019861886E0918807F0918907EA35F10549
:1055000009F44FC08091BC059091BD058F73992718
:1055100020E430E0281B390BEE0FFF1FEA5AF14E52
:10552000A591B4910E9476320E94C81C6801C81AE5
:10553000D90AE0918807F0918907EE0FFF1FEA5A18
:10554000F14E8591949144245524481A590A5B865A
:105550004A861F821D8206E0098F11E01D871EC04A
:105560001F8211E01D83198E01E00D871B861A86AC
:1055700021C001E00F8311E01D8302E0098F1FEFBE
:105580001D871B861A8601E00AC011E01F831D8259
:1055900004E0098F1FEF1D871B861A860FEF0C870B
:1055A0000AC01F821D8216E0198F01E00D871B863D
:1055B0001A861FEF1C872C843E8C230C298A4D846D
:1055C0005DA0450C4E8A8091880790918907EAE595
:1055D000F0E0E81BF90BE251F34E64906BA6FC017E
:1055E000E251F34E74907CA68885998597FD0196CB
:1055F0005C01B594A794BEA6ADA60C8510E201028D
:1056000070011124F8AAEFA68A859B8597FD019663
:105610001C01359427943AAA29AA0D8510E20102AB
:10562000200111245CAA4BAA1EA21FA21AA62BA419
:10563000022C000C33083AA229A24CA4042C000C22
:1056400055085CA24BA27E8C672C712C7EAE6DAE91
:10565000C4010E94C11C8E878091B7019091B8014E
:10566000009709F449C0843B910509F445C0AEA0F8
:10567000A110A3C26E8D8DA10E94271C8E3108F04F
:105680009CC2E82FF0E0E959FE4F80818F3009F08D
:1056900094C2709184074091B7015091B8018AEB90
:1056A00095E060E0671709F488C2FC01E257FE4FFD
:1056B000DC01AF56BE4F2C912223D9F012972C91CA
:1056C000BDA0B21216C011962C91EE8CE21669F0B4
:1056D00030E02F5F3F4F0DAD1EAD0217130749F4A9
:1056E000443B510534F061E029C2443B51050CF4C0
:1056F00024C26F5F0696D6CFEE24EA94FE2C0FEFFD
:105700001FEF188B0F871E82C6010E94C11C8A8B57
:105710008091B7019091B8018A35910509F4E0C0F4
:105720008E30914009F4DCC00D850130B1F4960152
:105730004F89588D6A898E890E942E1F782E81117B
:1057400022C01E891F5F1E8B2A843B84C20CD31C7F
:10575000C6010E94C11C8A8BEACF96014F89588DE1
:105760006A898E890E942E1F782E81110CC00E89A5
:1057700001500E8B2A843B84C20CD31CC6010E94AC
:10578000C11C8A8BEACF4E8800E4409E2001112480
:10579000588E4F8A0D850F3F29F49201215C3F4FAF
:1057A000388F2F8B0091BC051091BD052F88388C48
:1057B0000215130520F4201A310A810104C04F8814
:1057C000588C041915092091BE053091BF052C1580
:1057D0003D052CF45601A21AB30A950102C02C19FA
:1057E0003D09A9A1BAA10E9476320E94C81C5C01A1
:1057F0009801ABA1BCA10E9476320E94C81CA80EE1
:10580000B91E0AE170124AC0A9A9BAA9AC0DBD1D02
:10581000AD010B2E000C660B770B8F89988D2BA892
:105820003CA8820D931D6090BC057090BD0583015E
:1058300020E030E01C01412C512C021513052405F9
:1058400035052CF49C0126193709390102C0681A64
:10585000790A8091BE059091BF051C01412C512C05
:10586000241635064606570624F49D01281B390BDD
:1058700003C09C012A1B3B0BA9A1BAA10E9476324E
:105880000E94C81C8C019301ABA1BCA10E9476327E
:105890000E94C81C9C01200F311F14C03FE07312EE
:1058A0000DC0209085072FA20091860710918707D1
:1058B0000F3F2FEF120709F1980120C029E2721261
:1058C00051C29501E216F30608F44EC259E2752E54
:1058D0001E811A31F9F42E153F0508F450C20AC092
:1058E0000E810A3109F069C5712C2FEF3FEFAA2410
:1058F000AA94BA2C6D800AE146C295010E810F3040
:1059000039F72F8438882A143B0421F40FEF1FEF56
:10591000188B0F872F843888A214B30498F01701CE
:10592000412C512C0E810F3009F43BC2C40160E4BC
:1059300070E00E945A32182F6D807E8009890A8B90
:1059400000E01CC06D801E891E871901412C512C5E
:105950004FE074120AC080918607909187070196E4
:1059600009F422C26D821FA11DC2C60160E470E06D
:105970000E945A32182F0F810D8301E04AE1741200
:1059800017C06E2D5F85651B2CA52603B001112461
:10599000072E000C880B990B0E94C81C2091B701A0
:1059A0003091B8012A553109243B3105C0F015C0AA
:1059B00049E27412FFC12A195BA55203B0011124F8
:1059C000072E000C880B990B0E94C81C2091B70170
:1059D0003091B801243B310510F4180F01C0181B99
:1059E00017FDEFC11F73EEC148A142954F70F0E261
:1059F0004F9FA00111244C58514F8091CF05082E84
:105A0000000C990B64E0959587956A95E1F76AE239
:105A100070E0681B790B00E120E188E390E00E94D0
:105A2000731D40E850E064EF7DE089E395E00E945B
:105A300085358091C5051F928F937DE9E72E71E032
:105A4000F72EFF92EF928E010F5F1F4F1F930F9360
:105A50000E948832A8016BE38EE30E949E1EE091B3
:105A6000C405F0E0E654FA4F85851F928F93FF92AC
:105A7000EF921F930F930E948832A8016BE385E297
:105A80000E949E1E8091D4050FB6F894DEBF0FBE13
:105A9000CDBF882381F081508093D4056091D005DB
:105AA0007091D10581E00E94721E6091D2057091C3
:105AB000D3050E94721E80918C078F5F80938C07A4
:105AC0002FB7F8948091EB079091EC07A091ED0728
:105AD000B091EE072FBF4DA95EA9841B950B9F9334
