:100000000C9450110C9478110C9478110C94781174
:100010000C9478110C9478110C9478110C9478113C
:100020000C9478110C9478110C948F120C94011389
:100030000C9478110C9478110C9478110C9478111C
:100040000C9478110C9478110C9478110C9478110C
:100050000C9478110C9478110C9478110C945B2109
:100060000C9478110C9478110C9478110C947811EC
:100070000C9478110C9478110C9478110C947811DC
:100080000C9478110C9478110C9478110C947811CC
:100090000C9478110C9478110C9478110C947811BC
:1000A0000C9478110C9478110C9478110000804015
:1000B0002020202020202020A060E000003F2121DF
:1000C000212121212121213F20100F000000C0E02B
:1000D000F0F0E0C0E0F0F0E0C00000000000010738
:1000E0000F1F3F3F3F1F0F070100000000000000EF
:1000F00000000000000000000000000000003C4084
:10010000403040403C00001C10780000000000001F
:1001100000000000000000000000000000003C4063
:10012000403040403C000044547C0000000000008F
:1001300000000000000000000000000000003C4043
:10014000403040403C000074545C0000000000005F
:1001500000000000000000000000000000003C4023
:10016000403040403C000000087C000000000000DF
:10017000000000000000008080800000041C040CCF
:10018000041C0404040E1F3131311F0E0000000056
:1001900000000000000080C0E0F0F0F0F0F0F0E0BF
:1001A000C08000000000000000000000000000000F
:1001B0000000000000000F1F3F7E76EFEF767E3FCD
:1001C0001F0F000000000000000000000000000001
:1001D00000000000000010180C06FFFFFFFF060CD7
:1001E00018100000000000000000000000000000E7
:1001F0000000000000202030180C070303070C1833
:10020000302020000000000000000000000000007E
:1002100000000000000080C0E0F0F0F0F0F0F0E03E
:10022000C08000000000000000000000000000008E
:100230000000000000000F1F3F7E76EFEF767E3F4C
:100240001F0F000000000000000000000000000080
:1002500000000000000010180C06FFFFFFFF060C56
:100260001810000000000000000000000000000066
:100270000000000000202030180C070303070C18B2
:1002800030202000000000000000000000000000FE
:1002900000000000000080C0E0F0F0F0F0F0F0E0BE
:1002A000C08000000000000000000000000000000E
:1002B0000000000000000F1F3F7E76EFEF767E3FCC
:1002C0001F0F000000000000000000000000000000
:1002D00000000000000010180C06FFFFFFFF060CD6
:1002E00018100000000000000000000000000000E6
:1002F0000000000000202030180C070303070C1832
:10030000302020000000000000000000000000007D
:1003100000000000000080C0E0F0F0F0F0F0F0E03D
:10032000C08000000000000000000000000000008D
:100330000000000000000F1F3F7E76EFEF767E3F4B
:100340001F0F00000000000000000000000000007F
:1003500000000000000010180C06FFFFFFFF060C55
:100360001810000000000000000000000000000065
:100370000000000000202030180C070303070C18B1
:1003800030202000000000000000000000000000FD
:1003900000000000000080C0E0F0F0F0F0F0F0E0BD
:1003A000C08000000000000000000000000000000D
:1003B0000000000000000F1F3F7E76EFEF767E3FCB
:1003C0001F0F0000000000000000000000000000FF
:1003D00000000000000010180C06FFFFFFFF060CD5
:1003E00018100000000000000000000000000000E5
:1003F0000000000000202030180C070303070C1831
:10040000302020000000000000000000000000007C
:1004100000000000000080C0E0F0F0F0F0F0F0E03C
:10042000C08000000000000000000000000000008C
:100430000000000000000F1F3F7E76EFEF767E3F4A
:100440001F0F00000000000000000000000000007E
:1004500000000000000010180C06FFFFFFFF060C54
:100460001810000000000000000000000000000064
:100470000000000000202030180C070303070C18B0
:1004800030202000000000000000000000000000FC
:1004900000000000000080C0E0F0F0F0F0F0F0E0BC
:1004A000C08000000000000000000000000000000C
:1004B0000000000000000F1F3F7E76EFEF767E3FCA
:1004C0001F0F0000000000000000000000000000FE
:1004D00000000000000010180C06FFFFFFFF060CD4
:1004E00018100000000000000000000000000000E4
:1004F0000000000000202030180C070303070C1830
:10050000302020000000000000000000000000007B
:1005100000000000000080C0E0F0F0F0F0F0F0E03B
:10052000C08000000000000000000000000000008B
:100530000000000000000F1F3F7E76EFEF767E3F49
:100540001F0F00000000000000000000000000007D
:1005500000000000000010180C06FFFFFFFF060C53
:100560001810000000000000000000000000000063
:100570000000000000202030180C070303070C18AF
:1005800030202000000000000000000000000000FB
:1005900000000000000080C0E0F0F0F0F0F0F0E0BB
:1005A000C08000000000000000000000000000000B
:1005B0000000000000000F1F3F7E76EFEF767E3FC9
:1005C0001F0F0000000000000000000000000000FD
:1005D00000000000000010180C06FFFFFFFF060CD3
:1005E00018100000000000000000000000000000E3
:1005F0000000000000202030180C070303070C182F
:10060000302020000000000000000000000000007A
:1006100000000000000080C0E0F0F0F0F0F0F0E03A
:10062000C08000000000000000000000000000008A
:100630000000000000000F1F3F7E76EFEF767E3F48
:100640001F0F00000000000000000000000000007C
:1006500000000000000010180C06FFFFFFFF060C52
:100660001810000000000000000000000000000062
:100670000000000000202030180C070303070C18AE
:1006800030202000000000000000000000000000FA
:1006900000000000000080C0E0F0F0F0F0F0F0E0BA
:1006A000C08000000000000000000000000000000A
:1006B0000000000000000F1F3F7E76EFEF767E3FC8
:1006C0001F0F0000000000000000000000000000FC
:1006D00000000000000010180C06FFFFFFFF060CD2
:1006E00018100000000000000000000000000000E2
:1006F0000000000000202030180C070303070C182E
:100700003020200000000000000000000000000079
:1007100000000000000080C0E0F0F0F0F0F0F0E039
:10072000C080000000000000000000000000000089
:100730000000000000000F1F3F7E76EFEF767E3F47
:100740001F0F00000000000000000000000000007B
:1007500000000000000010180C06FFFFFFFF060C51
:100760001810000000000000000000000000000061
:100770000000000000202030180C070303070C18AD
:1007800030202000000000000000000000000000F9
:1007900000000000000000000000000000FF00005A
:1007A0000000000000000000000000000000000049
:1007B0000000000000000000800000C0780F0080F2
:1007C0000000000000000000000000000000000029
:1007D000000000000000422424DB245F5E24DB24B0
:1007E00024420000000000000000000000000000A3
:1007F00000000000000000000100000000000001F7
:1008000000000000000000000000000000000000E8
:1008100000000000000000000000000000000000D8
:1008200000000000000000000000000000000000C8
:1008300000000000FCFC3333C3C3C3C3C3C3C3C342
:100840003333FCFC0000000000000000000000004A
:1008500000000000FFFF3333CCCC3333CCCC333338
:10086000CCCCFFFF000000000000000000000000F2
:10087000000000003F3FF3F3CCCCF3F3CCCCF3F318
:10088000CCCC3F3F0000000000000000FF9999FF22
:10089000FFFFFF9999FF01FD05050505050565F5B4
:1008A000FD01FF9999FFFFFFFF9999FF1C387266C0
:1008B0004C1832664E1C00FF7C380000000000001F
:1008C000FF001C3872664C1832664E1C8EA7B39916
:1008D0008CA6B3B99C8E00FF0000000000001C3EF7
:1008E000FF000EA7B3998CA6B3B99C8EFFFFFFFF44
:1008F000FFFFFFFFFFFF80BFAFA6A0A0A0A0A0A0AA
:10090000BF8080FFFFFFFFFFFFFFFFFFFF01FD052F
:1009100005050505050505050505FD0101C12111B3
:10092000090505050505091121C101FFFF007F40EB
:10093000404040404040404040407F000007081099
:100940002040404040402010080700FFFF0000000A
:10095000000000C0C0C00000000000000002040849
:100960001020408040201008040200FFFF8080809B
:1009700080808081818180808080808080A090883C
:10098000848281808182848890A080FFFF01FD05A0
:1009900005050505050505050505FD0101C1211133
:1009A000090505050505091121C101FFFF007F406B
:1009B000404040404040404040407F000007081019
:1009C0002040404040402010080700FFFF0000008A
:1009D000000000C0C0C000000000000000020408C9
:1009E0001020408040201008040200FFFF8080801B
:1009F00080808081818180808080808080A09088BC
:100A0000848281808182848890A080FFFF01FD051F
:100A100005050505050505050505FD0101C12111B2
:100A2000090505050505091121C101FFFF007F40EA
:100A3000404040404040404040407F000007081098
:100A40002040404040402010080700FFFF00000009
:100A5000000000C0C0C00000000000000002040848
:100A60001020408040201008040200FFFF8080809A
:100A700080808081818180808080808080A090883B
:100A8000848281808182848890A080FFFF01FD059F
:100A900005050505050505050505FD0101C1211132
:100AA000090505050505091121C101FFFF007F406A
:100AB000404040404040404040407F000007081018
:100AC0002040404040402010080700FFFF00000089
:100AD000000000C0C0C000000000000000020408C8
:100AE0001020408040201008040200FFFF8080801A
:100AF00080808081818180808080808080A09088BB
:100B0000848281808182848890A080FFFF01FD051E
:100B100005050505050505050505FD0101C12111B1
:100B2000090505050505091121C101FFFF007F40E9
:100B3000404040404040404040407F000007081097
:100B40002040404040402010080700FFFF00000008
:100B5000000000C0C0C00000000000000002040847
:100B60001020408040201008040200FFFF80808099
:100B700080808081818180808080808080A090883A
:100B8000848281808182848890A080FFFF01FD059E
:100B900005050505050505050505FD0101C1211131
:100BA000090505050505091121C101FFFF007F4069
:100BB000404040404040404040407F000007081017
:100BC0002040404040402010080700FFFF00000088
:100BD000000000C0C0C000000000000000020408C7
:100BE0001020408040201008040200FFFF80808019
:100BF00080808081818180808080808080A09088BA
:100C0000848281808182848890A080FFFF01FD051D
:100C100005050505050505050505FD0101C12111B0
:100C2000090505050505091121C101FFFF007F40E8
:100C3000404040404040404040407F000007081096
:100C40002040404040402010080700FFFF00000007
:100C5000000000C0C0C00000000000000002040846
:100C60001020408040201008040200FFFF80808098
:100C700080808081818180808080808080A0908839
:100C8000848281808182848890A080FFFF152B154B
:100C9000090301010101010101010101010101013A
:100CA0000105EDFDFD050101010101FFFF002030FF
:100CB00080808080803020000000F8FCFC1C181C24
:100CC000DC1C1F1F0F000000000000FFFF0020338E
:100CD000041E131E043320000000FFFE7F000000EE
:100CE0000400000000000080000000FFFF80808002
:100CF00080808080808080808080FFFFFF80808077
:100D0000808080E09CCAB983A08AA0FFFFFF030314
:100D10000303030303030303FFFF03030303FFFFB3
:100D200003030303FFFF03030303FFFFFFFF0000B1
:100D30008080808080000000FFFF00000000FFFF37
:100D400000000000FFFF00000000FFFFFFFF0000A9
:100D50000131493101000000FFFF00000000FFFFEA
:100D600000000000FFFF00000000FFFFFFFFC0C009
:100D7000C0C0C0C0C0C0C0C0FFFFC0C0C0C0FFFF77
:100D8000C0C0C0C0FFFFC0C0C0C0FFFFD5F08D1401
:100D9000A1C881CFD9F1AF20000C088C078C018C41
:100DA000018C018C016C014C012C010C01EC00CC7C
:100DB00000AC00FE0202C2F23A5A7A5A3A1A1A02F9
:100DC0000202C2F23A5A7A5A3A1A1A0202FE028A07
:100DD000228AAAAAAA020202020202020202020253
:100DE00002020202FE02327AFAF2FA7A32020202B7
:100DF000020202020202020202020202029A5A22C3
:100E0000D2CA02FE0202020202020202020202022E
:100E100002020202020202020202020202020202B2
:100E200002020202020202020202020202020202A2
:100E30000202FEE0F8FCFEFEFFBF9F0F0FFFFEFE6A
:100E4000FCF8E0071F3F7F7FFFFFFFE0E0FF7F7FB1
:100E50003F1F07E0F8FCFEFECF4F4F4F0F0FFEFE87
:100E6000FCF8E0071F3F7F7FE0E0E6E6E6E67F7FF5
:100E70003F1F07E0F8FCFEFECFCF4F4F0F0FFEFEE7
:100E8000FCF8E0071F3F7F7FE7E7E6E6E0E07F7FD3
:100E90003F1F078C0C0C0C8C0C0C0C0C0C8C0B0CD2
:100EA0000B8C0A0C0A8C090C098C0C8C0C8C0C8C8D
:100EB0000C8C0C8C0C8C0C8C0C8C0C8C0C8C0C8C72
:100EC0000C8C0C8C0C8C0C8C0C8C0C8C0C8C0C8C62
:100ED0000C8C0C8C088C0C8C088C0C8C088C0C8C5E
:100EE0000C8C0C8C0C8C0C8C088C0C8C0C8C088C4A
:100EF0000C8C088C0C8C088C0C8C0C8C0C8C0C8C3A
:100F00000C8C088C0C8C0C8C0C8C0C080B000202CA
:100F10000201000904000001020200000524001083
:100F2000010524010101042402060524060001072D
:100F300005810310004009040100020A00000007B7
:100F40000502024000000705830240000004030977
:100F50000412010002EF02014041233600000101AA
:100F600002030141726475696E6F204C4C4300416D
:100F7000726475626F7900796F75206E65656420A3
:100F800061200020636F6C6C656374656400616D43
:100F90006D6F006865616C746800776561706F6E75
:100FA0003400776561706F6E3300776561706F6EC6
:100FB0003200776561706F6E31006B6579000001FA
:100FC0000002000400080010002000400080000320
:100FD0000006000C00180030006000C0008001070F
:100FE000000E001C0038007000E000C00180030FFC
:100FF000001E003C007800F000E001C00380071FE5
:10100000003E007C00F800F001E003C007800F3FC5
:10101000007E00FC00F801F003E007C00F801F7F96
:1010200000FE00FC01F803F007E00FC01F803FFF47
:1010300000FE01FC03F807F00FE01FC03F807FFFB8
:101040000100FE0300FC0700F80F00F01F00E03F66
:1010500000C07F0080FF00FF0300FE0700FC0F00C0
:10106000F81F00F03F00E07F00C0FF0080FF01FF9D
:101070000700FE0F00FC1F00F83F00F07F00E0FFBC
:1010800000C0FF0180FF03FF0F00FE1F00FC3F00B8
:10109000F87F00F0FF00E0FF01C0FF0380FF07FFC3
:1010A0001F00FE3F00FC7F00F8FF00F0FF01E0FFA3
:1010B00003C0FF0780FF0FFF3F00FE7F00FCFF0023
:1010C000F8FF01F0FF03E0FF07C0FF0F80FF1FFFE5
:1010D0007F00FEFF00FCFF01F8FF03F0FF07E0FFC9
:1010E0000FC0FF1F80FF3FFFFF00FEFF01FCFF035B
:1010F000F8FF07F0FF0FE0FF1FC0FF3F80FF7F00FA
:10110000000080B66DDB765A6BADAD244992A46ABF
:10111000B55AABAA55AB55DE7BEF7D20042104AA5E
:101120005AD5AA48241249AA6A55AD5455A5AAEE23
:10113000DDBBF7EEBD7BEF94524AA9AAAA6A55001F
:1011400004208000002000FEEFFFFEEEDEBDBBBEEF
:10115000DFEFFB402010045A5B5B6B8848442200A1
:101160008000800000020010111122AAAAAA6AFEC3
:10117000FDFBEF24495292FEFDF7DF10420811FEFD
:10118000FFF7FFEEEEDDDDDADADAD6AA56B56AAAA7
:10119000AA5A55EEBDF7EEFEFFFFFB40100802A471
:1011A000949452DAD6B6B6FEDFFFFBFEBFFFDF48EF
:1011B000124922B6DBEDB680402020AAD56AD500C0
:1011C000010101B66DBB6D88888848BEEFF77D547C
:1011D000A9529548228924FEFFEFFF6AADB556FE5D
:1011E000DFFFF788442211FEFFFF7FA4A4A4940030
:1011F000042000DEFBDEF788442412EEEEEEDE88EB
:10120000884444EEBD77EF00010202FEFDF7EF5483
:101210005555A58844242200100001FEFEFEFDB6AF
:10122000DD76DB48922489FEFFFFEF00010102FE1C
:10123000FFFFF7DAB66DDB244949921042841000B3
:10124000400010DAB66D6DAAAAAAAA80808040DAA2
:10125000DAD6D6A4945252200882107677B7BB947F
:101260004AA5524892249110214244FEBFFFEF76D6
:101270007777B7DAB6AD6D5455A9AA4824914810CE
:10128000428810FEFFFFFDFEFEFDFD76BBDBED5448
:101290005555959452299588884844208420840087
:1012A000004000FEFBDF7FB6DB6EB7DAD6B6B55482
:1012B000AA54AA4892449200400020FEFDFBF77613
:1012C000BBDDED5A6B6B6D54A952A54824128910F1
:1012D000111111208410840008800000000004FE19
:1012E000FFFEFFDAB66D5B5A6B6BAD545555A954D2
:1012F000AA54A94812491200020810FEFBEFBF7E53
:10130000BFDFDFDEF77DEF76BBDDEEB66DDBB6541B
:1013100095AA4A944AA5542429494988888888402E
:101320001008820080004000000000FEFFFDFFDE8C
:10133000FBDEFB76B7BBDBB6DDB6DB6AADD65AAA01
:10134000AA55D5242525292004210840100482000F
:1013500008400000000002FEEFFFFD7E7F7FBFDE41
:10136000F77DDFEEDDBB77EEEEEEEE7677BBBBAA68
:101370005A55AB54A52A55A4A494942429494A4803
:1013800022492410111121FE7FFFBFFEFBEF7FBE1B
:10139000DFEFF7DEF7BEEFB6DB6EBBB6EDB6DD6AAC
:1013A000B5566BAAD56AB5542A952A944AA95420F1
:1013B000841082000204100010000200000100FEF0
:1013C0007FFF7FFEF77FFFDE7BEFBDEEDEDDBB76CE
:1013D00077777776BBDD6EDAB6B66D6AB556ABAAAF
:1013E00055AB5654A94A95945229A524494A9210BE
:1013F00011222220084110401004818040402080AA
:101400008080800002082000200004FEF7BFFFBE9D
:10141000EFF7FDEEEEDEDDB6EDB6EDB66DDB6DDAC7
:10142000DADADA6AADB5D66AADD66AAA56B5AAAA2C
:101430006A55B5AAAAAA55545555555495AA529419
:10144000522AA5242529298848442410224408002A
:10145000041080002000080000040000000040FE8E
:10146000FFFFFFFEFFDFFFFEFBDFFFB6DBED76DAFF
:10147000B6B56DDADAD6B66AADB55AAA56AD6AAA6D
:10148000AA55555455AA2A5455AAAA54A5AA549403
:10149000524A29A494524A24499292489248924826
:1014A0002491448844229110112122102142841059
:1014B0004208214020100800020408FEFFFFDFFE62
:1014C000FFFFFE7E7F7F7F7EBFBFDFDEF7BEF7DEE2
:1014D0007BEF7B76B7BBDD5A5B5B5B5A6BADB56A66
:1014E000B55AAD542A954AA4949492244992241052
:1014F00022448820084108200882200000002000A3
:1015000000000100020304000506070108090A00A3
:101510000B0C0D0E0F1011031213141516171800D3
:10152000191A1B1C1D1E1B1F202122231B24040112
:1015300025262728292A1A042B2C2D2E04001B00CF
:101540001B002F303132333419013536373238022F
:10155000393A013B3C3D083E003F1B40004105033A
:1015600042433144454647481B492E4A41163409F7
:101570004B4C064D1B4E4F50384151523B3253009D
:10158000473F541B55395619363357220F58595A6D
:101590004B005B125C5D2F5E285F60531161620639
:1015A00063292F646503666730683A6912136A6BB2
:1015B0002F1B6C3B6D3267536E00206F120C700155
:1015C00071051B7255037374752E76773A786F1414
:1015D000253F6A797A2F0F7B7C551D7D175A071599
:1015E0007E19003A787F80810D3F828329022F0A7D
:1015F00064848555864973875A6788533C898A0075
:101600003A8B6947148C413F8D8E01297A8F059062
:101610001B5E34855591036D09401A6092932E42EA
:10162000941995003A4A78961E97149806999A9BB1
:101630008248015D22028F2F9C241B449D6C850EE5
:101640009E9F0349A03940A15A1F9256155342103C
:1016500046199500003A3A36A296A36297A412A5BD
:10166000060C213F5763A6A7017929227A37A8A93A
:10167000230A0F1B645E9D34AAAB0E553B9F1D03CE
:101680005935093E66321A5A60AC07568815534BD5
:10169000AD3CAE6EAF118A00003A3A3A6120B038E4
:1016A000B143624780143381A5B2250CB3213FB406
:1016B0008DB56A8E31017979B65416710237B70447
:1016C000B82308900F1B1B64440B84B96CAA85BA1D
:1016D0000E55283B9186BB0349492CA009393E177A
:1016E00032A174BC5A601FAC75BD56BE8815BFC010
:1016F0004B42C1107646C2891968778A0000000003
:101700003A3A3A3A2636208B2B38C369A36F6247A0
:1017100097801414C41281A53DB225410C0C13C549
:101720003F3F5C9B8D70822D6A8EC6C7010179791F
:1017300051B66BC81616710237C9CAA8042FB8056E
:10174000CB9CCC900FCD1B1B1B6464CE0B0BCF9D91
:10175000B9346CAAAA85AB65D00E5555289E91D197
:101760009F861D1D03034949596D7DA05F090939F5
:1017700045D266403232A1741A5A5AD3D34F1F1F32
:10178000AC7507BDBD56BE938815152E2E53534B11
:101790004B42AD7ED410769446D56E1819AFD61153
:1017A0006877D7000000000000003A3A3A3A3A3A27
:1017B0003AD84A61D92020788BB02B381296C3B121
:1017C000DAA3431C6247624797978080141414334E
:1017D0003312818181A58C3D06060625250D410C1D
:1017E0000C13132121C53F3F5C5CB49B578D637084
:1017F000B5822DDBA66A8E48C6A7C731010101015B
:101800007979795D5DDC296B54DD2222161616711B
:101810007A0202373737DE8FB7A804042FA92FB812
:1018200005DF23239C08CC0AE0240F24CD1B1B1BBF
:101830001B1B1B64646464647B7B0B0BE1E2CF8441
:101840009DE3B972346C6C7CAAAAAA858585ABBA73
:1018500065BAE40E0E5555E555283B3B3B3B91914F
:1018600091D19F864EBB1DBBE60303030349494943
:10187000495959E76D2C7D35A0A05FE80973090926
:1018800039E93E3E3ED21766406632323232A1A17D
:10189000A174EA1AEABC5AEB5AD3D3D360604FEC76
:1018A0001F1FACACAC7575759207BDBDBDBD56565E
:1018B00056BEBE9388881515ED15152E2EBF2E2EFB
:1018C0005353534B4B4B304B4242ADEEC17E7ED413
:1018D000103C1076769494AE4646D5C26E501818D9
:1018E0001919AFAF19D6D611681168779577D78ACD
:1018F00000000000000000000000000000000000E8
:101900003A3A3A3A3A3A3A3A3A3A3A3A3A3A3A3A37
:10191000EF4C4A6161F0D936202036202078788B50
:101920008BA2B05B2B2A2A3812129696C3C3B1B190
:101930006969DA7FA343431E6F1C1C1C6262474720
:10194000624747479797F1979780F28080801414F9
:1019500014A4A4141433C4333312121212818181DB
:10196000988181F3A5A58C8C3DF4F406B206060699
:10197000062525252525410D41410C0C990C0C0C03
:101980001313B313132121C52121C59A3F3F3F3FB4
:101990003F3F5C5C5C5C5CB4579B9B5757F5F58D97
:1019A0008D6363707063B58282822D2D2DDB6A6A30
:1019B000A6A66A6A8E8E8E484848C6C6A7313131BF
:1019C000C73131C70101010101010101797979793B
:1019D000797979794D795D51515D5DDCB6B629290A
:1019E0006B6B6B5454DDDDC822222222161616F6CC
:1019F0001616167A7A71717A7AF7020202020202D8
:101A000037373737373737DEDECACA8F8FB7B7A8D1
:101A1000A8F804040404042F2F2F2FA92F2FB8B8DF
:101A200005050505DFDFDF2323CB2323239C9C9CB7
:101A3000080808CCCC0A0AE0E0909024240F0F0F8D
:101A4000240F0FCD1B521B1B1B1B1B1B1B1B1B1B0C
:101A50001B1B1B1B1B6464646464646464646464B3
:101A600064646464CE7B447B7B0B0B5E5E0B0B0B70
:101A7000E1E1E2E2CFCF8484849D9D9DE3E3E3E353
:101A8000B9B9343472723434346C6C6C6C6C7C7CE8
:101A9000AAAAAAF9AAAAAAAAAA8585858585855887
:101AA0005885ABABABBABABA6565BABABAD0D0E4AE
:101AB0000E0E0E0E0E0E5555555555555555E5E560
:101AC0005555FAFA2828283B3B3B3B9E3B3B3B3B8A
:101AD0003B9191919191D1D19191D1D1D19F9F9FE2
:101AE0009F868686864E4EBBBB1D1D1D1DBBBB1D26
:101AF0001DE6FBFB030303030303030303030303C9
:101B00004949494949494949494949495949495925
:101B100059E7E7E76D6D6D6D2C2C7D7D7D7D35354D
:101B20003535A0A0A0A0A05F5F5F5FE8E8E80909E5
:101B30000973730909090909393939393939E9E961
:101B40003E3E4545453E3E3E3ED2D2D2D2171717C5
:101B5000666666666640404066668732323232327A
:101B6000323232323232A1A1A1A1A1A1A1A1A1A1FF
:101B7000A17474EAEAEA1A1A1AEAEAEABCBCBCBC22
:101B80005A5A5A5AEBEB5A5A5A5A5AD3D3D3D3D336
:101B9000FCFCD3D3D3D360606060604F4F4FECEC5C
:101BA0001F1F1F1F1F1F1F1F1F1FACACACACACACF7
:101BB000ACACAC75756767677575757592929292E6
:101BC00007070707BDBDBDBDBDFDFDFDBDBDBDBD5D
:101BD000FEFE565656565656565656BEBEBEBEBE4D
:101BE000BEBEBE93938888882727278888881515C6
:101BF00015151515EDEDED1515151515151515150D
:101C00002E2E2E2E2E2E2EBFBFBF2E2E2E2E2E531C
:101C1000535353C0C0535353535353534B4B4B4BDA
:101C20004B4B4B4B303030304B4B4B4B4242424294
:101C3000424242ADADADADADADEEEEEEC1C1C1C102
:101C40007E7E7E7E7ED4D4D4D4D4D410103C3C3C52
:101C500010101010107676767676767694949494AA
:101C60009494AEAEAEAEAEAE4646464646D5D5D55B
:101C7000D5D5C2C2C2C2C26E6E6E6E5050505050A8
:101C80001818188989898919191919191919AFAFDB
:101C9000AFAFAFAF1919191919D6D6D6D6D61111BB
:101CA0001111686868681111111168686868959564
:101CB000957777779595777777FFFFD7D7000000EF
:101CC0008A0000000000000000000000000000008A
:101CD0000000000000000000000000000000000004
:101CE00000000000000000000000000000000000F4
:101CF000000000000000000000000000000000BE26
:101D00000FBA0FB20FAA0FA20F9A0F930F8E0F8365
:101D10000F770F40404040404040403F3F3F3F3FF3
:101D20003E3E3E3E3D3D3D3C3C3B3B3A3A3A3939F6
:101D300038373736363534343332323130302F2E6F
:101D40002D2C2C2B2A292827272625242322212025
:101D50001F1E1D1C1B1A1918171615141312110F0C
:101D60000E0D0C0B0A090807060403020100FFFE12
:101D7000FDFCFAF9F8F7F6F5F4F3F2F1EFEEEDEC1D
:101D8000EBEAE9E8E7E6E5E4E3E2E1E0DFDEDDDC1B
:101D9000DBDAD9D9D8D7D6D5D4D4D3D2D1D0D0CFF5
:101DA000CECECDCCCCCBCACAC9C9C8C7C7C6C6C699
:101DB000C5C5C4C4C3C3C3C2C2C2C2C1C1C1C1C1FB
:101DC000C0C0C0C0C0C0C0C0C0C0C0C0C0C0C0C112
:101DD000C1C1C1C1C2C2C2C2C3C3C3C4C4C5C5C6D6
:101DE000C6C6C7C7C8C9C9CACACBCCCCCDCECECF50
:101DF000D0D0D1D2D3D4D4D5D6D7D8D9D9DADBDC88
:101E0000DDDEDFE0E1E2E3E4E5E6E7E8E9EAEBEC8A
:101E1000EDEEEFF1F2F3F4F5F6F7F8F9FAFCFDFE6A
:101E2000FF0001020304060708090A0B0C0D0E0F40
:101E30001112131415161718191A1B1C1D1E1F201A
:101E4000212223242526272728292A2B2C2C2D2E16
:101E50002F30303132323334343536363737383943
:101E6000393A3A3A3B3B3C3C3D3D3D3E3E3E3E3FAF
:101E70003F3F3F3F404040404040400000010002A3
:101E8000000300040006000700080009000A000B18
:101E9000000C000E000F00100011001200140015BD
:101EA000001600170019001A001B001C001E001F5E
:101EB000002100220023002500260028002A002BF4
:101EC000002D002E00300032003400360038003A79
:101ED000003C003E0040004200450047004A004CE4
:101EE000004F005200550058005B005F0063006621
:101EF000006B006F00730078007E00830089009003
:101F00000097009E00A700B000BA00C500D100DF16
:101F100000EF00010115012D0149016B019401C77A
:101F20000109026102DC029303C5042907530E0F65
:101F3000090F00020F0D0D0B090D0F03020F0B0906
:101F40000D0F0A0E010D030F0D0F0B0B0F0E050EDB
:101F50000F0B0C0609090F09060F0B090F05010FDE
:101F6000090D0F040F000D000509070F020D0F08E2
:101F7000080F020F0F010E07090F0F05070F0907C2
:101F80000F050A0B090D010F010F080F0708070FB6
:101F9000040F090609030C030D0B090000000101E1
:101FA00001010101010101000000000000000182A7
:101FB00000008211121301000001010F0F0F010038
:101FC00000010010100F010000010111100F0100AD
:101FD0000001010F0F0F010000000010121001019D
:101FE00001010000000001000011000000000100DC
:101FF000000F000000000100000F000000000100C1
:1020000001100100000001000101010000000100B9
:1020100000010100000001010101010101010101B4
:1020200001010101010100000000000000010000A9
:10203000000000000001000000000000000100009E
:10204000000000000001000000000000000100008E
:10205000000000000001000000000000000100007E
:10206000000000000001000000000000000100006E
:10207000000000000001000000000000000100005E
:10208000000000000001000000000000000100004E
:102090000000000000010101010101010101000037
:1020A0000000000000000000000000000000000E22
:1020B000190A00001100001C000000000F00000DB4
:1020C000000000000F00000000000000100000866B
:1020D000800081000000008B8C00000000000000E8
:1020E0000000000000000000000000000000000EE2
:1020F000000A000101000019000000000100000DAD
:1021000000000001010000000000000000000000CD
:1021100000000000000000000000000000000100BE
:1021200000000000000001000000000000000100AD
:10213000000000000000010000000000000001009D
:10214000000000000000010000000000000001008D
:10215000000000000000010000000000000000007E
:10216000000000000001000000000000000100006D
:10217000000000000001000000000000000100005D
:10218000000000000001000000000000000100004D
:10219000000000000001000000000000000101013B
:1021A0000101010101010000000000000000000029
:1021B000000000010000000100000000000000001D
:1021C0000000000000000100010101010101000008
:1021D00000000000000000000000000000000000FF
:1021E00000000000000000000000000000000000EF
:1021F00000000000000000000000000000000000DF
:1022000000000000000000000000000000000000CE
:1022100000000000000001010101010101010000B6
:1022200000000000000000000000000000000000AE
:10223000000000000000000000000000000000009E
:10224000000000000000000000000000000000008E
:102250000000000000000000000000000000000876
:10226000080808080802060405050505050706050F
:102270000505050505070605050505050507060508
:1022800005050505050706050505050505070605F8
:102290000505050505070109090909090903823230
:1022A00011241FBECFEFDAE0DEBFCDBF27E0A4E6EA
:1022B000B1E001C01D92A83BB207E1F711E0A0E038
:1022C000B1E0E8E1FDE602C005900D92A436B10749
:1022D000D9F711E1C0E5D1E104C02197FE010E94C8
:1022E000DF32CF34D107C9F70E94A5210C948A367A
:1022F0000C940000CF93DF931F92CDB7DEB76983B4
:10230000DC01ED91FC910280F381E02D41E050E091
:10231000BE016F5F7F4F09950F90DF91CF910895B8
:1023200083E08093E9008091F200882319F08AE32A
:102330008093E8000895FC018485958597FD0BC086
:102340009FB7F89482E08093E9008091F2009FBFEC
:1023500090E0019608959FB7F89482E08093E90099
:102360008091F2009FBF90E0089540916A015091E2
:102370006B01209168013091690142175307B4F451
:102380009091E8009570E1F39091E80092FD19C0FA
:102390008093F10080916A0190916B0101968F7397
:1023A0009927892B19F48EEF8093E80080916A01B8
:1023B00090916B01019690936B0180936A0181E08B
:1023C000089580E00895DF92EF92FF920F931F939C
:1023D000CF93DF93D82E8A017B01E40EF51EEB012B
:1023E000CE15DF0571F0D7FE03C0FE01849101C058
:1023F00088810E94B51121968111F2CF8FEF9FEF56
:1024000001C0C801DF91CF911F910F91FF90EF9014
:10241000DF900895615030F02091F100FC0120839D
:102420000196F8CF289884E680936D0108950E9464
:10243000B61B90E00895CF93DF931F92CDB7DEB720
:10244000FC018485958597FD05C02FEF3FEF35870B
:1024500024870BC0CE0101960E948C1B019719F4B2
:10246000898190E002C08FEF9FEF0F90DF91CF91B5
:1024700008950F931F93CF93DF931F92CDB7DEB7CD
:102480008C01FC018485958597FF0EC0CE010196D5
:102490000E948C1B019719F4298130E002C02FEFB4
:1024A0003FEFF80135872487F801848595850F90E3
:1024B000DF91CF911F910F9108950F931F93CF93A9
:1024C000DF931F92CDB7DEB782E0898342E450E00C
:1024D0006BE07FE080E80E94E3110E94C71BDC01F3
:1024E00012960D911C9113970115110569F0D801F1
:1024F000ED91FC910280F381E02DBE016F5F7F4F73
:10250000C801099597FF07C089810F90DF91CF918E
:102510001F910F910895F80100851185E5CF1F9255
:102520000F920FB60F9211248F939F938091E10029
:102530009091E100937F9093E10083FF0FC0109290
:10254000E90091E09093EB001092EC0092E39093FD
:10255000ED0010926E0198E09093F00082FF20C091
:1025600093E09093E9009091F200992319F09AE397
:102570009093E80090916C01992339F090916C014F
:10258000915090936C01992389F190916D01992359
:1025900039F090916D01915090936D01992341F123
:1025A00084FF10C08091E2008E7E81608093E20003
:1025B0008091E1008F7E8093E100809167018E7EA3
:1025C000806111C080FF16C08091E2008E7E806124
:1025D0008093E2008091E1008E7E8093E100809103
:1025E00067018E7E81608093670104C05D9ACDCFC4
:1025F000289AD6CF9F918F910F900FBE0F901F906A
:1026000018951F920F920FB60F921124CF92DF925E
:10261000EF92FF920F931F932F933F934F935F93EC
:102620006F937F938F939F93AF93BF93EF93FF939A
:10263000CF93DF93CDB7DEB76C97DEBFCDBF1092DF
:10264000E9008091E80083FFEDC168E0CE01459686
:102650000E940A1282EF8093E8008D8987FF05C0EF
:102660009091E80090FFFCCF03C09EEF9093E800AC
:10267000982F907609F0C6C09E892F89188D9111E8
:102680000CC0803829F4809166018093F10002C06B
:102690001092F1001092F10048C1422F50E0512BEE
:1026A000913051F4811141C14130510509F03DC1D2
:1026B000809166018D7F0BC0933061F4811135C12B
:1026C0004130510509F031C18091660182608093EB
:1026D00066012BC1953041F48091E80080FFFCCF6A
:1026E00020682093E30021C1963009F05FC0EB8C95
:1026F000FC8C1092E90010926B0110926A0112306A
:1027000091F510926901109268010E945D1299E0A2
:10271000BE016F5F7F4FDB01E92F1D92EA95E9F75C
:1027200099831A8391E09E8390EA98879AEF99871C
:1027300020916A0130916B01275F3F4F3C832B83CF
:102740008D831092E90010926B0110926A01F09251
:102750006901E092680149E050E080E00E94E311E5
:102760000E945D12E2C0F0926901E09268010E944D
:10277000C71BDC011296ED90FC901397E114F10455
:1027800009F4C0C0D701ED91FC910480F581E02DE2
:10279000BE016B5E7F4FC7010995009719F00CF0E1
:1027A000C4C0C7C0F701E084F184E8CF973009F4D2
:1027B000C0C0983021F481E08093F100B6C0993018
:1027C00009F0B3C0837009F0B4C0EDE1F1E081E03D
:1027D00021E036E39081992361F08093E900209312
:1027E000EB0091919093EC003093ED008F5F873078
:1027F00089F78EE78093EA001092EA008F89809330
:102800006E0193C08B8D9C8D1092E90010926B012C
:1028100010926A019093690180936801898D8111FA
:1028200056C08E899D89913A59F4813209F081C050
:1028300047E050E064E071E080E00E94E31175C081
:10284000913209F076C0833289F4888D90E0982F18
:1028500088272F89822BA0E0B0E08093000190931D
:102860000101A0930201B09303015FC0803269F4BB
:102870008091E80082FFFCCF67E084E091E00E9455
:102880000A128BEF8093E80006C0823209F04DC037
:102890008F8980930B0180916501882319F0EEEFF9
:1028A000FAE002C0E0E0F8E08091040190910501B7
:1028B000A0910601B0910701803B9440A105B105AC
:1028C00009F07BC080910B0180FF93C076C00E940D
:1028D000C71BDC0112960D911C9113970115110570
:1028E00041F1D801ED91FC910190F081E02DBE0104
:1028F0006B5E7F4FC8010995811117C0F8010085F3
:102900001185ECCF113009F44EC0133091F48F894A
:10291000882309F445C0823081F440E867E08FE6FF
:102920009FE00E944532882321F08EEF8093E800DB
:1029300079C081E28093EB0075C0813029F440E8D2
:102940006BE083E69FE0EDCF833099F70E94C71BD1
:10295000DC011296ED90FC9013978E010F5F1F4FD4
:102960006801E114F10479F0D701ED91FC91068042
:10297000F781E02DB801C7010995080F111DF70176
:10298000E084F184EECFD8011C92F6010190002082
:10299000E9F73197BF016C197D0940E0C601C1CF4D
:1029A0006DE47FE002C061E57FE06115710509F229
:1029B000FB01449150E080E840CF0FB6F894A89511
:1029C00080916000886180936000109260000FBE6B
:1029D000A895EE3F2AE0F20739F08091FE0A909127
:1029E000FF0A91838083A1CF1092FF0A1092FE0A02
:1029F0009CCFEE3F8AE0F80731F08081918190937F
:102A0000FF0A8093FE0A87E797E7918380839BE024
:102A100088E10FB6F894A895809360000FBE90935C
:102A2000600083CF6C960FB6F894DEBF0FBECDBFAB
:102A3000DF91CF91FF91EF91BF91AF919F918F91D6
:102A40007F916F915F914F913F912F911F910F91C6
:102A5000FF90EF90DF90CF900F900FBE0F901F90E0
:102A600018958F929F92AF92BF92CF92DF92EF9282
:102A7000FF926B017C010E9436214B015C01C11465
:102A8000D104E104F104F1F00E943621DC01CB0114
:102A900088199909AA09BB09883E9340A105B10587
:102AA00070F321E0C21AD108E108F10888EE880E1F
:102AB00083E0981EA11CB11CC114D104E104F104EF
:102AC00019F7DDCFFF90EF90DF90CF90BF90AF90E0
:102AD0009F908F9008958F929F92AF92BF92CF92C6
:102AE000DF92EF92FF920F931F93CF93DF935C01DE
:102AF0006B017A0180910B01882309F45BC08091FE
:102B00006E01882309F456C08091670180FF05C0DB
:102B10008091E00082608093E000E70110E00AEF1E
:102B200083E0882E9AE3992E2097D9F10E94B61B54
:102B300081110AC0015009F43DC061E070E080E0FD
:102B400090E00E943115F0CF282F30E0C217D30754
:102B50000CF48C2F4FB7F8948092E9009091E80024
:102B600095FF1DC0282F30E0C21BD30BF601982F14
:102B7000915020F081918093F100FACFC20ED31EC4
:102B8000112319F09092E80009C08091E80085FDBA
:102B900006C09092E80011E0209709F010E04FBFC6
:102BA000C3CF1111C3CF5D9884E680936C011E14CE
:102BB0001F0444F081E090E0F5019383828380E07C
:102BC00090E001C0C701DF91CF911F910F91FF905D
:102BD000EF90DF90CF90BF90AF909F908F9008952F
:102BE0002F923F924F925F926F927F928F929F921D
:102BF000AF92BF92CF92DF92EF92FF920F931F930B
:102C0000CF93DF93CDB7DEB760970FB6F894DEBFF2
:102C10000FBECDBFD901CD90DC90F801A080B1806E
:102C2000442309F480C1FC01ED5EF24E509186050B
:102C30006D5E724E413019F5E491E502F001112408
:102C4000F7FDFF9646E0F595E7954A95E1F7EC0D1F
:102C5000FD1DFE83ED83FB0164916502B00111242B
:102C600077FF02C0615C7F4FB6E075956795BA95B6
:102C7000E1F76A0D7B1D7C836B834C0130C0E491CE
:102C8000E502F0011124F7FDFF96A6E0F595E79522
:102C9000AA95E1F7D601AE1BBF0BBE83AD83FB0146
:102CA00064916502B001112477FF02C0615C7F4F1F
:102CB000F6E075956795FA95E1F7A501461B570B68
:102CC0005C834B834C01F4EB8F0E911C48E6841619
:102CD00041E0940620F04C0164EB861A910824012F
:102CE00084EB480E511C98E6491691E0590620F0F5
:102CF0002401A4EB4A1A5108188B0F873E872D87B1
:102D00003D2C330CC7FC3394330CC6FC33942B2C72
:102D1000220CA7FC2394220CA6FC23948D819E8177
:102D2000892F880F87FD8395880F86FD83958B817A
:102D30009C81892F880F87FD8395880F86FD839559
:102D40007401022D232DAE014D5F5F4FB501C60109
:102D50000E94E41F182F232DA501BE016B5F7F4F3A
:102D6000C6010E9467208F834B815C812D813E814B
:102D7000F501B4EB8B169104C8F47196F987E887D6
:102D8000CA0141969B878A879AE58916910438F48F
:102D9000C60141963901A1E16A0E711C20C0C6012D
:102DA00041973901B1E16B1A710819C07197F98720
:102DB000E887CA0141979B878A879EE0891691E040
:102DC000990638F4C60141973901A1E16A1A7108E0
:102DD00006C0C60141963901B1E16B0E711C6F81CD
:102DE0006F7021F0712F7F7009F091C0232F220F97
:102DF00027FD2395220F26FD2395452F440F47FDE0
:102E00004395440F46FD439561113CC0BA82A982A7
:102E10009C0176E0369527957A95E1F77201022DAF
:102E2000AE014F5F5F4FB5010E94E41F8C87BA82ED
:102E3000A982EF818E2F90E0E4E095958795EA9541
:102E4000E1F7892BD1F4812F90E064E09595879587
:102E50006A95E1F7892B89F4930156E03695279519
:102E60005A95E1F77401AE014F5F5F4FB501C301A1
:102E70000E94E41FFC85F80FFC878C858F7011F091
:102E8000DE82CD82812F8F7009F041C0DA82C98243
:102E90008885998536E0969587953A95E1F7720190
:102EA000082F232D48855985BE016F5F7F4FC601CE
:102EB0000E946720782EDA82C9822F81822F90E0CB
:102EC00044E0959587954A95E1F7892BD9F4812FB0
:102ED00090E024E0959587952A95E1F7892B91F468
:102EE0000A851B8586E0169507958A95E1F774019A
:102EF000232D4A855B85BE016F5F7F4FC6010E940F
:102F00006720780E872D8F7011F0BC82AB828D8187
:102F10009E81AD85BE858D939C938B819C81EF8531
:102F2000F8899183808360960FB6F894DEBF0FBE58
:102F3000CDBFDF91CF911F910F91FF90EF90DF9068
:102F4000CF90BF90AF909F908F907F906F905F9049
:102F50004F903F902F9008958F929F92AF92BF9283
:102F6000CF92DF92EF92FF920F931F93CF93DF9355
:102F70000E94D73560E470E00E94BC328093520713
:102F800080918705882321F081508093870502C0B6
:102F90001092900580919105882359F090915007E7
:102FA00090FD07C0181614F4885001C0885F809304
:102FB000910580919E05811103C010929D0503C06B
:102FC000815080939E050E942E2187FF08C080912A
:102FD0009005823011F41092870581E00BC00E94A9
:102FE0002E2184FF22C080919005813011F410922F
:102FF000870582E080939005809187058E5F80939E
:10300000870580919D05803214F098EF03C0813EC2
:103010001CF498E090939C0590919C05890F8093F7
:103020009D0585E080939E051CC00E942E2185FF92
:103030000AC080919105181614F4109291058091A0
:1030400091058B500CC00E942E2186FF0AC08091F2
:10305000910587FD1092910580919105855F809380
:10306000910580918705823118F082E18093870570
:103070008091910581341CF08B5080939105809153
:103080009105803C1CF4855F80939105E12C6FE1F4
:10309000F62E7EE1B72EE2E0DE2EF4E0CF2EA6E0A3
:1030A000AA2EB8E79B2E14E6812E8091E006E81642
:1030B00008F059C1EE2DF0E0EA52F94F808190E01E
:1030C000F89ED001F99EB00D1124A258BA4FD296A5
:1030D0004C91D29741FD45C140FF7EC097968D919E
:1030E0009C919897C29708F03CC1D5969C91D59732
:1030F000963808F437C081E080935107EBE7E90F79
:103100008E2F8068E82FEF70F0E0EE0FFF1FE15088
:10311000F34E259134913093950520939405E82F33
:10312000F0E034E0F595E7953A95E1F7EE0FFF1FF3
:10313000E150F34E259134913093970520939605F5
:10314000909298054260D2964C939B3859F48091A6
:103150008905845F853618F48093890502C18092C1
:103160008905FFC09C38A9F480918B05875E809308
:103170008B0580918C05865F80938C0580918D05F1
:103180008B5F80938D0580918E058F5F80938E0578
:10319000E8C0963831F480918F058F5F80938F055A
:1031A000E0C0973821F480918A05816005C0983885
:1031B00031F480918A05826080938A05D2C0993863
:1031C00021F480918A058460F7CF9A3809F0C9C04C
:1031D00080918A058860F0CFD5962C91223819F419
:1031E000C092860502C0A0928605F89EF001F99E65
:1031F000F00D1124E258FA4F26A12130A1F038F049
:10320000223009F454C0243009F4A1C0AAC023A577
:10321000222309F4A6C027A130A52F3F310511F0C4
:1032200008F09FC005C047A150A54138510500F1E5
:10323000D6A221A532A5A901445B510957FD03C0BF
:1032400050AB47A704C02C543F4F30AB27A7F89E84
:10325000F001F99EF00D1124E258FA4F87A590A9CC
:10326000EC01CA55D109D7FF7CC0C859DE4F79C0DF
:1032700033A9311119C04091520734A9430F44AB0F
:1032800030918905332339F0433328F0315030939E
:10329000890520935107F89EF001F99EF00D112445
:1032A000E258FA4FB3AA5DC0315033AB5AC023A5E0
:1032B000222341F027A130A52038310518F481E000
:1032C00086A34FC0F89EF001F99EF00D1124E2583C
:1032D000FA4F27A130A52130324010F0C6A241C0DC
:1032E000209150072F73F1F421A532A5A901445B69
:1032F000510957FD03C050AB47A704C02C543F4FA2
:1033000030AB27A7F89EF001F99EF00D1124E2588A
:10331000FA4F27A530A9E901CA55D109D7FF02C044
:10332000C859DE4FF89EA001F99E500D11248A0164
:103330000F551A4F9A0121563A4FFA01E258FA4FA7
:1033400041E0BE0187A590A90E94F0150AC083A59F
:10335000882339F087A190A58F3F910509F008F4E3
:10336000D6A2E394A2CE40910B07E091060786E037
:10337000E89FF0011124E951F94FDF011296EF01A6
:1033800024967F0183E0E80EF11C90E06FEF53E09C
:1033900072E010EF20910B07921790F58C9181301D
:1033A00061F4F70180812881821305C08F3351F4C5
:1033B0007C9318831EC08F5F1AC0823041F48881CD
:1033C000811102C05C9315C08150888312C0833084
:1033D00081F4F7018081811109C01C92292F30E00E
:1033E0002A5F384FF9016083415003C08150F701D3
:1033F00080839F5F16962696F6E0EF0EF11CCACFEB
:1034000080E0821798F4882359F0E82FF0E0DF017C
:10341000AA5FB84F9C91EB5FF84F3081931710F083
:103420008F5FEFCF3C9390838150EBCF40930B079E
:1034300080915207837039F5ECEEF6E093E031E0CD
:10344000209105078217F8F4208120FF19C0DF01C1
:1034500013972C91211114C03C9311961C92119634
:10346000209152072C7F2C93A0910B0721E02A0F6B
:1034700020930B07B0E0AA5FB84F8C93915019F0DE
:103480008F5F3696DDCFDF91CF911F910F91FF9027
:10349000EF90DF90CF90BF90AF909F908F90089566
:1034A0009F92AF92BF92CF92DF92EF92FF920F93D3
:1034B0001F93CF93DF93182FEB01FA0180E098E080
:1034C000BA010E94A832A62FE150FB4EE49144E0DD
:1034D000E49FC00111242933310590F0D7FF08C0C3
:1034E0002C0F3D1F2933310568F028E330E00AC076
:1034F000C833D1050CF528E330E02C1B3D0B1EC072
:10350000D7FF1CC0FC01E150FF4E749148E0572FDB
:1035100051705A0FC50FD11DD7FF06C00F5F7695AA
:103520004150A9F70196EECFD42E209719F40F5FE2
:10353000D0E087C0D0E00CC020E030E0DC2FFC0100
:10354000E150FF4E7491A8E0DA2EC72FC170C60F6C
:103550004C2F50E02417350708F4C22F402F469512
:1035600046954695D701A40FB11DE02FE770F0E016
:10357000ED5DFE4F5C9140814523AC2EB12C09F4EA
:103580005BC0A12FB0E04D2F46954695469550E87B
:10359000459FA00DB11D1124A258BE4FED2FE7701D
:1035A000CE2EC93068F4A50141505109E3E0440F23
:1035B000551FEA95E1F74C0D511D440F551F10C0E2
:1035C000F501399748E1942E9E9EA0019F9E500DD3
:1035D000112440585F4FE3E0CE9E400D511D112451
:1035E000FA01E154F04FE491FC91FE2BFC9311960B
:1035F000FC911197EF2B1196EC931197FA01E0547F
:10360000F04FC490FD01E058FF4F90809C289082BD
:1036100031969080C928C082C93070F0FA01EF530A
:10362000F04F4491FD01F3955081542B5083AF5FCF
:10363000BE4FEC91E42BEC932A193B0949F0DC0FC7
:103640000F5FDA94DD2011F076957FCF019677CF6A
:10365000DF91CF911F910F91FF90EF90DF90CF906E
:10366000BF90AF909F900895EF92FF920F931F939A
:10367000CF93DF93EA01FB0177FD379653E0F59591
:10368000E7955A95E1F7F695FE2FEE27F795E79522
:10369000E80FF11DE258FE4FCB0168E070E00E9498
:1036A000BC32DC01AD5DBE4F8C9190E0492F50E003
:1036B0004217530720F5A12FA695A695A695A770AA
:1036C000B0E0AD5DBE4FB80164E0769F612D772715
:1036D00011246E0D7F1D5C91DB014C91452331F06F
:1036E0004081482B40834181482B4183880F19F446
:1036F000E058FF4F81E00C0F1D1F9F5FD7CFDF9178
:10370000CF911F910F91FF90EF90089565E070E0C9
:1037100080E090E00C943115FC0180916E018111E4
:1037200003C08FEF9FEF08959FB7F89482E08093D6
:10373000E9002091F20030E01216130614F421E0A3
:1037400030E02115310559F0289884E680936D0109
:103750008091F10080838091F200882319F09FBF4F
:10376000C90108958BE68093E800F9CF2FB7F8944C
:1037700083E08093E9009091E800892F807295FFA3
:1037800004C09091F20080E4891B2FBF08958091BE
:10379000730181110DC082E080936F0184E08093FA
:1037A0007001109272011092710181E08093730197
:1037B0008FE691E00895EF92FF920F931F93CF93BE
:1037C000DF9390E4899F80011124E0E46E9FB001B3
:1037D0001124FA0133818091820590918305213073
:1037E00039F4432F50E0481B590B460F571F06C0B2
:1037F0000196831B9109AC01461B570BC0914C07E6
:10380000D0914D07E0908005F0908105CA35D10533
:10381000C1F0EAE5F0E0EC1BFD0BEE0FFF1FE558F1
:10382000F14EA591B4919A010E94D832DC01CB01EE
:1038300066E0B695A795979587956A95D1F7BC01EF
:103840000CC04115510539F4E016F10621F0B7011D
:10385000601B710B02C060E070E0E0917C01F091B0
:103860007D019F012A553109243B310540F0E60EC8
:10387000F71EC801CF968E159F0550F440C0E6167E
:10388000F70608F43CC0E61AF70AE016F106B8F1AC
:1038900090918005EA35F10549F0243B310518F097
:1038A000901B960F04C0961B901B01C09F739093B2
:1038B00049074115510529F470934B0760934A0756
:1038C0001CC0EDE6FDE1EC1BFD0BE491CA01A0E09C
:1038D000B0E0BC01CD0126E0660F771F881F991F5D
:1038E0002A95D1F72E2FEE0F330B440B550B0E9468
:1038F000223630934B0720934A0781E001C080E0D5
:10390000DF91CF911F910F91FF90EF9008958F73EA
:10391000E0914E07F0914F07643B710540F43097FA
:1039200011F0938101C09FE3981B892F0895309770
:1039300011F09381891B0895962F969596959695EB
:10394000E82FE695E695E695F0E028E0929FE00DF9
:10395000F11D1124E25AFD4D949167708770E82F94
:10396000F0E088E0689FE00DF11D112420E4929FB3
:10397000E00DF11D1124E256F04E84912FEF3FEF40
:1039800030934B0720934A079FEF90934907089580
:10399000CF93DF93D82FC62F0E949C1C10924F0705
:1039A00010924E0710925E078D3108F05AC0E82F32
:1039B000F0E0E55DFE4F9081993239F48091E606A2
:1039C00041EE56E0DA0166E00FC09931B9F4F6CF66
:1039D0002D91629F9001112422583A4FF901E75925
:1039E000FE4F70817D1729F02A2F241B281780F3A2
:1039F00005C0319620812C13F7CF33C09F3099F545
:103A0000809148072EE735E090E06C2F70E0F901D7
:103A1000E257FE4F981729F1D901A157BE4F4C919B
:103A2000D41312C011964C91C41791F011965C9169
:103A3000552351F050E04F5F5F4F6417750721F435
:103A400081E080935E0707C09F5F2A5F3F4FDFCF13
:103A50008381882351F0F0934F07E0934E078FE066
:103A600005C080E003C0892F01C081E0DF91CF91C4
:103A700008952F923F924F925F926F927F928F9212
:103A80009F92AF92BF92CF92DF92EF92FF920F93ED
:103A90001F93CF93DF93CDB7DEB728970FB6F89477
:103AA000DEBF0FBECDBF5A01822E912C9C01280D86
:103AB000391D37FDC4C0803891050CF0C0C09B0192
:103AC000200F311D37FDBBC0603471050CF0B7C04D
:103AD000AB0177FF04C044275527461B570B47709F
:103AE00055279B0177FF02C0295F3F4FE3E03595E3
:103AF0002795EA95E1F777FF08C02150310968E082
:103B000070E0DB01A41BB50BAD01602F66956695D7
:103B1000669570E0077011F06F5F7F4FDB01A20FB9
:103B2000B31FBA83A98339017694762C66247794DF
:103B30006794680E791EE12CF12C00E010E023015F
:103B4000B0E84B0E511C68E070E0DB01A41BB50B24
:103B5000BC83AB8369817A812617370709F46FC06C
:103B60002830310509F46BC02F3FBFEF3B070CF441
:103B70005BC0B201600F711FDB01A258BE4FBE8354
:103B8000AD83D801A60DB71DA258BE4F6C0160E0F1
:103B900070E0681579050CF047C0E0E8CE16D10456
:103BA00009F442C0D7FC34C02F3FFFEF3F0709F4B0
:103BB00042C0FB01EE0DFF1DEA0DFB1DE491042E3A
:103BC00001C0EE0F0A94EAF73C90E329EC9341150B
:103BD0005105F1F027303105D9F0FB01EE0DFF1D45
:103BE000EA0DFB1DE4912E2E312CF1010B8002C059
:103BF000F595E7950A94E2F7F887EF83ED81FE816A
:103C00003080EF81F885E3291F01ED81FE8120825C
:103C10006F5F7F4FED81FE813196FE83ED83FFEF75
:103C2000CF1ADF0A1196B5CF2F5F3F4F00581F4FB5
:103C3000E80CF91C8FCF4115510579F6E9CF28968C
:103C40000FB6F894DEBF0FBECDBFDF91CF911F91AD
:103C50000F91FF90EF90DF90CF90BF90AF909F902B
:103C60008F907F906F905F904F903F902F9008952E
:103C7000EF92FF920F93CF93C82F7B01F7014491EE
:103C80004423E1F0403231F0413614F4405303C094
:103C9000475501C044E283E04802A0011124415D80
:103CA000504E08E023E061E070E08C2F90E00E942D
:103CB000391DCC5FEFEFEE1AFE0AE0CF8C2FCF91CB
:103CC0000F91FF90EF900895CF92DF92EF92FF92C5
:103CD0000F93CF93C82F6A01E62EF12CF6012191A4
:103CE0006F01222389F0205383E0280290011124E0
:103CF000A901415D504E08E023E0B7018C2F90E010
:103D00000E94391DCC5FEACFCF910F91FF90EF90C9
:103D1000DF90CF900895CF93DF93AC01C7E0D0E060
:103D20006CE270E08CE290E0AAE5B0E0B695A79571
:103D3000219731F18A35910508F5FC01EE0FFF1F3F
:103D4000E558F14E259134912417350750F49D0123
:103D50002F5F3F4F36952795280F391FBC01C901AA
:103D6000E5CF4217530760F49D012F5F3F4F369513
:103D70002795BC01621B730B9B01F0CF89E590E096
:103D80009C01220F331F2558314EF901A591B491A2
:103D9000F901A417B50729F0A591B491A41BB50B9F
:103DA00005C025913491DA01A21BB30B9B01220FB0
:103DB000331F2558314EF901C591D491F901C4172B
:103DC000D50739F025913491F901E41BF50BAF01CA
:103DD00004C025913491421B530B4A175B0708F42A
:103DE000CB01DF91CF910895BF92CF92DF92EF92F6
:103DF000FF920F931F93CF93DF93082FF62E142F6C
:103E0000E9010E949C1CE82F8D3120F4F0E0E55D73
:103E1000FE4FE0811E1614F080E0CCC0E93239F488
:103E20004091E60661EE76E0CB0156E011C0E93143
:103E3000C9F4F6CFDC012D91CD01529F90011124E0
:103E400022583A4FD901A759BE4FFC91F01729F0DB
:103E5000282F261B241770F305C011962C912F11C3
:103E6000F7CFDACFEF3011F08E2FA4C0B12C86E05F
:103E7000E82E80914807B81678F6AB2DB0E0EA9EA0
:103E80009001EB9E300D112422583A4FF901E05772
:103E9000FE4F808131979081091360C0682F70E0D8
:103EA0008F15B1F0349680818F1508F457C0319783
:103EB0008081F81608F452C09B0146E0220F331FA0
:103EC0004A95E1F7215C3F4F81E02C173D0708F050
:103ED00080E0680F711D20917C0130917D01243BB1
:103EE000310514F023E001C021E0EA9EA001EB9E21
:103EF000500D1124FA01E45FF84F6F01FA01E15F00
:103F0000F84F9081FB0136E0EE0FFF1F3A95E1F785
:103F1000E90FF11D213091F481110AC0EC17FD0762
:103F2000F8F0A601802F0E94DB1B8823B9F018C08F
:103F3000EC17FD0708F470CF91E013C0882351F00F
:103F4000CE17DF07C8F3A601802F0E94DB1B882352
:103F500029F0F2CFCE17DF0718F45ECFB39489CFE4
:103F600090E0D60113968C9180937B0120914907B4
:103F70002F3F99F481110BC09E012F5F3F4F2F738C
:103F80003327232B21F41F731093490706C0CF73E7
:103F9000C81B9111C05CC0934907809149078034C8
:103FA0001CF08FE3809349078091490787FD1092A9
:103FB00049078FE0DF91CF911F910F91FF90EF9014
:103FC000DF90CF90BF9008959F92AF92BF92CF9213
:103FD000DF92EF92FF920F931F93CF93DF931F9285
:103FE000CDB7DEB75B016A01602F822F29830E9463
:103FF000C81C182FB701C5010E94871C982E298163
:10400000111127C084EBE816F10410F461E001C03F
:104010006FEF600F822F0E94C81C8F30B1F4292DE2
:1040200030E0B701C501E4EBEE16F10420F401968F
:10403000820F931F03C00197821B930B0E94871C62
:10404000980EF0E1F91528F006C0811104C080E453
:10405000980E90E001C090E120918605022E000CA0
:10406000330B215F3F4F492D50E024173507DCF01B
:10407000E0E1E91520F0F601B182A08214C020EF42
:10408000290D30E0F4EBEF16F10430F42A0D3B1D5E
:10409000F601318320830DC0B501621B730BF6015D
:1040A0007183608306C0FFE0892FF91518F08160E5
:1040B00001C0892F0F90DF91CF911F910F91FF9039
:1040C000EF90DF90CF90BF90AF909F9008958F9228
:1040D0009F92AF92BF92CF92DF92EF92FF920F9397
:1040E0001F93CF93DF931F92CDB7DEB76C015B01B7
:1040F0004A01602F822F29830E94C81C1C2D1F7328
:104100003AE5E31AF108298194EBE916F10438F055
:1041100090E4911B192F81115FC081E003C08111D0
:104120005BC08FEF820F602F0E94C81C882309F4A8
:1041300050C08F3029F580915E07E0914E07F091D5
:104140004F072281882389F030E02F5F3F4F86E0C0
:10415000220F331F8A95E1F78381280F311D205FDD
:104160003F4F8216930660F036C0838190E0E0E412
:104170002E9F800D911D112440978815990558F5A3
:1041800090E120918605022E000C330B215F3F4FFA
:10419000412F50E024173507BCF0113120F4F50110
:1041A000D182C08211C01051212F30E0F4EBEF1604
:1041B000F10418F0C20ED31E02C0C21AD30AF501D0
:1041C000D182C082892F0AC0892F103138F48160D2
:1041D00005C080E003C0105C90E0D3CF0F90DF916A
:1041E000CF911F910F91FF90EF90DF90CF90BF90F4
:1041F000AF909F908F900895CF92DF92EF92FF92B1
:104200000F931F93CF93DF936C017A018B01C0E072
:10421000D0E0CE15DF0589F0D8016D918D01D60172
:10422000ED91FC910190F081E02DC6010995892B5B
:1042300011F47E0102C02196ECCFC701DF91CF912E
:104240001F910F91FF90EF90DF90CF900895089508
:10425000089580E090E008950E94E5328FB1809546
:10426000807F669B88601C9B846008953FB7F894AC
:104270008091B4079091B507A091B607B091B707A8
:1042800026B5A89B05C02F3F19F00196A11DB11DB1
:104290003FBFBA2FA92F982F8827820F911DA11DEC
:1042A000B11DBC01CD0142E0660F771F881F991F29
:1042B0004A95D1F708951F920F920FB60F921124CD
:1042C0002F933F938F939F93AF93BF938091AF07AB
:1042D0009091B007A091B107B091B2073091B307A8
:1042E00023E0230F2D3720F40196A11DB11D05C039
:1042F00026E8230F0296A11DB11D2093B3078093DA
:10430000AF079093B007A093B107B093B207809125
:10431000B4079091B507A091B607B091B707019681
:10432000A11DB11D8093B4079093B507A093B60764
:10433000B093B707BF91AF919F918F913F912F910C
:104340000F900FBE0F901F901895CF93DF93CDB7AE
:10435000DEB7C054D1090FB6F894DEBF0FBECDBF93
:10436000789484B5826084BD84B5816084BD85B550
:10437000826085BD85B5816085BD80916E0081605C
:1043800080936E0010928100809181008260809302
:104390008100809181008160809381008091800004
:1043A0008160809380008091910082608093910071
:1043B0008091910081608093910080919000816054
:1043C000809390008091C10084608093C1008091AF
:1043D000C10082608093C1008091C10081608093A0
:1043E000C1008091C30081608093C3008091C000B0
:1043F00082608093C0008091C20081608093C2007F
:1044000080917A00846080937A0080917A00826043
:1044100080937A0080917A00816080937A00809105
:104420007A00806880937A0010926E011092660183
:10443000109267018091D70081608093D70080EA55
:104440008093D80089B5806189BD89B5826089BDB6
:1044500009B400FEFDCF61E070E080E090E00E94D2
:1044600031158091D8008F7C80618093D800809135
:10447000E000807F8093E0008091E1008E7E809359
:10448000E1008DE08093E200559A209AEEEFFFE77D
:10449000859194918B3F9C4D19F481E08093650147
:1044A00081E280935A0781EC80937C0085B1806F14
:1044B00085B984B1877E84B984B1876E84B95E9AE8
:1044C0005F988AB1806D8AB9769A6E9881B3806F51
:1044D00081BB899880B38D7080BB80E58CBD81E005
:1044E0008DBD0E94861B5F9A0E94861B5E985C9819
:1044F000ECE8FDE08DE08E0F94919EBD00000DB4C0
:1045000007FEFDCF31968E13F7CF5C9A81E880933A
:104510006400809165008160809365000E942E2177
:1045200087FF0AC08091640080628093640081E00C
:1045300083BF889513BEFCCF86ED93E090938105F1
:104540008093800580E992E09093830580938205B3
:1045500088E0809386051092870510928505109259
:10456000840581E2809389051092880581E080931B
:104570008A0510928B0510928C0510928D05109271
:104580008E0510928F051092900510929B0588EF72
:1045900080939C0510929D0510929E0510929205A5
:1045A00010929A05109293051092980585E0E1EE1D
:1045B000F6E0DF011D928A95E9F71092E606109267
:1045C000050710920B071092D5061092480710921B
:1045D00050071092510770E2A72EB12C712CE6E023
:1045E0005E2E33243394FFE16F2EAAE02A2EB0E230
:1045F0009B2E8BE1C82ED12C30E2E32EF12C812CA6
:1046000098E040E1442E78EF672D882D7DAF9EAF76
:104610000E949C1C27EE280F7DAD9EAD2430B8F57E
:1046200040910507453098F521E0240F20930507B8
:1046300050E0549E9001559E300D112422583A4F5F
:10464000F901E759FE4F80823196708231961082CF
:1046500031961082329610828A3111F08C3141F4F9
:10466000549EF001559EF00D1124E451F94F308213
:1046700025EE280F223058F4549E9001559E300D9F
:104680001124F901E451F94F30813260308387FF02
:1046900051C04091D5064A3008F04CC021E0240FAB
:1046A0002093D50650E0649E9001659E300D112444
:1046B000F901E156FA4FDF01662D1D926A95E9F77F
:1046C000F901E258FA4FF2A2E1A2B4A2A3A232AADF
:1046D00085AB803811F444A603C0813821F474A757
:1046E00095A696A615C02AE7280F273020F494A790
:1046F00045A646A60DC0823859F412AA25A216A2D4
:1047000012A611A614A695A696A6D0AAC7A611AA67
:104710008058E82FF0E0EE0FFF1FE756F24F25918B
:104720003491649EF001659EF00D1124E454FA4F1B
:1047300031832083839480E4E80EF11CA0E48A1284
:1047400063CF7394B0E4AB0EB11C7A1255CF92E0F4
:10475000E12CA6E0DA2EBB24B394B1E1AB2E89E0C4
:10476000982E25E0822EF12CF3E0CF2E6F2D8E2D8A
:104770009EAF0E949C1C9EAD8D3108F079C0E82F41
:10478000F0E0E55DFE4F20812F3009F06EC09230E1
:1047900009F041C0409148074A3008F06DC091E0EF
:1047A000940F9093480750E0D49E9001D59E300D11
:1047B00011248901045F184F22583A4FF901E2573A
:1047C000FE4F10828F30B1F0B082D901A157BE4F99
:1047D000EC921196FC92813111F4C0820BC08231AF
:1047E00011F4808207C0833111F4908203C08431B8
:1047F00009F4A082D49EC001D59E900D1124825848
:104800009A4FFC01EE56FE4FF0823196F0823297BD
:10481000108291E02DC0913051F58F30E1F081315F
:1048200021F4F801908192600CC0823129F4D80102
:104830009C9194609C9306C0833131F4F80190817F
:104840009860908392E007C092E0843121F4D8010F
:104850002C9120612C938151843018F4F801E1826D
:10486000F282D8011596FC9203C092E001C090E05C
:10487000F394B0E4FB127ACFE394E0E4EE1273CF4A
:104880000E94AC178FB7F8944091AF075091B007D2
:104890006091B1077091B2078FBF80915B07F42FD1
:1048A000F81B8F2F90915C07992331F0F0935D07EF
:1048B00010925C070C945E2E90915A07F91758F4E9
:1048C0008F5F891710F00C945E2E81E083BF88956E
:1048D00013BE0C945E2E11E010935C0740935B07AF
:1048E00080915607909157070196909357078093B0
:1048F000560780915807809359070E942E21809374
:1049000058070E94AC178FB7F8948090AF0790902B
:10491000B007A090B107B090B2078BAA9CAAADAA2D
:10492000BEAA8FBF80915107882381F0812FEEE7C7
:10493000F1E081118FEF0024819381938193819322
:104940000394D1F7109251070C944F2E809191054A
:1049500087FD815F282F25952595259525958091A3
:10496000840590918505820F911D27FD9A9597FFEB
:1049700003C088599E4F06C0883601E0900714F0A6
:104980008856914090938505809384058091840595
:10499000909185057C011AE5E11AF108F7FE05C042
:1049A0007C0122EFE21A2EEFF20A80919205882311
:1049B000A1F090919305992319F094509093930549
:1049C0009091930591311CF030E23E8F02C040E19E
:1049D0004E8F81508093920513C00E942E2182FF3A
:1049E0000AC080E4809393058AE1809392051E8E2D
:1049F00051E05D8F06C080919D05809393051E8ECA
:104A00001D8E0E942E2183FF8EC0E0918405F091BF
:104A10008505ED5EF24EE49140918005509181054F
:104A20004E0F511DE7FD5A95F701ED5EF24EE491F0
:104A300020918205309183052E0F311DE7FD3A95B7
:104A4000CA0166E0969587956A95E1F7182FB90136
:104A5000E6E076956795EA95E1F7062F0E94F41E49
:104A6000893109F04BC09091050780E0E7EEF6E050
:104A7000891709F458C0208121133DC021812013DA
:104A80003AC09581292F227091FF18C090918F050F
:104A9000911114C0E1E1FDE1859194919093950508
:104AA00080939405E1E0FDE18591949190939705C1
:104AB0008093960588E78093980535C0928191117F
:104AC00032C0222341F090918F05915090938F0531
:104AD00095819D7F958391E0928313829FE39483D8
:104AE000E0910B0791E09E0F90930B07F0E0EA5FD7
:104AF000F84F808318C036968F5FBACF80919A05A1
:104B000081110EC080918805082E000C990B01962A
:104B100064E070E00E94BC32809388058FE001C0A1
:104B2000815080939A0588E08093860502E815E01D
:104B300020E835E040919005B7018091840590917F
:104B400085050E94F0159090480760908005709050
:104B500081052091820530918305BEE04B2EB7E0A0
:104B60005B2EEFE0F7E06CE077E00EE715E090E019
:104B700080E4B82E991509F488C0DB01FC904F2D14
:104B800050E055954795842F8F70BF2DB170AB2E97
:104B90004081F0FE16C0480F403411F0408305C03C
:104BA0001082D2014C914F5F4C93D201EC90A8013E
:104BB0004D565E4FDA014C91E4121CC04F2D4E7FD2
:104BC00017C0411105C0B082D2014C9141504C93A5
:104BD000E080E81AE082D201DC90A8014E565E4FD8
:104BE000DA014C91D41206C0E11004C04F2D41608F
:104BF000DB014C93D201FC90408150E0B0E4FB9E7D
:104C0000400D511D11247A01AFE3EA0EF11C680139
:104C1000B1E7CB1ABEEFDB0AD6018C906901B0E197
:104C2000CB0ED11C4C155D0518F4CE14DF0450F0EA
:104C30006901A0E1CA1AD1084C155D05E0F4CE1453
:104C4000DF04C8F4B0E48B9EA00111247A01A0E136
:104C5000EA1AF108E614F70470F4405B5F4F64163B
:104C6000750648F4482F50E0AA2019F0240F351F8C
:104C700002C0241B350B9F5FB6E04B0E511C0A5F30
:104C80001F4F36966A5F7F4F75CF30938305209311
:104C900082052090840530908505C10180974C01E4
:104CA000990FAA08BB088F8A988EA98EBA8EB7FE74
:104CB0000AC09501840108591E4F2F4F3F4F0F8B9B
:104CC000188F298F3A8F10E2210E311C032C000C13
:104CD0004408550828E6221621E032064104510412
:104CE00034F038E6231A31E0330A410851082091A4
:104CF0009B0580919D05082E000C990B820F911D3C
:104D000027FD9A954C0134E0959487943A95E1F704
:104D10009FA28EA21092E006E12C4FE1F42E80912A
:104D2000D506E81608F04BC2CE2CD12CFC9CF00125
:104D3000FD9CF00D1124E258FA4F82A981FD3DC27D
:104D4000A0908005B090810581A192A1A816B90616
:104D500030F48C010A191B09580181E003C0A81A1C
:104D6000B90A82E08090820590908305FC9CF00156
:104D7000FD9CF00D1124E258FA4F23A134A18216B4
:104D8000930638F4A901481959094A0124E0722E02
:104D900004C0821A930A98E0792E780EA814B904F8
:104DA000D0F4C40106E0880F991F0A95E1F752E09C
:104DB000A516B10420F0B5010E94A832CB010E94D3
:104DC0008B1E0AE510E0081B190BF801ED5EF24E90
:104DD000E491C40119C0C50116E0880F991F1A9506
:104DE000E1F762E08616910420F0B4010E94A83237
:104DF000CB010E948B1E8C01EAE5F0E0E81BF90B69
:104E0000ED5EF24EE491C501A0E0B0E0BC01CD0141
:104E1000B6E0660F771F881F991FBA95D1F72E2F1E
:104E2000EE0F330B440B550B0E94223675E07712C0
:104E300006C08AE590E0801B910B8C0111C096E0C2
:104E4000791203C0065A1F4F0BC0A9E07A1203C0A3
:104E5000025F1E4F05C0EEE0F1E0E01BF10B8F0199
:104E6000FC9CF001FD9CF00D1124E258FA4F96A431
:104E700046E6949E30011124C3019595879595953A
:104E800087958217930708F498C12115310509F415
:104E900094C185A5869550E4859FC0011124B90170
:104EA0000E94A832762F49E050E0F3EBAF2EB12CF0
:104EB00083EB90E0A8E6B1E0B695A7954150510983
:104EC00001F18836E1E09E07D0F4FC01ED5EF24E80
:104ED000E491E7174CF4FD013196F695E795E80F5C
:104EE000F91F5C01CF01E8CF7E175CF4FD0131961C
:104EF000F695E7955C01AE1ABF0AF501F2CF87E699
:104F000091E0FC01ED5EF24E7491462F660F550B59
:104F1000672F770F770B641B750B161617063CF47B
:104F2000A4910A2E000CBB0BA41BB50B06C0E49188
:104F3000DA01AE1BB109E7FDB395F501ED5EF24E66
:104F40006491062E000C770B641B750B1616170662
:104F50004CF4E4910E2E000CFF0BBF01641B750B8B
:104F6000AB0105C0E4914E1B5109E7FD53954A176B
:104F70005B070CF4C5016AE570E00E94BC326F89E2
:104F8000788D681B790B77FF02C068597E4FAC01A2
:104F9000420D531D4836A1E05A0714F048565140BF
:104FA000061717075CF0605C7F4FFC01EE0FFF1FD8
:104FB0006E0F7F1FA1E0601771070CF4A0E040178F
:104FC00051074CF040545109880F991F481B590B49
:104FD000041715071CF4AA2309F466C0FC9CF00111
:104FE000FD9CF00D1124E258FA4F82A980FD5BC0B0
:104FF00007A4F0A9E02DE43BF105A0F0A8014E1BA9
:105000005F0BCA018C549F4FBF01645B710960172D
:10501000710710F50E171F07F8F484EB90E0841B5E
:10502000950B1AC0E017F10748F4CF018C549F4F3D
:105030000817190718F4801B910B0EC0C8018C5477
:105040009F4F68E671E00E94A8328E1B9F0BE8E636
:10505000F1E0E81BF90BCF01AC014D5251094E3084
:10506000514048F0FC9CF001FD9CF00D1124E258E9
:10507000FA4F11AA18C0FC9CF001FD9CF00D112400
:10508000E258FA4F8738910520F48824839481AA46
:105090000AC0813E910520F4B2E0AB2EA1AA03C064
:1050A000A3E0BA2EB1AAA1E0FC9CF001FD9CF00D9A
:1050B0001124E258FA4F13A630A727A312A701A77D
:1050C000AA2309F47AC0A92CB12CC301B9010E940A
:1050D000A8328B0175AF64AF84A5882349F046E6FA
:1050E0008402C0011124B9010E94BC329B0102C09C
:1050F00020E030E0C501982F8827990F990F990F6C
:1051000081509440B801615071090E94A832FC9C02
:10511000F001FD9CF00D1124E258FA4F73AF62AF1D
:1051200011AE10AE88E390E0801B910B97FD0196C5
:1051300095958795820F931F8EA09FA0880D991D2E
:10514000FC9CF001FD9CF00D1124E258FA4F97AB46
:1051500086AB97FF13C044275527481B590B469F22
:105160009001479F300D569F300D112431AF20AF75
:10517000800F911F95AF84AF17AA16AAFC9CF0016F
:10518000FD9CF00D1124E258FA4F26A937A984ADF1
:1051900095AD820F931FC99734F088E390E0821B8E
:1051A000930B95AF84AFE091E00681E08E0F809382
:1051B000E006F0E0EA52F94FE082E394B0CD30919E
:1051C000E00680E0831798F4882359F0E82FF0E098
:1051D000DF01AA52B94F9C91EB52F94F20819217EF
:1051E00010F08F5FEFCF2C9390838150EBCFAF887F
:1051F000B88CB0927D01A0927C0110926401198A52
:10520000188A80916401803408F0B7C440917C0111
:1052100050917D0150934D0740934C07609080055D
:105220007090810583014090820550908305B52CD4
:10523000BB0C47FCB394BB0C46FCB394BC8EE72C70
:10524000EE0C67FCE394EE0C66FCE394ECA24A35AA
:1052500051050CF050C04115510509F475C1C2014A
:105260008F73992720E430E0281B390BEAE5EE2EF6
:10527000F12CE41AF50AF701EE0FFF1FBF01655884
:10528000714E7B01FB01A591B4910E94D832DC01E3
:10529000CB0126E0B695A795979587952A95D1F7E6
:1052A000680E791EF70185909490998688860F7311
:1052B000112720E430E0201B310B440F551F4558C7
:1052C000514EFA01A591B4910E94D832DC01CB0174
:1052D00076E0B695A795979587957A95D1F7480E7C
:1052E000591EFA01A590B490BB86AA8610E001E091
:1052F0000F831E8AC7C0443B51050CF061C0E4EB2C
:10530000F0E09F01241B350BA90130934D0720933A
:105310004C072A35310509F41CC1C2018F73992746
:1053200020E430E0281B390B7AE5E72EF12CE41A53
:10533000F50AF701EE0FFF1FBF016558714E7B01A3
:10534000FB01A591B4910E94D832DC01CB0126E08B
:10535000B695A795979587952A95D1F7681A790AF2
:10536000F7018591949188249924881A990A99863D
:10537000888698012F7333272F5F3F4F440F551FA7
:105380004558514EFA01A591B4910E94D832DC01E2
:10539000CB0176E0B695A795979587957A95D1F745
:1053A000480E591EFA01A590B490BB86AA8611E05A
:1053B00001E00F8302E00E8B0FEF0D8701E0C2C00A
:1053C0004E3021E052070CF05FC07A0134EBE31A53
:1053D000F108F0924D07E0924C07E114F10409F452
:1053E000C3C092012F7333272F5F3F4FEEE0F1E0F0
:1053F000BF01641B750BAB01440F551F4558514E3F
:10540000FA01A591B4910E94D832DC01CB0126E0CB
:10541000B695A795979587952A95D1F7681A790A31
:10542000FA018591949188249924881A990A998679
:10543000888698012F7333272F5F3F4FF701EE0FB8
:10544000FF1FAF014558514EFA01A591B4910E943A
:10545000D832DC01CB0166E0B695A7959795879584
:105460006A95D1F7481A590AFA0185919491AA24AC
:10547000BB24A81AB90ABB86AA8611E01F8204E0E1
:105480000E8B0FEF0D875EC0E8E6F1E09F01241B55
:10549000350BA90130934D0720934C072A35310570
:1054A00009F46BC092012F7333272F5F3F4F6AE5DA
:1054B000E62EF12CE41AF50AF701EE0FFF1FBF01EB
:1054C0006558714E7B01FB01A591B4910E94D832C1
:1054D000DC01CB01E6E0B695A79597958795EA950F
:1054E000D1F7680E791EF701859094909986888689
:1054F0000F73112720E430E0201B310B440F551FA0
:105500004558514EFA01A591B4910E94D832DC0160
:10551000CB0116E0B695A795979587951A95D1F783
:10552000481A590AFA0185919491AA24BB24A81A11
:10553000B90ABB86AA8610E01F8206E00E8B01E046
:105540000D870FEF0C8725C010E001E00F831E8A46
:1055500010C011E001E00F8302E00E8B0FEF0D870A
:105560001B861A8601E012C011E01F8204E00E8B38
:105570000FEF0D871B861A8609C010E01F8206E018
:105580000E8B01E00D871B861A860FEF0C8719869C
:1055900018868C849C8C890C8E86AD84BCA0AB0C48
:1055A000AF8680914C0790914D07EAE5F0E0E81B4B
:1055B000F90BED5EF24EE490E9A6FC01ED5EF24ED1
:1055C000F490FAA68885998597FD01964C019594EB
:1055D00087949CA68BA60C8520E202025001112420
:1055E000BEA6ADA68A859B8597FD01964C01959434
:1055F000879498AA8FA60D8520E2020250011124FB
:10560000BAAAA9AA1DA21BA218A689A4082C000C3C
:10561000990898A28F8EAAA40A2C000CBB08BAA2E3
:10562000A9A2FC8CEF2CF12CFCAEEBAE072D000FE9
:1056300067FC0395000F66FC03950B8F80917C013E
:1056400090917D01009709F449C0843B910509F4CC
:105650004DC08DA0811088C36C8D8CA10E949C1CB4
:105660008D3108F081C3E82FF0E0E55DFE4F8081C9
:105670008F3009F079C37091480740917C015091B7
:105680007D018EE795E060E0671709F46DC3FC01CA
:10569000E257FE4FDC01AF56BE4F2C912223D9F0CA
:1056A00012972C919CA0921216C011962C91AC8C42
:1056B000A21669F030E02F5F3F4FEBACFCACE21676
:1056C000F30649F4443B510534F061E002C3443B26
:1056D00051050CF4FDC26F5F0696D6CF22242A94A2
:1056E000322C2FEF3FEF3E832D8307C022242A94D4
:1056F000322C4FEF5FEF5E834D8300E08AC08E84D3
:1057000020E4829EA00111242C852F3F11F4415CDE
:105710005F4FE0908005F0908105E614F7040CF0EF
:1057200062C36301CE18DF08E0918205F091830522
:10573000E417F50708F05BC39A012E1B3F0BAF8DF2
:10574000B8A10E94D8324B015C0136E0B694A79410
:10575000979487943A95D1F79601A9A1BAA10E948E
:10576000D832DC01CB0166E0B695A7959795879571
:105770006A95D1F7B401680F791F7E836D83093173
:1057800009F040C32BA53CA5260D371DCDA4DEA4F2
:10579000C40ED51E4601A12CB12CC701A0E0B0E07B
:1057A000A901032E000C660B770B84179507A6073B
:1057B000B7070CF020C3B9016E197F097B01CF0137
:1057C000A0E0B0E088159905AA05BB050CF016C34A
:1057D00096012E1B3F0BAF8DB8A10E94D8324B0112
:1057E0005C01A6E0B694A79497948794AA95D1F704
:1057F0009701A9A1BAA10E94D832DC01CB0126E011
:10580000B695A795979587952A95D1F71401280EF7
:10581000391EF52CFF0C47FCF394FF0C46FCF39467
:1058200080917C0190917D018A35910509F412C126
:105830008E30914009F40EC16D856130C9F492013A
:10584000488959896F2D8F850E94F41EE82E811199
:1058500028C07F857F5F7F878A849B84480C591C82
:10586000F52CFF0C47FCF394FF0C46FCF394E7CFB8
:105870009201488959896F2D8F850E94F41EE82E68
:1058800081110FC02F8521502F878A849B84480C5B
:10589000591CF52CFF0C47FCF394FF0C46FCF394C9
:1058A000E7CFAF8420E4A29E50011124B98AA88AD0
:1058B0002D852F3F29F4A501415C5F4F598B488B03
:1058C000C0908005D090810588889988C814D90433
:1058D00020F4F401EC19FD0905C0F601A888B98887
:1058E000EA19FB094091820550918305441555053D
:1058F00024F49201241B350B03C09A0124193509A5
:10590000AF8DB8A10E94D8324B015C0136E0B6944D
:10591000A794979487943A95D1F79F01A9A1BAA12A
:105920000E94D832DC01CB0166E0B695A795979529
:1059300087956A95D1F7F401E80FF91F79E1972E61
:10594000E91066C06FA578A9640D751DCB01072EFF
:10595000000CAA0BBB0B8A8B9B8BAC8BBD8B8888F6
:105960009988A9A8BAA88A0C9B1C21969FAE8EAED6
:1059700021974601A12CB12C2196AEADBFAD219748
:10598000CD01A0E0B0E088169906AA06BB0644F453
:1059900021968EAC9FAC21978C189D08640106C09F
:1059A0002196AEACBFAC2197CA18DB08CA01A0E0B3
:1059B000B0E08A889B88AC88BD8888159905AA05BF
:1059C000BB0524F49B01241B350B03C09A01261B45
:1059D000370BAF8DB8A10E94D8324B015C01A6E015
:1059E000B694A79497948794AA95D1F79601A9A104
:1059F000BAA10E94D832DC01CB0126E0B695A7956A
:105A0000979587952A95D1F76401C80ED91E15C0C0
:105A10007FE0972EE9100DC0A0904907ABA2C0907F
:105A20004A07D0904B072FEFC216D206F1F46F0150
:105A30001CC039E26F01E31206C02C143D0408F4C7
:105A4000FBC169E2E62E0931D9F4C214D30408F48B
:105A5000FCC109C0093109F012C5E12CCC24CA945B
:105A6000DC2CEFEFFFEF09E1F4C10F3061F78D801F
:105A70009E808E169F0621F42FEF3FEF3E832D83ED
:105A80008D809E80E815F905B8F0910140E050E066
:105A90002A8B3B8B4C8B5D8B2B8D0F3009F4E8C12F
:105AA000C30160E470E00E94BC32B82E912F1F81C8
:105AB000E02EFE8400E01DC02F85A60160E070E0AE
:105AC0004A8B5B8B6C8B7D8B5FE0E5120AC080910B
:105AD0004A0790914B07019609F4CEC11F81BBA0E4
